{
  "contractName": "BlackPaperToken",
  "abi": [
    {
      "inputs": [],
      "stateMutability": "nonpayable",
      "type": "constructor"
    },
    {
      "anonymous": false,
      "inputs": [
        {
          "indexed": true,
          "internalType": "address",
          "name": "owner",
          "type": "address"
        },
        {
          "indexed": true,
          "internalType": "address",
          "name": "spender",
          "type": "address"
        },
        {
          "indexed": false,
          "internalType": "uint256",
          "name": "value",
          "type": "uint256"
        }
      ],
      "name": "Approval",
      "type": "event"
    },
    {
      "anonymous": false,
      "inputs": [
        {
          "indexed": false,
          "internalType": "uint256",
          "name": "newFeePercent",
          "type": "uint256"
        }
      ],
      "name": "BuybackFeeChanged",
      "type": "event"
    },
    {
      "anonymous": false,
      "inputs": [
        {
          "indexed": false,
          "internalType": "address",
          "name": "account",
          "type": "address"
        }
      ],
      "name": "Paused",
      "type": "event"
    },
    {
      "anonymous": false,
      "inputs": [
        {
          "indexed": true,
          "internalType": "bytes32",
          "name": "role",
          "type": "bytes32"
        },
        {
          "indexed": true,
          "internalType": "bytes32",
          "name": "previousAdminRole",
          "type": "bytes32"
        },
        {
          "indexed": true,
          "internalType": "bytes32",
          "name": "newAdminRole",
          "type": "bytes32"
        }
      ],
      "name": "RoleAdminChanged",
      "type": "event"
    },
    {
      "anonymous": false,
      "inputs": [
        {
          "indexed": true,
          "internalType": "bytes32",
          "name": "role",
          "type": "bytes32"
        },
        {
          "indexed": true,
          "internalType": "address",
          "name": "account",
          "type": "address"
        },
        {
          "indexed": true,
          "internalType": "address",
          "name": "sender",
          "type": "address"
        }
      ],
      "name": "RoleGranted",
      "type": "event"
    },
    {
      "anonymous": false,
      "inputs": [
        {
          "indexed": true,
          "internalType": "bytes32",
          "name": "role",
          "type": "bytes32"
        },
        {
          "indexed": true,
          "internalType": "address",
          "name": "account",
          "type": "address"
        },
        {
          "indexed": true,
          "internalType": "address",
          "name": "sender",
          "type": "address"
        }
      ],
      "name": "RoleRevoked",
      "type": "event"
    },
    {
      "anonymous": false,
      "inputs": [
        {
          "indexed": true,
          "internalType": "address",
          "name": "from",
          "type": "address"
        },
        {
          "indexed": true,
          "internalType": "address",
          "name": "to",
          "type": "address"
        },
        {
          "indexed": false,
          "internalType": "uint256",
          "name": "value",
          "type": "uint256"
        }
      ],
      "name": "Transfer",
      "type": "event"
    },
    {
      "anonymous": false,
      "inputs": [
        {
          "indexed": false,
          "internalType": "address",
          "name": "account",
          "type": "address"
        }
      ],
      "name": "Unpaused",
      "type": "event"
    },
    {
      "inputs": [],
      "name": "DEFAULT_ADMIN_ROLE",
      "outputs": [
        {
          "internalType": "bytes32",
          "name": "",
          "type": "bytes32"
        }
      ],
      "stateMutability": "view",
      "type": "function"
    },
    {
      "inputs": [],
      "name": "MINTER_ROLE",
      "outputs": [
        {
          "internalType": "bytes32",
          "name": "",
          "type": "bytes32"
        }
      ],
      "stateMutability": "view",
      "type": "function"
    },
    {
      "inputs": [
        {
          "internalType": "address",
          "name": "owner",
          "type": "address"
        },
        {
          "internalType": "address",
          "name": "spender",
          "type": "address"
        }
      ],
      "name": "allowance",
      "outputs": [
        {
          "internalType": "uint256",
          "name": "",
          "type": "uint256"
        }
      ],
      "stateMutability": "view",
      "type": "function"
    },
    {
      "inputs": [
        {
          "internalType": "address",
          "name": "spender",
          "type": "address"
        },
        {
          "internalType": "uint256",
          "name": "amount",
          "type": "uint256"
        }
      ],
      "name": "approve",
      "outputs": [
        {
          "internalType": "bool",
          "name": "",
          "type": "bool"
        }
      ],
      "stateMutability": "nonpayable",
      "type": "function"
    },
    {
      "inputs": [
        {
          "internalType": "address",
          "name": "account",
          "type": "address"
        }
      ],
      "name": "balanceOf",
      "outputs": [
        {
          "internalType": "uint256",
          "name": "",
          "type": "uint256"
        }
      ],
      "stateMutability": "view",
      "type": "function"
    },
    {
      "inputs": [
        {
          "internalType": "uint256",
          "name": "amount",
          "type": "uint256"
        }
      ],
      "name": "burn",
      "outputs": [],
      "stateMutability": "nonpayable",
      "type": "function"
    },
    {
      "inputs": [
        {
          "internalType": "address",
          "name": "account",
          "type": "address"
        },
        {
          "internalType": "uint256",
          "name": "amount",
          "type": "uint256"
        }
      ],
      "name": "burnFrom",
      "outputs": [],
      "stateMutability": "nonpayable",
      "type": "function"
    },
    {
      "inputs": [],
      "name": "decimals",
      "outputs": [
        {
          "internalType": "uint8",
          "name": "",
          "type": "uint8"
        }
      ],
      "stateMutability": "view",
      "type": "function"
    },
    {
      "inputs": [
        {
          "internalType": "address",
          "name": "spender",
          "type": "address"
        },
        {
          "internalType": "uint256",
          "name": "subtractedValue",
          "type": "uint256"
        }
      ],
      "name": "decreaseAllowance",
      "outputs": [
        {
          "internalType": "bool",
          "name": "",
          "type": "bool"
        }
      ],
      "stateMutability": "nonpayable",
      "type": "function"
    },
    {
      "inputs": [
        {
          "internalType": "bytes32",
          "name": "role",
          "type": "bytes32"
        }
      ],
      "name": "getRoleAdmin",
      "outputs": [
        {
          "internalType": "bytes32",
          "name": "",
          "type": "bytes32"
        }
      ],
      "stateMutability": "view",
      "type": "function"
    },
    {
      "inputs": [
        {
          "internalType": "bytes32",
          "name": "role",
          "type": "bytes32"
        },
        {
          "internalType": "address",
          "name": "account",
          "type": "address"
        }
      ],
      "name": "grantRole",
      "outputs": [],
      "stateMutability": "nonpayable",
      "type": "function"
    },
    {
      "inputs": [
        {
          "internalType": "bytes32",
          "name": "role",
          "type": "bytes32"
        },
        {
          "internalType": "address",
          "name": "account",
          "type": "address"
        }
      ],
      "name": "hasRole",
      "outputs": [
        {
          "internalType": "bool",
          "name": "",
          "type": "bool"
        }
      ],
      "stateMutability": "view",
      "type": "function"
    },
    {
      "inputs": [
        {
          "internalType": "address",
          "name": "spender",
          "type": "address"
        },
        {
          "internalType": "uint256",
          "name": "addedValue",
          "type": "uint256"
        }
      ],
      "name": "increaseAllowance",
      "outputs": [
        {
          "internalType": "bool",
          "name": "",
          "type": "bool"
        }
      ],
      "stateMutability": "nonpayable",
      "type": "function"
    },
    {
      "inputs": [],
      "name": "name",
      "outputs": [
        {
          "internalType": "string",
          "name": "",
          "type": "string"
        }
      ],
      "stateMutability": "view",
      "type": "function"
    },
    {
      "inputs": [],
      "name": "paused",
      "outputs": [
        {
          "internalType": "bool",
          "name": "",
          "type": "bool"
        }
      ],
      "stateMutability": "view",
      "type": "function"
    },
    {
      "inputs": [
        {
          "internalType": "bytes32",
          "name": "role",
          "type": "bytes32"
        },
        {
          "internalType": "address",
          "name": "account",
          "type": "address"
        }
      ],
      "name": "renounceRole",
      "outputs": [],
      "stateMutability": "nonpayable",
      "type": "function"
    },
    {
      "inputs": [
        {
          "internalType": "bytes32",
          "name": "role",
          "type": "bytes32"
        },
        {
          "internalType": "address",
          "name": "account",
          "type": "address"
        }
      ],
      "name": "revokeRole",
      "outputs": [],
      "stateMutability": "nonpayable",
      "type": "function"
    },
    {
      "inputs": [
        {
          "internalType": "bytes4",
          "name": "interfaceId",
          "type": "bytes4"
        }
      ],
      "name": "supportsInterface",
      "outputs": [
        {
          "internalType": "bool",
          "name": "",
          "type": "bool"
        }
      ],
      "stateMutability": "view",
      "type": "function"
    },
    {
      "inputs": [],
      "name": "symbol",
      "outputs": [
        {
          "internalType": "string",
          "name": "",
          "type": "string"
        }
      ],
      "stateMutability": "view",
      "type": "function"
    },
    {
      "inputs": [],
      "name": "totalSupply",
      "outputs": [
        {
          "internalType": "uint256",
          "name": "",
          "type": "uint256"
        }
      ],
      "stateMutability": "view",
      "type": "function"
    },
    {
      "inputs": [
        {
          "internalType": "address",
          "name": "to",
          "type": "address"
        },
        {
          "internalType": "uint256",
          "name": "amount",
          "type": "uint256"
        }
      ],
      "name": "transfer",
      "outputs": [
        {
          "internalType": "bool",
          "name": "",
          "type": "bool"
        }
      ],
      "stateMutability": "nonpayable",
      "type": "function"
    },
    {
      "inputs": [
        {
          "internalType": "address",
          "name": "from",
          "type": "address"
        },
        {
          "internalType": "address",
          "name": "to",
          "type": "address"
        },
        {
          "internalType": "uint256",
          "name": "amount",
          "type": "uint256"
        }
      ],
      "name": "transferFrom",
      "outputs": [
        {
          "internalType": "bool",
          "name": "",
          "type": "bool"
        }
      ],
      "stateMutability": "nonpayable",
      "type": "function"
    },
    {
      "inputs": [],
      "name": "uniswapRouter",
      "outputs": [
        {
          "internalType": "contract IUniswapV2Router",
          "name": "",
          "type": "address"
        }
      ],
      "stateMutability": "view",
      "type": "function"
    },
    {
      "stateMutability": "payable",
      "type": "receive"
    }
  ],
  "bytecode": "0x608060405262000014620001a260201b60201c565b600a6200002291906200062e565b63160dc0806200003391906200067e565b600855600260095534801562000047575f80fd5b506040518060400160405280600f81526020017f426c61636b5061706572546f6b656e00000000000000000000000000000000008152506040518060400160405280600481526020017f424c5054000000000000000000000000000000000000000000000000000000008152508160039081620000c5919062000923565b508060049081620000d7919062000923565b5050505f60065f6101000a81548160ff02191690831515021790555060016007819055505f6008541162000142576040517f08c379a0000000000000000000000000000000000000000000000000000000008152600401620001399062000a8b565b60405180910390fd5b6200015633600854620001aa60201b60201c565b6200016a5f801b33620001c060201b60201c565b6200019c7f9f2df0fed2c77648de5860a4cc508cd0818c85b8b8a1ab4ceeef8d981c8956a633620001c060201b60201c565b62000b7f565b5f6012905090565b620001bc8282620001d660201b60201c565b5050565b620001d282826200033b60201b60201c565b5050565b5f73ffffffffffffffffffffffffffffffffffffffff168273ffffffffffffffffffffffffffffffffffffffff160362000247576040517f08c379a00000000000000000000000000000000000000000000000000000000081526004016200023e9062000af9565b60405180910390fd5b6200025a5f83836200042760201b60201c565b8060025f8282546200026d919062000b19565b92505081905550805f808473ffffffffffffffffffffffffffffffffffffffff1673ffffffffffffffffffffffffffffffffffffffff1681526020019081526020015f205f82825401925050819055508173ffffffffffffffffffffffffffffffffffffffff165f73ffffffffffffffffffffffffffffffffffffffff167fddf252ad1be2c89b69c2b068fc378daa952ba7f163c4a11628f55a4df523b3ef836040516200031c919062000b64565b60405180910390a3620003375f83836200042c60201b60201c565b5050565b6200034d82826200043160201b60201c565b6200042357600160055f8481526020019081526020015f205f015f8373ffffffffffffffffffffffffffffffffffffffff1673ffffffffffffffffffffffffffffffffffffffff1681526020019081526020015f205f6101000a81548160ff021916908315150217905550620003c86200049560201b60201c565b73ffffffffffffffffffffffffffffffffffffffff168173ffffffffffffffffffffffffffffffffffffffff16837f2f8788117e7eff1d82e926ec794901d17c78024a50270940304540a733656f0d60405160405180910390a45b5050565b505050565b505050565b5f60055f8481526020019081526020015f205f015f8373ffffffffffffffffffffffffffffffffffffffff1673ffffffffffffffffffffffffffffffffffffffff1681526020019081526020015f205f9054906101000a900460ff16905092915050565b5f33905090565b7f4e487b71000000000000000000000000000000000000000000000000000000005f52601160045260245ffd5b5f8160011c9050919050565b5f808291508390505b60018511156200052657808604811115620004fe57620004fd6200049c565b5b60018516156200050e5780820291505b80810290506200051e85620004c9565b9450620004de565b94509492505050565b5f8262000540576001905062000612565b816200054f575f905062000612565b81600181146200056857600281146200057357620005a9565b600191505062000612565b60ff8411156200058857620005876200049c565b5b8360020a915084821115620005a257620005a16200049c565b5b5062000612565b5060208310610133831016604e8410600b8410161715620005e35782820a905083811115620005dd57620005dc6200049c565b5b62000612565b620005f28484846001620004d5565b925090508184048111156200060c576200060b6200049c565b5b81810290505b9392505050565b5f819050919050565b5f60ff82169050919050565b5f6200063a8262000619565b9150620006478362000622565b9250620006767fffffffffffffffffffffffffffffffffffffffffffffffffffffffffffffffff84846200052f565b905092915050565b5f6200068a8262000619565b9150620006978362000619565b9250828202620006a78162000619565b91508282048414831517620006c157620006c06200049c565b5b5092915050565b5f81519050919050565b7f4e487b71000000000000000000000000000000000000000000000000000000005f52604160045260245ffd5b7f4e487b71000000000000000000000000000000000000000000000000000000005f52602260045260245ffd5b5f60028204905060018216806200074457607f821691505b6020821081036200075a5762000759620006ff565b5b50919050565b5f819050815f5260205f209050919050565b5f6020601f8301049050919050565b5f82821b905092915050565b5f60088302620007be7fffffffffffffffffffffffffffffffffffffffffffffffffffffffffffffffff8262000781565b620007ca868362000781565b95508019841693508086168417925050509392505050565b5f819050919050565b5f6200080b62000805620007ff8462000619565b620007e2565b62000619565b9050919050565b5f819050919050565b6200082683620007eb565b6200083e620008358262000812565b8484546200078d565b825550505050565b5f90565b6200085462000846565b620008618184846200081b565b505050565b5b8181101562000888576200087c5f826200084a565b60018101905062000867565b5050565b601f821115620008d757620008a18162000760565b620008ac8462000772565b81016020851015620008bc578190505b620008d4620008cb8562000772565b83018262000866565b50505b505050565b5f82821c905092915050565b5f620008f95f1984600802620008dc565b1980831691505092915050565b5f620009138383620008e8565b9150826002028217905092915050565b6200092e82620006c8565b67ffffffffffffffff8111156200094a5762000949620006d2565b5b6200095682546200072c565b620009638282856200088c565b5f60209050601f83116001811462000999575f841562000984578287015190505b62000990858262000906565b865550620009ff565b601f198416620009a98662000760565b5f5b82811015620009d257848901518255600182019150602085019450602081019050620009ab565b86831015620009f25784890151620009ee601f891682620008e8565b8355505b6001600288020188555050505b505050505050565b5f82825260208201905092915050565b7f496e697469616c20737570706c79206d757374206265206772656174657220745f8201527f68616e207a65726f000000000000000000000000000000000000000000000000602082015250565b5f62000a7360288362000a07565b915062000a808262000a17565b604082019050919050565b5f6020820190508181035f83015262000aa48162000a65565b9050919050565b7f45524332303a206d696e7420746f20746865207a65726f2061646472657373005f82015250565b5f62000ae1601f8362000a07565b915062000aee8262000aab565b602082019050919050565b5f6020820190508181035f83015262000b128162000ad3565b9050919050565b5f62000b258262000619565b915062000b328362000619565b925082820190508082111562000b4d5762000b4c6200049c565b5b92915050565b62000b5e8162000619565b82525050565b5f60208201905062000b795f83018462000b53565b92915050565b6123ff8062000b8d5f395ff3fe608060405260043610610143575f3560e01c80635c975abb116100b5578063a217fddf1161006e578063a217fddf1461048e578063a457c2d7146104b8578063a9059cbb146104f4578063d539139314610530578063d547741f1461055a578063dd62ed3e146105825761014a565b80635c975abb1461037057806370a082311461039a578063735de9f7146103d657806379cc67901461040057806391d148541461042857806395d89b41146104645761014a565b8063248a9ca311610107578063248a9ca3146102565780632f2ff15d14610292578063313ce567146102ba57806336568abe146102e4578063395093511461030c57806342966c68146103485761014a565b806301ffc9a71461014e57806306fdde031461018a578063095ea7b3146101b457806318160ddd146101f057806323b872dd1461021a5761014a565b3661014a57005b5f80fd5b348015610159575f80fd5b50610174600480360381019061016f919061172a565b6105be565b604051610181919061176f565b60405180910390f35b348015610195575f80fd5b5061019e610637565b6040516101ab9190611812565b60405180910390f35b3480156101bf575f80fd5b506101da60048036038101906101d591906118bf565b6106c7565b6040516101e7919061176f565b60405180910390f35b3480156101fb575f80fd5b506102046106e9565b604051610211919061190c565b60405180910390f35b348015610225575f80fd5b50610240600480360381019061023b9190611925565b6106f2565b60405161024d919061176f565b60405180910390f35b348015610261575f80fd5b5061027c600480360381019061027791906119a8565b610720565b60405161028991906119e2565b60405180910390f35b34801561029d575f80fd5b506102b860048036038101906102b391906119fb565b61073d565b005b3480156102c5575f80fd5b506102ce61075e565b6040516102db9190611a54565b60405180910390f35b3480156102ef575f80fd5b5061030a600480360381019061030591906119fb565b610766565b005b348015610317575f80fd5b50610332600480360381019061032d91906118bf565b6107e9565b60405161033f919061176f565b60405180910390f35b348015610353575f80fd5b5061036e60048036038101906103699190611a6d565b61081f565b005b34801561037b575f80fd5b50610384610833565b604051610391919061176f565b60405180910390f35b3480156103a5575f80fd5b506103c060048036038101906103bb9190611a98565b610848565b6040516103cd919061190c565b60405180910390f35b3480156103e1575f80fd5b506103ea61088d565b6040516103f79190611b1e565b60405180910390f35b34801561040b575f80fd5b50610426600480360381019061042191906118bf565b6108b2565b005b348015610433575f80fd5b5061044e600480360381019061044991906119fb565b6108d2565b60405161045b919061176f565b60405180910390f35b34801561046f575f80fd5b50610478610936565b6040516104859190611812565b60405180910390f35b348015610499575f80fd5b506104a26109c6565b6040516104af91906119e2565b60405180910390f35b3480156104c3575f80fd5b506104de60048036038101906104d991906118bf565b6109cc565b6040516104eb919061176f565b60405180910390f35b3480156104ff575f80fd5b5061051a600480360381019061051591906118bf565b610a41565b604051610527919061176f565b60405180910390f35b34801561053b575f80fd5b50610544610a63565b60405161055191906119e2565b60405180910390f35b348015610565575f80fd5b50610580600480360381019061057b91906119fb565b610a87565b005b34801561058d575f80fd5b506105a860048036038101906105a39190611b37565b610aa8565b6040516105b5919061190c565b60405180910390f35b5f7f7965db0b000000000000000000000000000000000000000000000000000000007bffffffffffffffffffffffffffffffffffffffffffffffffffffffff1916827bffffffffffffffffffffffffffffffffffffffffffffffffffffffff19161480610630575061062f82610b2a565b5b9050919050565b60606003805461064690611ba2565b80601f016020809104026020016040519081016040528092919081815260200182805461067290611ba2565b80156106bd5780601f10610694576101008083540402835291602001916106bd565b820191905f5260205f20905b8154815290600101906020018083116106a057829003601f168201915b5050505050905090565b5f806106d1610b93565b90506106de818585610b9a565b600191505092915050565b5f600254905090565b5f806106fc610b93565b9050610709858285610d5d565b610714858585610de8565b60019150509392505050565b5f60055f8381526020019081526020015f20600101549050919050565b61074682610720565b61074f81611054565b6107598383611068565b505050565b5f6012905090565b61076e610b93565b73ffffffffffffffffffffffffffffffffffffffff168173ffffffffffffffffffffffffffffffffffffffff16146107db576040517f08c379a00000000000000000000000000000000000000000000000000000000081526004016107d290611c42565b60405180910390fd5b6107e58282611143565b5050565b5f806107f3610b93565b90506108148185856108058589610aa8565b61080f9190611c8d565b610b9a565b600191505092915050565b61083061082a610b93565b8261121e565b50565b5f60065f9054906101000a900460ff16905090565b5f805f8373ffffffffffffffffffffffffffffffffffffffff1673ffffffffffffffffffffffffffffffffffffffff1681526020019081526020015f20549050919050565b600a5f9054906101000a900473ffffffffffffffffffffffffffffffffffffffff1681565b6108c4826108be610b93565b83610d5d565b6108ce828261121e565b5050565b5f60055f8481526020019081526020015f205f015f8373ffffffffffffffffffffffffffffffffffffffff1673ffffffffffffffffffffffffffffffffffffffff1681526020019081526020015f205f9054906101000a900460ff16905092915050565b60606004805461094590611ba2565b80601f016020809104026020016040519081016040528092919081815260200182805461097190611ba2565b80156109bc5780601f10610993576101008083540402835291602001916109bc565b820191905f5260205f20905b81548152906001019060200180831161099f57829003601f168201915b5050505050905090565b5f801b81565b5f806109d6610b93565b90505f6109e38286610aa8565b905083811015610a28576040517f08c379a0000000000000000000000000000000000000000000000000000000008152600401610a1f90611d30565b60405180910390fd5b610a358286868403610b9a565b60019250505092915050565b5f80610a4b610b93565b9050610a58818585610de8565b600191505092915050565b7f9f2df0fed2c77648de5860a4cc508cd0818c85b8b8a1ab4ceeef8d981c8956a681565b610a9082610720565b610a9981611054565b610aa38383611143565b505050565b5f60015f8473ffffffffffffffffffffffffffffffffffffffff1673ffffffffffffffffffffffffffffffffffffffff1681526020019081526020015f205f8373ffffffffffffffffffffffffffffffffffffffff1673ffffffffffffffffffffffffffffffffffffffff1681526020019081526020015f2054905092915050565b5f7f01ffc9a7000000000000000000000000000000000000000000000000000000007bffffffffffffffffffffffffffffffffffffffffffffffffffffffff1916827bffffffffffffffffffffffffffffffffffffffffffffffffffffffff1916149050919050565b5f33905090565b5f73ffffffffffffffffffffffffffffffffffffffff168373ffffffffffffffffffffffffffffffffffffffff1603610c08576040517f08c379a0000000000000000000000000000000000000000000000000000000008152600401610bff90611dbe565b60405180910390fd5b5f73ffffffffffffffffffffffffffffffffffffffff168273ffffffffffffffffffffffffffffffffffffffff1603610c76576040517f08c379a0000000000000000000000000000000000000000000000000000000008152600401610c6d90611e4c565b60405180910390fd5b8060015f8573ffffffffffffffffffffffffffffffffffffffff1673ffffffffffffffffffffffffffffffffffffffff1681526020019081526020015f205f8473ffffffffffffffffffffffffffffffffffffffff1673ffffffffffffffffffffffffffffffffffffffff1681526020019081526020015f20819055508173ffffffffffffffffffffffffffffffffffffffff168373ffffffffffffffffffffffffffffffffffffffff167f8c5be1e5ebec7d5bd14f71427d1e84f3dd0314c0f7b2291e5b200ac8c7c3b92583604051610d50919061190c565b60405180910390a3505050565b5f610d688484610aa8565b90507fffffffffffffffffffffffffffffffffffffffffffffffffffffffffffffffff8114610de25781811015610dd4576040517f08c379a0000000000000000000000000000000000000000000000000000000008152600401610dcb90611eb4565b60405180910390fd5b610de18484848403610b9a565b5b50505050565b5f73ffffffffffffffffffffffffffffffffffffffff168373ffffffffffffffffffffffffffffffffffffffff1603610e56576040517f08c379a0000000000000000000000000000000000000000000000000000000008152600401610e4d90611f42565b60405180910390fd5b5f73ffffffffffffffffffffffffffffffffffffffff168273ffffffffffffffffffffffffffffffffffffffff1603610ec4576040517f08c379a0000000000000000000000000000000000000000000000000000000008152600401610ebb90611fd0565b60405180910390fd5b610ecf8383836113e1565b5f805f8573ffffffffffffffffffffffffffffffffffffffff1673ffffffffffffffffffffffffffffffffffffffff1681526020019081526020015f2054905081811015610f52576040517f08c379a0000000000000000000000000000000000000000000000000000000008152600401610f499061205e565b60405180910390fd5b8181035f808673ffffffffffffffffffffffffffffffffffffffff1673ffffffffffffffffffffffffffffffffffffffff1681526020019081526020015f2081905550815f808573ffffffffffffffffffffffffffffffffffffffff1673ffffffffffffffffffffffffffffffffffffffff1681526020019081526020015f205f82825401925050819055508273ffffffffffffffffffffffffffffffffffffffff168473ffffffffffffffffffffffffffffffffffffffff167fddf252ad1be2c89b69c2b068fc378daa952ba7f163c4a11628f55a4df523b3ef8460405161103b919061190c565b60405180910390a361104e8484846113e6565b50505050565b61106581611060610b93565b6113eb565b50565b61107282826108d2565b61113f57600160055f8481526020019081526020015f205f015f8373ffffffffffffffffffffffffffffffffffffffff1673ffffffffffffffffffffffffffffffffffffffff1681526020019081526020015f205f6101000a81548160ff0219169083151502179055506110e4610b93565b73ffffffffffffffffffffffffffffffffffffffff168173ffffffffffffffffffffffffffffffffffffffff16837f2f8788117e7eff1d82e926ec794901d17c78024a50270940304540a733656f0d60405160405180910390a45b5050565b61114d82826108d2565b1561121a575f60055f8481526020019081526020015f205f015f8373ffffffffffffffffffffffffffffffffffffffff1673ffffffffffffffffffffffffffffffffffffffff1681526020019081526020015f205f6101000a81548160ff0219169083151502179055506111bf610b93565b73ffffffffffffffffffffffffffffffffffffffff168173ffffffffffffffffffffffffffffffffffffffff16837ff6391f5c32d9c69d2a47ea670b442974b53935d1edc7fd64eb21e047a839171b60405160405180910390a45b5050565b5f73ffffffffffffffffffffffffffffffffffffffff168273ffffffffffffffffffffffffffffffffffffffff160361128c576040517f08c379a0000000000000000000000000000000000000000000000000000000008152600401611283906120ec565b60405180910390fd5b611297825f836113e1565b5f805f8473ffffffffffffffffffffffffffffffffffffffff1673ffffffffffffffffffffffffffffffffffffffff1681526020019081526020015f205490508181101561131a576040517f08c379a00000000000000000000000000000000000000000000000000000000081526004016113119061217a565b60405180910390fd5b8181035f808573ffffffffffffffffffffffffffffffffffffffff1673ffffffffffffffffffffffffffffffffffffffff1681526020019081526020015f20819055508160025f82825403925050819055505f73ffffffffffffffffffffffffffffffffffffffff168373ffffffffffffffffffffffffffffffffffffffff167fddf252ad1be2c89b69c2b068fc378daa952ba7f163c4a11628f55a4df523b3ef846040516113c9919061190c565b60405180910390a36113dc835f846113e6565b505050565b505050565b505050565b6113f582826108d2565b61146b576114028161146f565b61140f835f1c602061149c565b604051602001611420929190612266565b6040516020818303038152906040526040517f08c379a00000000000000000000000000000000000000000000000000000000081526004016114629190611812565b60405180910390fd5b5050565b60606114958273ffffffffffffffffffffffffffffffffffffffff16601460ff1661149c565b9050919050565b60605f60028360026114ae919061229f565b6114b89190611c8d565b67ffffffffffffffff8111156114d1576114d06122e0565b5b6040519080825280601f01601f1916602001820160405280156115035781602001600182028036833780820191505090505b5090507f3000000000000000000000000000000000000000000000000000000000000000815f8151811061153a5761153961230d565b5b60200101907effffffffffffffffffffffffffffffffffffffffffffffffffffffffffffff191690815f1a9053507f78000000000000000000000000000000000000000000000000000000000000008160018151811061159d5761159c61230d565b5b60200101907effffffffffffffffffffffffffffffffffffffffffffffffffffffffffffff191690815f1a9053505f60018460026115db919061229f565b6115e59190611c8d565b90505b6001811115611684577f3031323334353637383961626364656600000000000000000000000000000000600f8616601081106116275761162661230d565b5b1a60f81b82828151811061163e5761163d61230d565b5b60200101907effffffffffffffffffffffffffffffffffffffffffffffffffffffffffffff191690815f1a905350600485901c94508061167d9061233a565b90506115e8565b505f84146116c7576040517f08c379a00000000000000000000000000000000000000000000000000000000081526004016116be906123ab565b60405180910390fd5b8091505092915050565b5f80fd5b5f7fffffffff0000000000000000000000000000000000000000000000000000000082169050919050565b611709816116d5565b8114611713575f80fd5b50565b5f8135905061172481611700565b92915050565b5f6020828403121561173f5761173e6116d1565b5b5f61174c84828501611716565b91505092915050565b5f8115159050919050565b61176981611755565b82525050565b5f6020820190506117825f830184611760565b92915050565b5f81519050919050565b5f82825260208201905092915050565b5f5b838110156117bf5780820151818401526020810190506117a4565b5f8484015250505050565b5f601f19601f8301169050919050565b5f6117e482611788565b6117ee8185611792565b93506117fe8185602086016117a2565b611807816117ca565b840191505092915050565b5f6020820190508181035f83015261182a81846117da565b905092915050565b5f73ffffffffffffffffffffffffffffffffffffffff82169050919050565b5f61185b82611832565b9050919050565b61186b81611851565b8114611875575f80fd5b50565b5f8135905061188681611862565b92915050565b5f819050919050565b61189e8161188c565b81146118a8575f80fd5b50565b5f813590506118b981611895565b92915050565b5f80604083850312156118d5576118d46116d1565b5b5f6118e285828601611878565b92505060206118f3858286016118ab565b9150509250929050565b6119068161188c565b82525050565b5f60208201905061191f5f8301846118fd565b92915050565b5f805f6060848603121561193c5761193b6116d1565b5b5f61194986828701611878565b935050602061195a86828701611878565b925050604061196b868287016118ab565b9150509250925092565b5f819050919050565b61198781611975565b8114611991575f80fd5b50565b5f813590506119a28161197e565b92915050565b5f602082840312156119bd576119bc6116d1565b5b5f6119ca84828501611994565b91505092915050565b6119dc81611975565b82525050565b5f6020820190506119f55f8301846119d3565b92915050565b5f8060408385031215611a1157611a106116d1565b5b5f611a1e85828601611994565b9250506020611a2f85828601611878565b9150509250929050565b5f60ff82169050919050565b611a4e81611a39565b82525050565b5f602082019050611a675f830184611a45565b92915050565b5f60208284031215611a8257611a816116d1565b5b5f611a8f848285016118ab565b91505092915050565b5f60208284031215611aad57611aac6116d1565b5b5f611aba84828501611878565b91505092915050565b5f819050919050565b5f611ae6611ae1611adc84611832565b611ac3565b611832565b9050919050565b5f611af782611acc565b9050919050565b5f611b0882611aed565b9050919050565b611b1881611afe565b82525050565b5f602082019050611b315f830184611b0f565b92915050565b5f8060408385031215611b4d57611b4c6116d1565b5b5f611b5a85828601611878565b9250506020611b6b85828601611878565b9150509250929050565b7f4e487b71000000000000000000000000000000000000000000000000000000005f52602260045260245ffd5b5f6002820490506001821680611bb957607f821691505b602082108103611bcc57611bcb611b75565b5b50919050565b7f416363657373436f6e74726f6c3a2063616e206f6e6c792072656e6f756e63655f8201527f20726f6c657320666f722073656c660000000000000000000000000000000000602082015250565b5f611c2c602f83611792565b9150611c3782611bd2565b604082019050919050565b5f6020820190508181035f830152611c5981611c20565b9050919050565b7f4e487b71000000000000000000000000000000000000000000000000000000005f52601160045260245ffd5b5f611c978261188c565b9150611ca28361188c565b9250828201905080821115611cba57611cb9611c60565b5b92915050565b7f45524332303a2064656372656173656420616c6c6f77616e63652062656c6f775f8201527f207a65726f000000000000000000000000000000000000000000000000000000602082015250565b5f611d1a602583611792565b9150611d2582611cc0565b604082019050919050565b5f6020820190508181035f830152611d4781611d0e565b9050919050565b7f45524332303a20617070726f76652066726f6d20746865207a65726f206164645f8201527f7265737300000000000000000000000000000000000000000000000000000000602082015250565b5f611da8602483611792565b9150611db382611d4e565b604082019050919050565b5f6020820190508181035f830152611dd581611d9c565b9050919050565b7f45524332303a20617070726f766520746f20746865207a65726f2061646472655f8201527f7373000000000000000000000000000000000000000000000000000000000000602082015250565b5f611e36602283611792565b9150611e4182611ddc565b604082019050919050565b5f6020820190508181035f830152611e6381611e2a565b9050919050565b7f45524332303a20696e73756666696369656e7420616c6c6f77616e63650000005f82015250565b5f611e9e601d83611792565b9150611ea982611e6a565b602082019050919050565b5f6020820190508181035f830152611ecb81611e92565b9050919050565b7f45524332303a207472616e736665722066726f6d20746865207a65726f2061645f8201527f6472657373000000000000000000000000000000000000000000000000000000602082015250565b5f611f2c602583611792565b9150611f3782611ed2565b604082019050919050565b5f6020820190508181035f830152611f5981611f20565b9050919050565b7f45524332303a207472616e7366657220746f20746865207a65726f20616464725f8201527f6573730000000000000000000000000000000000000000000000000000000000602082015250565b5f611fba602383611792565b9150611fc582611f60565b604082019050919050565b5f6020820190508181035f830152611fe781611fae565b9050919050565b7f45524332303a207472616e7366657220616d6f756e74206578636565647320625f8201527f616c616e63650000000000000000000000000000000000000000000000000000602082015250565b5f612048602683611792565b915061205382611fee565b604082019050919050565b5f6020820190508181035f8301526120758161203c565b9050919050565b7f45524332303a206275726e2066726f6d20746865207a65726f206164647265735f8201527f7300000000000000000000000000000000000000000000000000000000000000602082015250565b5f6120d6602183611792565b91506120e18261207c565b604082019050919050565b5f6020820190508181035f830152612103816120ca565b9050919050565b7f45524332303a206275726e20616d6f756e7420657863656564732062616c616e5f8201527f6365000000000000000000000000000000000000000000000000000000000000602082015250565b5f612164602283611792565b915061216f8261210a565b604082019050919050565b5f6020820190508181035f83015261219181612158565b9050919050565b5f81905092915050565b7f416363657373436f6e74726f6c3a206163636f756e74200000000000000000005f82015250565b5f6121d6601783612198565b91506121e1826121a2565b601782019050919050565b5f6121f682611788565b6122008185612198565b93506122108185602086016117a2565b80840191505092915050565b7f206973206d697373696e6720726f6c65200000000000000000000000000000005f82015250565b5f612250601183612198565b915061225b8261221c565b601182019050919050565b5f612270826121ca565b915061227c82856121ec565b915061228782612244565b915061229382846121ec565b91508190509392505050565b5f6122a98261188c565b91506122b48361188c565b92508282026122c28161188c565b915082820484148315176122d9576122d8611c60565b5b5092915050565b7f4e487b71000000000000000000000000000000000000000000000000000000005f52604160045260245ffd5b7f4e487b71000000000000000000000000000000000000000000000000000000005f52603260045260245ffd5b5f6123448261188c565b91505f820361235657612355611c60565b5b600182039050919050565b7f537472696e67733a20686578206c656e67746820696e73756666696369656e745f82015250565b5f612395602083611792565b91506123a082612361565b602082019050919050565b5f6020820190508181035f8301526123c281612389565b905091905056fea2646970667358221220396e91924471e410c6ef461c2ab241f141b77450bf82297f10856c854842ec6264736f6c63430008150033",
  "immutableReferences": {},
  "source": "// SPDX-License-Identifier: MIT\npragma solidity ^0.8.18;\n\nimport \"@openzeppelin/contracts/token/ERC20/ERC20.sol\";\nimport \"@openzeppelin/contracts/token/ERC20/extensions/ERC20Capped.sol\";\nimport \"@openzeppelin/contracts/token/ERC20/extensions/ERC20Burnable.sol\";\nimport \"@openzeppelin/contracts/access/AccessControl.sol\";\nimport \"@openzeppelin/contracts/security/Pausable.sol\";\nimport \"@openzeppelin/contracts/security/ReentrancyGuard.sol\";\nimport \"@openzeppelin/contracts/utils/math/SafeMath.sol\";\n\ninterface IUniswapV2Router {\n    function WETH() external pure returns (address);\n    function swapETHForExactTokens(uint256 amountOut, address[] calldata path, address to, uint deadline) external payable returns (uint[] memory amounts);\n}\n\ncontract BlackPaperToken is  ERC20Burnable, AccessControl, Pausable, ReentrancyGuard {\n    //using SafeMath for uint256;\n\n    //uint256 private _maxTotalSupply = 100000000000000 * 10**decimals();\n    uint256 private _initialSupply = 370000000 * 10**decimals();\n    uint256 private _buybackFeePercent = 2;\n\n    bytes32 public constant MINTER_ROLE = keccak256(\"MINTER_ROLE\");\n\n    IUniswapV2Router public uniswapRouter;\n    address private WETH;\n\n    event BuybackFeeChanged(uint256 newFeePercent);\n    //event EtherWithdrawn(address indexed recipient, uint256 amount);\n    //event UniswapRouterUpdated(address newRouterAddress);\n\n    constructor() ERC20(\"BlackPaperToken\", \"BLPT\") {\n        require(_initialSupply > 0, \"Initial supply must be greater than zero\");\n        _mint(msg.sender, _initialSupply);\n        _setupRole(DEFAULT_ADMIN_ROLE, msg.sender);\n        _setupRole(MINTER_ROLE, msg.sender);\n       // uniswapRouter = IUniswapV2Router(_uniswapRouterAddress);\n       // WETH = uniswapRouter.WETH();\n    }\n\n    function _mint(address account, uint256 amount) internal override(ERC20) {\n        super._mint(account, amount);  // Here we're calling the _mint function from ERC20Capped\n    }\n   /*\n    function updateUniswapRouter(address newRouterAddress) external onlyRole(DEFAULT_ADMIN_ROLE) {\n        uniswapRouter = IUniswapV2Router(newRouterAddress);\n        WETH = uniswapRouter.WETH();\n        emit UniswapRouterUpdated(newRouterAddress);\n    }\n\n    function withdrawEther(address payable recipient, uint256 amount) external onlyRole(DEFAULT_ADMIN_ROLE) {\n        require(address(this).balance >= amount, \"Not enough Ether in the contract\");\n        recipient.transfer(amount);\n        emit EtherWithdrawn(recipient, amount);\n    }\n    */\n\n    receive() external payable {}\n}",
  "sourcePath": "/home/deb/Documents/Programming/ERC20Tokens/erc20-token-003/BlackPaperToken/contracts/BlackPaperToken.sol",
  "compiler": {
    "name": "solc",
    "version": "0.8.21+commit.d9974bed.Emscripten.clang"
  },
  "schemaVersion": "3.4.15",
  "updatedAt": "2023-09-04T05:41:12.569Z",
  "devdoc": {
    "events": {
      "Approval(address,address,uint256)": {
        "details": "Emitted when the allowance of a `spender` for an `owner` is set by a call to {approve}. `value` is the new allowance."
      },
      "Paused(address)": {
        "details": "Emitted when the pause is triggered by `account`."
      },
      "RoleAdminChanged(bytes32,bytes32,bytes32)": {
        "details": "Emitted when `newAdminRole` is set as ``role``'s admin role, replacing `previousAdminRole` `DEFAULT_ADMIN_ROLE` is the starting admin for all roles, despite {RoleAdminChanged} not being emitted signaling this. _Available since v3.1._"
      },
      "RoleGranted(bytes32,address,address)": {
        "details": "Emitted when `account` is granted `role`. `sender` is the account that originated the contract call, an admin role bearer except when using {AccessControl-_setupRole}."
      },
      "RoleRevoked(bytes32,address,address)": {
        "details": "Emitted when `account` is revoked `role`. `sender` is the account that originated the contract call:   - if using `revokeRole`, it is the admin role bearer   - if using `renounceRole`, it is the role bearer (i.e. `account`)"
      },
      "Transfer(address,address,uint256)": {
        "details": "Emitted when `value` tokens are moved from one account (`from`) to another (`to`). Note that `value` may be zero."
      },
      "Unpaused(address)": {
        "details": "Emitted when the pause is lifted by `account`."
      }
    },
    "kind": "dev",
    "methods": {
      "allowance(address,address)": {
        "details": "See {IERC20-allowance}."
      },
      "approve(address,uint256)": {
        "details": "See {IERC20-approve}. NOTE: If `amount` is the maximum `uint256`, the allowance is not updated on `transferFrom`. This is semantically equivalent to an infinite approval. Requirements: - `spender` cannot be the zero address."
      },
      "balanceOf(address)": {
        "details": "See {IERC20-balanceOf}."
      },
      "burn(uint256)": {
        "details": "Destroys `amount` tokens from the caller. See {ERC20-_burn}."
      },
      "burnFrom(address,uint256)": {
        "details": "Destroys `amount` tokens from `account`, deducting from the caller's allowance. See {ERC20-_burn} and {ERC20-allowance}. Requirements: - the caller must have allowance for ``accounts``'s tokens of at least `amount`."
      },
      "decimals()": {
        "details": "Returns the number of decimals used to get its user representation. For example, if `decimals` equals `2`, a balance of `505` tokens should be displayed to a user as `5.05` (`505 / 10 ** 2`). Tokens usually opt for a value of 18, imitating the relationship between Ether and Wei. This is the default value returned by this function, unless it's overridden. NOTE: This information is only used for _display_ purposes: it in no way affects any of the arithmetic of the contract, including {IERC20-balanceOf} and {IERC20-transfer}."
      },
      "decreaseAllowance(address,uint256)": {
        "details": "Atomically decreases the allowance granted to `spender` by the caller. This is an alternative to {approve} that can be used as a mitigation for problems described in {IERC20-approve}. Emits an {Approval} event indicating the updated allowance. Requirements: - `spender` cannot be the zero address. - `spender` must have allowance for the caller of at least `subtractedValue`."
      },
      "getRoleAdmin(bytes32)": {
        "details": "Returns the admin role that controls `role`. See {grantRole} and {revokeRole}. To change a role's admin, use {_setRoleAdmin}."
      },
      "grantRole(bytes32,address)": {
        "details": "Grants `role` to `account`. If `account` had not been already granted `role`, emits a {RoleGranted} event. Requirements: - the caller must have ``role``'s admin role. May emit a {RoleGranted} event."
      },
      "hasRole(bytes32,address)": {
        "details": "Returns `true` if `account` has been granted `role`."
      },
      "increaseAllowance(address,uint256)": {
        "details": "Atomically increases the allowance granted to `spender` by the caller. This is an alternative to {approve} that can be used as a mitigation for problems described in {IERC20-approve}. Emits an {Approval} event indicating the updated allowance. Requirements: - `spender` cannot be the zero address."
      },
      "name()": {
        "details": "Returns the name of the token."
      },
      "paused()": {
        "details": "Returns true if the contract is paused, and false otherwise."
      },
      "renounceRole(bytes32,address)": {
        "details": "Revokes `role` from the calling account. Roles are often managed via {grantRole} and {revokeRole}: this function's purpose is to provide a mechanism for accounts to lose their privileges if they are compromised (such as when a trusted device is misplaced). If the calling account had been revoked `role`, emits a {RoleRevoked} event. Requirements: - the caller must be `account`. May emit a {RoleRevoked} event."
      },
      "revokeRole(bytes32,address)": {
        "details": "Revokes `role` from `account`. If `account` had been granted `role`, emits a {RoleRevoked} event. Requirements: - the caller must have ``role``'s admin role. May emit a {RoleRevoked} event."
      },
      "supportsInterface(bytes4)": {
        "details": "See {IERC165-supportsInterface}."
      },
      "symbol()": {
        "details": "Returns the symbol of the token, usually a shorter version of the name."
      },
      "totalSupply()": {
        "details": "See {IERC20-totalSupply}."
      },
      "transfer(address,uint256)": {
        "details": "See {IERC20-transfer}. Requirements: - `to` cannot be the zero address. - the caller must have a balance of at least `amount`."
      },
      "transferFrom(address,address,uint256)": {
        "details": "See {IERC20-transferFrom}. Emits an {Approval} event indicating the updated allowance. This is not required by the EIP. See the note at the beginning of {ERC20}. NOTE: Does not update the allowance if the current allowance is the maximum `uint256`. Requirements: - `from` and `to` cannot be the zero address. - `from` must have a balance of at least `amount`. - the caller must have allowance for ``from``'s tokens of at least `amount`."
      }
    },
    "version": 1
  },
  "userdoc": {
    "kind": "user",
    "methods": {},
    "version": 1
  }
}