{
  "contractName": "BlackPaperToken",
  "abi": [
    {
      "inputs": [
        {
          "internalType": "address",
          "name": "_uniswapRouterAddress",
          "type": "address"
        }
      ],
      "stateMutability": "nonpayable",
      "type": "constructor"
    },
    {
      "anonymous": false,
      "inputs": [
        {
          "indexed": true,
          "internalType": "address",
          "name": "owner",
          "type": "address"
        },
        {
          "indexed": true,
          "internalType": "address",
          "name": "spender",
          "type": "address"
        },
        {
          "indexed": false,
          "internalType": "uint256",
          "name": "value",
          "type": "uint256"
        }
      ],
      "name": "Approval",
      "type": "event"
    },
    {
      "anonymous": false,
      "inputs": [
        {
          "indexed": false,
          "internalType": "uint256",
          "name": "newFeePercent",
          "type": "uint256"
        }
      ],
      "name": "BuybackFeeChanged",
      "type": "event"
    },
    {
      "anonymous": false,
      "inputs": [
        {
          "indexed": true,
          "internalType": "address",
          "name": "recipient",
          "type": "address"
        },
        {
          "indexed": false,
          "internalType": "uint256",
          "name": "amount",
          "type": "uint256"
        }
      ],
      "name": "EtherWithdrawn",
      "type": "event"
    },
    {
      "anonymous": false,
      "inputs": [
        {
          "indexed": false,
          "internalType": "address",
          "name": "account",
          "type": "address"
        }
      ],
      "name": "Paused",
      "type": "event"
    },
    {
      "anonymous": false,
      "inputs": [
        {
          "indexed": true,
          "internalType": "bytes32",
          "name": "role",
          "type": "bytes32"
        },
        {
          "indexed": true,
          "internalType": "bytes32",
          "name": "previousAdminRole",
          "type": "bytes32"
        },
        {
          "indexed": true,
          "internalType": "bytes32",
          "name": "newAdminRole",
          "type": "bytes32"
        }
      ],
      "name": "RoleAdminChanged",
      "type": "event"
    },
    {
      "anonymous": false,
      "inputs": [
        {
          "indexed": true,
          "internalType": "bytes32",
          "name": "role",
          "type": "bytes32"
        },
        {
          "indexed": true,
          "internalType": "address",
          "name": "account",
          "type": "address"
        },
        {
          "indexed": true,
          "internalType": "address",
          "name": "sender",
          "type": "address"
        }
      ],
      "name": "RoleGranted",
      "type": "event"
    },
    {
      "anonymous": false,
      "inputs": [
        {
          "indexed": true,
          "internalType": "bytes32",
          "name": "role",
          "type": "bytes32"
        },
        {
          "indexed": true,
          "internalType": "address",
          "name": "account",
          "type": "address"
        },
        {
          "indexed": true,
          "internalType": "address",
          "name": "sender",
          "type": "address"
        }
      ],
      "name": "RoleRevoked",
      "type": "event"
    },
    {
      "anonymous": false,
      "inputs": [
        {
          "indexed": true,
          "internalType": "address",
          "name": "from",
          "type": "address"
        },
        {
          "indexed": true,
          "internalType": "address",
          "name": "to",
          "type": "address"
        },
        {
          "indexed": false,
          "internalType": "uint256",
          "name": "value",
          "type": "uint256"
        }
      ],
      "name": "Transfer",
      "type": "event"
    },
    {
      "anonymous": false,
      "inputs": [
        {
          "indexed": false,
          "internalType": "address",
          "name": "newRouterAddress",
          "type": "address"
        }
      ],
      "name": "UniswapRouterUpdated",
      "type": "event"
    },
    {
      "anonymous": false,
      "inputs": [
        {
          "indexed": false,
          "internalType": "address",
          "name": "account",
          "type": "address"
        }
      ],
      "name": "Unpaused",
      "type": "event"
    },
    {
      "inputs": [],
      "name": "DEFAULT_ADMIN_ROLE",
      "outputs": [
        {
          "internalType": "bytes32",
          "name": "",
          "type": "bytes32"
        }
      ],
      "stateMutability": "view",
      "type": "function"
    },
    {
      "inputs": [],
      "name": "MINTER_ROLE",
      "outputs": [
        {
          "internalType": "bytes32",
          "name": "",
          "type": "bytes32"
        }
      ],
      "stateMutability": "view",
      "type": "function"
    },
    {
      "inputs": [
        {
          "internalType": "address",
          "name": "owner",
          "type": "address"
        },
        {
          "internalType": "address",
          "name": "spender",
          "type": "address"
        }
      ],
      "name": "allowance",
      "outputs": [
        {
          "internalType": "uint256",
          "name": "",
          "type": "uint256"
        }
      ],
      "stateMutability": "view",
      "type": "function"
    },
    {
      "inputs": [
        {
          "internalType": "address",
          "name": "spender",
          "type": "address"
        },
        {
          "internalType": "uint256",
          "name": "amount",
          "type": "uint256"
        }
      ],
      "name": "approve",
      "outputs": [
        {
          "internalType": "bool",
          "name": "",
          "type": "bool"
        }
      ],
      "stateMutability": "nonpayable",
      "type": "function"
    },
    {
      "inputs": [
        {
          "internalType": "address",
          "name": "account",
          "type": "address"
        }
      ],
      "name": "balanceOf",
      "outputs": [
        {
          "internalType": "uint256",
          "name": "",
          "type": "uint256"
        }
      ],
      "stateMutability": "view",
      "type": "function"
    },
    {
      "inputs": [
        {
          "internalType": "uint256",
          "name": "amount",
          "type": "uint256"
        }
      ],
      "name": "burn",
      "outputs": [],
      "stateMutability": "nonpayable",
      "type": "function"
    },
    {
      "inputs": [
        {
          "internalType": "address",
          "name": "account",
          "type": "address"
        },
        {
          "internalType": "uint256",
          "name": "amount",
          "type": "uint256"
        }
      ],
      "name": "burnFrom",
      "outputs": [],
      "stateMutability": "nonpayable",
      "type": "function"
    },
    {
      "inputs": [],
      "name": "cap",
      "outputs": [
        {
          "internalType": "uint256",
          "name": "",
          "type": "uint256"
        }
      ],
      "stateMutability": "view",
      "type": "function"
    },
    {
      "inputs": [],
      "name": "decimals",
      "outputs": [
        {
          "internalType": "uint8",
          "name": "",
          "type": "uint8"
        }
      ],
      "stateMutability": "view",
      "type": "function"
    },
    {
      "inputs": [
        {
          "internalType": "address",
          "name": "spender",
          "type": "address"
        },
        {
          "internalType": "uint256",
          "name": "subtractedValue",
          "type": "uint256"
        }
      ],
      "name": "decreaseAllowance",
      "outputs": [
        {
          "internalType": "bool",
          "name": "",
          "type": "bool"
        }
      ],
      "stateMutability": "nonpayable",
      "type": "function"
    },
    {
      "inputs": [
        {
          "internalType": "bytes32",
          "name": "role",
          "type": "bytes32"
        }
      ],
      "name": "getRoleAdmin",
      "outputs": [
        {
          "internalType": "bytes32",
          "name": "",
          "type": "bytes32"
        }
      ],
      "stateMutability": "view",
      "type": "function"
    },
    {
      "inputs": [
        {
          "internalType": "bytes32",
          "name": "role",
          "type": "bytes32"
        },
        {
          "internalType": "address",
          "name": "account",
          "type": "address"
        }
      ],
      "name": "grantRole",
      "outputs": [],
      "stateMutability": "nonpayable",
      "type": "function"
    },
    {
      "inputs": [
        {
          "internalType": "bytes32",
          "name": "role",
          "type": "bytes32"
        },
        {
          "internalType": "address",
          "name": "account",
          "type": "address"
        }
      ],
      "name": "hasRole",
      "outputs": [
        {
          "internalType": "bool",
          "name": "",
          "type": "bool"
        }
      ],
      "stateMutability": "view",
      "type": "function"
    },
    {
      "inputs": [
        {
          "internalType": "address",
          "name": "spender",
          "type": "address"
        },
        {
          "internalType": "uint256",
          "name": "addedValue",
          "type": "uint256"
        }
      ],
      "name": "increaseAllowance",
      "outputs": [
        {
          "internalType": "bool",
          "name": "",
          "type": "bool"
        }
      ],
      "stateMutability": "nonpayable",
      "type": "function"
    },
    {
      "inputs": [],
      "name": "name",
      "outputs": [
        {
          "internalType": "string",
          "name": "",
          "type": "string"
        }
      ],
      "stateMutability": "view",
      "type": "function"
    },
    {
      "inputs": [],
      "name": "paused",
      "outputs": [
        {
          "internalType": "bool",
          "name": "",
          "type": "bool"
        }
      ],
      "stateMutability": "view",
      "type": "function"
    },
    {
      "inputs": [
        {
          "internalType": "bytes32",
          "name": "role",
          "type": "bytes32"
        },
        {
          "internalType": "address",
          "name": "account",
          "type": "address"
        }
      ],
      "name": "renounceRole",
      "outputs": [],
      "stateMutability": "nonpayable",
      "type": "function"
    },
    {
      "inputs": [
        {
          "internalType": "bytes32",
          "name": "role",
          "type": "bytes32"
        },
        {
          "internalType": "address",
          "name": "account",
          "type": "address"
        }
      ],
      "name": "revokeRole",
      "outputs": [],
      "stateMutability": "nonpayable",
      "type": "function"
    },
    {
      "inputs": [
        {
          "internalType": "bytes4",
          "name": "interfaceId",
          "type": "bytes4"
        }
      ],
      "name": "supportsInterface",
      "outputs": [
        {
          "internalType": "bool",
          "name": "",
          "type": "bool"
        }
      ],
      "stateMutability": "view",
      "type": "function"
    },
    {
      "inputs": [],
      "name": "symbol",
      "outputs": [
        {
          "internalType": "string",
          "name": "",
          "type": "string"
        }
      ],
      "stateMutability": "view",
      "type": "function"
    },
    {
      "inputs": [],
      "name": "totalSupply",
      "outputs": [
        {
          "internalType": "uint256",
          "name": "",
          "type": "uint256"
        }
      ],
      "stateMutability": "view",
      "type": "function"
    },
    {
      "inputs": [
        {
          "internalType": "address",
          "name": "to",
          "type": "address"
        },
        {
          "internalType": "uint256",
          "name": "amount",
          "type": "uint256"
        }
      ],
      "name": "transfer",
      "outputs": [
        {
          "internalType": "bool",
          "name": "",
          "type": "bool"
        }
      ],
      "stateMutability": "nonpayable",
      "type": "function"
    },
    {
      "inputs": [
        {
          "internalType": "address",
          "name": "from",
          "type": "address"
        },
        {
          "internalType": "address",
          "name": "to",
          "type": "address"
        },
        {
          "internalType": "uint256",
          "name": "amount",
          "type": "uint256"
        }
      ],
      "name": "transferFrom",
      "outputs": [
        {
          "internalType": "bool",
          "name": "",
          "type": "bool"
        }
      ],
      "stateMutability": "nonpayable",
      "type": "function"
    },
    {
      "inputs": [],
      "name": "uniswapRouter",
      "outputs": [
        {
          "internalType": "contract IUniswapV2Router",
          "name": "",
          "type": "address"
        }
      ],
      "stateMutability": "view",
      "type": "function"
    },
    {
      "stateMutability": "payable",
      "type": "receive"
    },
    {
      "inputs": [
        {
          "internalType": "uint256",
          "name": "newFeePercent",
          "type": "uint256"
        }
      ],
      "name": "setBuybackFeePercent",
      "outputs": [],
      "stateMutability": "nonpayable",
      "type": "function"
    },
    {
      "inputs": [],
      "name": "getBuybackFeePercent",
      "outputs": [
        {
          "internalType": "uint256",
          "name": "",
          "type": "uint256"
        }
      ],
      "stateMutability": "view",
      "type": "function"
    },
    {
      "inputs": [],
      "name": "pause",
      "outputs": [],
      "stateMutability": "nonpayable",
      "type": "function"
    },
    {
      "inputs": [],
      "name": "unpause",
      "outputs": [],
      "stateMutability": "nonpayable",
      "type": "function"
    },
    {
      "inputs": [
        {
          "internalType": "uint256",
          "name": "amount",
          "type": "uint256"
        }
      ],
      "name": "initiateTokenBuyback",
      "outputs": [],
      "stateMutability": "payable",
      "type": "function"
    },
    {
      "inputs": [
        {
          "internalType": "address",
          "name": "newRouterAddress",
          "type": "address"
        }
      ],
      "name": "updateUniswapRouter",
      "outputs": [],
      "stateMutability": "nonpayable",
      "type": "function"
    },
    {
      "inputs": [
        {
          "internalType": "address payable",
          "name": "recipient",
          "type": "address"
        },
        {
          "internalType": "uint256",
          "name": "amount",
          "type": "uint256"
        }
      ],
      "name": "withdrawEther",
      "outputs": [],
      "stateMutability": "nonpayable",
      "type": "function"
    }
  ],
  "bytecode": "0x60a0604052620000146200035d60201b60201c565b600a62000022919062000882565b655af3107a4000620000359190620008d2565b600855620000486200035d60201b60201c565b600a62000056919062000882565b63160dc080620000679190620008d2565b6009556002600a553480156200007b575f80fd5b506040516200438f3803806200438f8339818101604052810190620000a1919062000981565b6008546040518060400160405280600f81526020017f426c61636b5061706572546f6b656e00000000000000000000000000000000008152506040518060400160405280600481526020017f4852445a00000000000000000000000000000000000000000000000000000000815250816003908162000121919062000c0c565b50806004908162000133919062000c0c565b5050505f81116200017b576040517f08c379a0000000000000000000000000000000000000000000000000000000008152600401620001729062000d4e565b60405180910390fd5b8060808181525050505f60065f6101000a81548160ff02191690831515021790555060016007819055505f60095411620001ec576040517f08c379a0000000000000000000000000000000000000000000000000000000008152600401620001e39062000de2565b60405180910390fd5b62000200336009546200036560201b60201c565b620002145f801b336200037b60201b60201c565b620002467f9f2df0fed2c77648de5860a4cc508cd0818c85b8b8a1ab4ceeef8d981c8956a6336200037b60201b60201c565b80600b5f6101000a81548173ffffffffffffffffffffffffffffffffffffffff021916908373ffffffffffffffffffffffffffffffffffffffff160217905550600b5f9054906101000a900473ffffffffffffffffffffffffffffffffffffffff1673ffffffffffffffffffffffffffffffffffffffff1663ad5c46486040518163ffffffff1660e01b8152600401602060405180830381865afa158015620002f1573d5f803e3d5ffd5b505050506040513d601f19601f8201168201806040525081019062000317919062000981565b600c5f6101000a81548173ffffffffffffffffffffffffffffffffffffffff021916908373ffffffffffffffffffffffffffffffffffffffff1602179055505062000f44565b5f6012905090565b6200037782826200039160201b60201c565b5050565b6200038d82826200041860201b60201c565b5050565b620003a16200050460201b60201c565b81620003b26200050d60201b60201c565b620003be919062000e02565b111562000402576040517f08c379a0000000000000000000000000000000000000000000000000000000008152600401620003f99062000e8a565b60405180910390fd5b6200041482826200051660201b60201c565b5050565b6200042a82826200067b60201b60201c565b6200050057600160055f8481526020019081526020015f205f015f8373ffffffffffffffffffffffffffffffffffffffff1673ffffffffffffffffffffffffffffffffffffffff1681526020019081526020015f205f6101000a81548160ff021916908315150217905550620004a5620006df60201b60201c565b73ffffffffffffffffffffffffffffffffffffffff168173ffffffffffffffffffffffffffffffffffffffff16837f2f8788117e7eff1d82e926ec794901d17c78024a50270940304540a733656f0d60405160405180910390a45b5050565b5f608051905090565b5f600254905090565b5f73ffffffffffffffffffffffffffffffffffffffff168273ffffffffffffffffffffffffffffffffffffffff160362000587576040517f08c379a00000000000000000000000000000000000000000000000000000000081526004016200057e9062000ef8565b60405180910390fd5b6200059a5f8383620006e660201b60201c565b8060025f828254620005ad919062000e02565b92505081905550805f808473ffffffffffffffffffffffffffffffffffffffff1673ffffffffffffffffffffffffffffffffffffffff1681526020019081526020015f205f82825401925050819055508173ffffffffffffffffffffffffffffffffffffffff165f73ffffffffffffffffffffffffffffffffffffffff167fddf252ad1be2c89b69c2b068fc378daa952ba7f163c4a11628f55a4df523b3ef836040516200065c919062000f29565b60405180910390a3620006775f8383620006eb60201b60201c565b5050565b5f60055f8481526020019081526020015f205f015f8373ffffffffffffffffffffffffffffffffffffffff1673ffffffffffffffffffffffffffffffffffffffff1681526020019081526020015f205f9054906101000a900460ff16905092915050565b5f33905090565b505050565b505050565b7f4e487b71000000000000000000000000000000000000000000000000000000005f52601160045260245ffd5b5f8160011c9050919050565b5f808291508390505b60018511156200077a57808604811115620007525762000751620006f0565b5b6001851615620007625780820291505b808102905062000772856200071d565b945062000732565b94509492505050565b5f8262000794576001905062000866565b81620007a3575f905062000866565b8160018114620007bc5760028114620007c757620007fd565b600191505062000866565b60ff841115620007dc57620007db620006f0565b5b8360020a915084821115620007f657620007f5620006f0565b5b5062000866565b5060208310610133831016604e8410600b8410161715620008375782820a905083811115620008315762000830620006f0565b5b62000866565b62000846848484600162000729565b9250905081840481111562000860576200085f620006f0565b5b81810290505b9392505050565b5f819050919050565b5f60ff82169050919050565b5f6200088e826200086d565b91506200089b8362000876565b9250620008ca7fffffffffffffffffffffffffffffffffffffffffffffffffffffffffffffffff848462000783565b905092915050565b5f620008de826200086d565b9150620008eb836200086d565b9250828202620008fb816200086d565b91508282048414831517620009155762000914620006f0565b5b5092915050565b5f80fd5b5f73ffffffffffffffffffffffffffffffffffffffff82169050919050565b5f6200094b8262000920565b9050919050565b6200095d816200093f565b811462000968575f80fd5b50565b5f815190506200097b8162000952565b92915050565b5f602082840312156200099957620009986200091c565b5b5f620009a8848285016200096b565b91505092915050565b5f81519050919050565b7f4e487b71000000000000000000000000000000000000000000000000000000005f52604160045260245ffd5b7f4e487b71000000000000000000000000000000000000000000000000000000005f52602260045260245ffd5b5f600282049050600182168062000a2d57607f821691505b60208210810362000a435762000a42620009e8565b5b50919050565b5f819050815f5260205f209050919050565b5f6020601f8301049050919050565b5f82821b905092915050565b5f6008830262000aa77fffffffffffffffffffffffffffffffffffffffffffffffffffffffffffffffff8262000a6a565b62000ab3868362000a6a565b95508019841693508086168417925050509392505050565b5f819050919050565b5f62000af462000aee62000ae8846200086d565b62000acb565b6200086d565b9050919050565b5f819050919050565b62000b0f8362000ad4565b62000b2762000b1e8262000afb565b84845462000a76565b825550505050565b5f90565b62000b3d62000b2f565b62000b4a81848462000b04565b505050565b5b8181101562000b715762000b655f8262000b33565b60018101905062000b50565b5050565b601f82111562000bc05762000b8a8162000a49565b62000b958462000a5b565b8101602085101562000ba5578190505b62000bbd62000bb48562000a5b565b83018262000b4f565b50505b505050565b5f82821c905092915050565b5f62000be25f198460080262000bc5565b1980831691505092915050565b5f62000bfc838362000bd1565b9150826002028217905092915050565b62000c1782620009b1565b67ffffffffffffffff81111562000c335762000c32620009bb565b5b62000c3f825462000a15565b62000c4c82828562000b75565b5f60209050601f83116001811462000c82575f841562000c6d578287015190505b62000c79858262000bef565b86555062000ce8565b601f19841662000c928662000a49565b5f5b8281101562000cbb5784890151825560018201915060208501945060208101905062000c94565b8683101562000cdb578489015162000cd7601f89168262000bd1565b8355505b6001600288020188555050505b505050505050565b5f82825260208201905092915050565b7f45524332304361707065643a20636170206973203000000000000000000000005f82015250565b5f62000d3660158362000cf0565b915062000d438262000d00565b602082019050919050565b5f6020820190508181035f83015262000d678162000d28565b9050919050565b7f496e697469616c20737570706c79206d757374206265206772656174657220745f8201527f68616e207a65726f000000000000000000000000000000000000000000000000602082015250565b5f62000dca60288362000cf0565b915062000dd78262000d6e565b604082019050919050565b5f6020820190508181035f83015262000dfb8162000dbc565b9050919050565b5f62000e0e826200086d565b915062000e1b836200086d565b925082820190508082111562000e365762000e35620006f0565b5b92915050565b7f45524332304361707065643a20636170206578636565646564000000000000005f82015250565b5f62000e7260198362000cf0565b915062000e7f8262000e3c565b602082019050919050565b5f6020820190508181035f83015262000ea38162000e64565b9050919050565b7f45524332303a206d696e7420746f20746865207a65726f2061646472657373005f82015250565b5f62000ee0601f8362000cf0565b915062000eed8262000eaa565b602082019050919050565b5f6020820190508181035f83015262000f118162000ed2565b9050919050565b62000f23816200086d565b82525050565b5f60208201905062000f3e5f83018462000f18565b92915050565b60805161343262000f5d5f395f61091e01526134325ff3fe6080604052600436106101db575f3560e01c80635c975abb11610101578063a217fddf11610094578063d547741f11610063578063d547741f146106c2578063d7816e13146106ea578063dd62ed3e14610706578063fda55a3d14610742576101e2565b8063a217fddf146105f6578063a457c2d714610620578063a9059cbb1461065c578063d539139314610698576101e2565b80638456cb59116100d05780638456cb5914610552578063908bb2ae1461056857806391d148541461059057806395d89b41146105cc576101e2565b80635c975abb1461049a57806370a08231146104c4578063735de9f71461050057806379cc67901461052a576101e2565b80632f2ff15d11610179578063395093511161014857806339509351146103f85780633f4ba83a1461043457806342966c681461044a578063522f681514610472576101e2565b80632f2ff15d14610354578063313ce5671461037c578063355274ea146103a657806336568abe146103d0576101e2565b8063095ea7b3116101b5578063095ea7b31461027657806318160ddd146102b257806323b872dd146102dc578063248a9ca314610318576101e2565b806301ffc9a7146101e657806306fdde031461022257806307a8741e1461024c576101e2565b366101e257005b5f80fd5b3480156101f1575f80fd5b5061020c60048036038101906102079190612080565b61076a565b60405161021991906120c5565b60405180910390f35b34801561022d575f80fd5b506102366107e3565b6040516102439190612168565b60405180910390f35b348015610257575f80fd5b50610260610873565b60405161026d91906121a0565b60405180910390f35b348015610281575f80fd5b5061029c6004803603810190610297919061223d565b61087c565b6040516102a991906120c5565b60405180910390f35b3480156102bd575f80fd5b506102c661089e565b6040516102d391906121a0565b60405180910390f35b3480156102e7575f80fd5b5061030260048036038101906102fd919061227b565b6108a7565b60405161030f91906120c5565b60405180910390f35b348015610323575f80fd5b5061033e600480360381019061033991906122fe565b6108d5565b60405161034b9190612338565b60405180910390f35b34801561035f575f80fd5b5061037a60048036038101906103759190612351565b6108f2565b005b348015610387575f80fd5b50610390610913565b60405161039d91906123aa565b60405180910390f35b3480156103b1575f80fd5b506103ba61091b565b6040516103c791906121a0565b60405180910390f35b3480156103db575f80fd5b506103f660048036038101906103f19190612351565b610942565b005b348015610403575f80fd5b5061041e6004803603810190610419919061223d565b6109c5565b60405161042b91906120c5565b60405180910390f35b34801561043f575f80fd5b506104486109fb565b005b348015610455575f80fd5b50610470600480360381019061046b91906123c3565b610a12565b005b34801561047d575f80fd5b5061049860048036038101906104939190612429565b610a26565b005b3480156104a5575f80fd5b506104ae610b0c565b6040516104bb91906120c5565b60405180910390f35b3480156104cf575f80fd5b506104ea60048036038101906104e59190612467565b610b21565b6040516104f791906121a0565b60405180910390f35b34801561050b575f80fd5b50610514610b66565b60405161052191906124ed565b60405180910390f35b348015610535575f80fd5b50610550600480360381019061054b919061223d565b610b8b565b005b34801561055d575f80fd5b50610566610bab565b005b348015610573575f80fd5b5061058e60048036038101906105899190612467565b610bc2565b005b34801561059b575f80fd5b506105b660048036038101906105b19190612351565b610d16565b6040516105c391906120c5565b60405180910390f35b3480156105d7575f80fd5b506105e0610d7a565b6040516105ed9190612168565b60405180910390f35b348015610601575f80fd5b5061060a610e0a565b6040516106179190612338565b60405180910390f35b34801561062b575f80fd5b506106466004803603810190610641919061223d565b610e10565b60405161065391906120c5565b60405180910390f35b348015610667575f80fd5b50610682600480360381019061067d919061223d565b610e85565b60405161068f91906120c5565b60405180910390f35b3480156106a3575f80fd5b506106ac610ea7565b6040516106b99190612338565b60405180910390f35b3480156106cd575f80fd5b506106e860048036038101906106e39190612351565b610ecb565b005b61070460048036038101906106ff91906123c3565b610eec565b005b348015610711575f80fd5b5061072c60048036038101906107279190612506565b6111b0565b60405161073991906121a0565b60405180910390f35b34801561074d575f80fd5b50610768600480360381019061076391906123c3565b611232565b005b5f7f7965db0b000000000000000000000000000000000000000000000000000000007bffffffffffffffffffffffffffffffffffffffffffffffffffffffff1916827bffffffffffffffffffffffffffffffffffffffffffffffffffffffff191614806107dc57506107db826112c4565b5b9050919050565b6060600380546107f290612571565b80601f016020809104026020016040519081016040528092919081815260200182805461081e90612571565b80156108695780601f1061084057610100808354040283529160200191610869565b820191905f5260205f20905b81548152906001019060200180831161084c57829003601f168201915b5050505050905090565b5f600a54905090565b5f8061088661132d565b9050610893818585611334565b600191505092915050565b5f600254905090565b5f806108b161132d565b90506108be8582856114f7565b6108c9858585611582565b60019150509392505050565b5f60055f8381526020019081526020015f20600101549050919050565b6108fb826108d5565b610904816117ee565b61090e8383611802565b505050565b5f6012905090565b5f7f0000000000000000000000000000000000000000000000000000000000000000905090565b61094a61132d565b73ffffffffffffffffffffffffffffffffffffffff168173ffffffffffffffffffffffffffffffffffffffff16146109b7576040517f08c379a00000000000000000000000000000000000000000000000000000000081526004016109ae90612611565b60405180910390fd5b6109c182826118dd565b5050565b5f806109cf61132d565b90506109f08185856109e185896111b0565b6109eb919061265c565b611334565b600191505092915050565b5f801b610a07816117ee565b610a0f6119b8565b50565b610a23610a1d61132d565b82611a19565b50565b5f801b610a32816117ee565b81471015610a75576040517f08c379a0000000000000000000000000000000000000000000000000000000008152600401610a6c906126d9565b60405180910390fd5b8273ffffffffffffffffffffffffffffffffffffffff166108fc8390811502906040515f60405180830381858888f19350505050158015610ab8573d5f803e3d5ffd5b508273ffffffffffffffffffffffffffffffffffffffff167f06097061aeda806b5e9cb4133d9899f332ff0913956567fc0f7ea15e3d19947c83604051610aff91906121a0565b60405180910390a2505050565b5f60065f9054906101000a900460ff16905090565b5f805f8373ffffffffffffffffffffffffffffffffffffffff1673ffffffffffffffffffffffffffffffffffffffff1681526020019081526020015f20549050919050565b600b5f9054906101000a900473ffffffffffffffffffffffffffffffffffffffff1681565b610b9d82610b9761132d565b836114f7565b610ba78282611a19565b5050565b5f801b610bb7816117ee565b610bbf611bdc565b50565b5f801b610bce816117ee565b81600b5f6101000a81548173ffffffffffffffffffffffffffffffffffffffff021916908373ffffffffffffffffffffffffffffffffffffffff160217905550600b5f9054906101000a900473ffffffffffffffffffffffffffffffffffffffff1673ffffffffffffffffffffffffffffffffffffffff1663ad5c46486040518163ffffffff1660e01b8152600401602060405180830381865afa158015610c78573d5f803e3d5ffd5b505050506040513d601f19601f82011682018060405250810190610c9c919061270b565b600c5f6101000a81548173ffffffffffffffffffffffffffffffffffffffff021916908373ffffffffffffffffffffffffffffffffffffffff1602179055507f455a5e52b7c01aa52d717db42e17b6610b0c2c96560c85b7e5adcdd254bfc17c82604051610d0a9190612745565b60405180910390a15050565b5f60055f8481526020019081526020015f205f015f8373ffffffffffffffffffffffffffffffffffffffff1673ffffffffffffffffffffffffffffffffffffffff1681526020019081526020015f205f9054906101000a900460ff16905092915050565b606060048054610d8990612571565b80601f0160208091040260200160405190810160405280929190818152602001828054610db590612571565b8015610e005780601f10610dd757610100808354040283529160200191610e00565b820191905f5260205f20905b815481529060010190602001808311610de357829003601f168201915b5050505050905090565b5f801b81565b5f80610e1a61132d565b90505f610e2782866111b0565b905083811015610e6c576040517f08c379a0000000000000000000000000000000000000000000000000000000008152600401610e63906127ce565b60405180910390fd5b610e798286868403611334565b60019250505092915050565b5f80610e8f61132d565b9050610e9c818585611582565b600191505092915050565b7f9f2df0fed2c77648de5860a4cc508cd0818c85b8b8a1ab4ceeef8d981c8956a681565b610ed4826108d5565b610edd816117ee565b610ee783836118dd565b505050565b610ef4611c3e565b5f801b610f00816117ee565b5f8211610f42576040517f08c379a0000000000000000000000000000000000000000000000000000000008152600401610f3990612836565b60405180910390fd5b5f600267ffffffffffffffff811115610f5e57610f5d612854565b5b604051908082528060200260200182016040528015610f8c5781602001602082028036833780820191505090505b509050600c5f9054906101000a900473ffffffffffffffffffffffffffffffffffffffff16815f81518110610fc457610fc3612881565b5b602002602001019073ffffffffffffffffffffffffffffffffffffffff16908173ffffffffffffffffffffffffffffffffffffffff1681525050308160018151811061101357611012612881565b5b602002602001019073ffffffffffffffffffffffffffffffffffffffff16908173ffffffffffffffffffffffffffffffffffffffff16815250505f600b5f9054906101000a900473ffffffffffffffffffffffffffffffffffffffff1673ffffffffffffffffffffffffffffffffffffffff1663fb3bdb41348685306103844261109d919061265c565b6040518663ffffffff1660e01b81526004016110bc9493929190612965565b5f6040518083038185885af11580156110d7573d5f803e3d5ffd5b50505050506040513d5f823e3d601f19601f820116820180604052508101906111009190612ad6565b9050838160018151811061111757611116612881565b5b60200260200101511015611160576040517f08c379a000000000000000000000000000000000000000000000000000000000815260040161115790612b8d565b60405180910390fd5b5f6064600a54866111719190612bab565b61117b9190612c19565b90505f818661118a9190612c49565b90506111963083611a19565b6111a03082611a19565b50505050506111ad611c8d565b50565b5f60015f8473ffffffffffffffffffffffffffffffffffffffff1673ffffffffffffffffffffffffffffffffffffffff1681526020019081526020015f205f8373ffffffffffffffffffffffffffffffffffffffff1673ffffffffffffffffffffffffffffffffffffffff1681526020019081526020015f2054905092915050565b5f801b61123e816117ee565b600a821115611282576040517f08c379a000000000000000000000000000000000000000000000000000000000815260040161127990612cc6565b60405180910390fd5b81600a819055507f8846b4fbfca29d0c27a9afbcbf4124f17e483f7056d969b4d5e215e65bd07c04826040516112b891906121a0565b60405180910390a15050565b5f7f01ffc9a7000000000000000000000000000000000000000000000000000000007bffffffffffffffffffffffffffffffffffffffffffffffffffffffff1916827bffffffffffffffffffffffffffffffffffffffffffffffffffffffff1916149050919050565b5f33905090565b5f73ffffffffffffffffffffffffffffffffffffffff168373ffffffffffffffffffffffffffffffffffffffff16036113a2576040517f08c379a000000000000000000000000000000000000000000000000000000000815260040161139990612d54565b60405180910390fd5b5f73ffffffffffffffffffffffffffffffffffffffff168273ffffffffffffffffffffffffffffffffffffffff1603611410576040517f08c379a000000000000000000000000000000000000000000000000000000000815260040161140790612de2565b60405180910390fd5b8060015f8573ffffffffffffffffffffffffffffffffffffffff1673ffffffffffffffffffffffffffffffffffffffff1681526020019081526020015f205f8473ffffffffffffffffffffffffffffffffffffffff1673ffffffffffffffffffffffffffffffffffffffff1681526020019081526020015f20819055508173ffffffffffffffffffffffffffffffffffffffff168373ffffffffffffffffffffffffffffffffffffffff167f8c5be1e5ebec7d5bd14f71427d1e84f3dd0314c0f7b2291e5b200ac8c7c3b925836040516114ea91906121a0565b60405180910390a3505050565b5f61150284846111b0565b90507fffffffffffffffffffffffffffffffffffffffffffffffffffffffffffffffff811461157c578181101561156e576040517f08c379a000000000000000000000000000000000000000000000000000000000815260040161156590612e4a565b60405180910390fd5b61157b8484848403611334565b5b50505050565b5f73ffffffffffffffffffffffffffffffffffffffff168373ffffffffffffffffffffffffffffffffffffffff16036115f0576040517f08c379a00000000000000000000000000000000000000000000000000000000081526004016115e790612ed8565b60405180910390fd5b5f73ffffffffffffffffffffffffffffffffffffffff168273ffffffffffffffffffffffffffffffffffffffff160361165e576040517f08c379a000000000000000000000000000000000000000000000000000000000815260040161165590612f66565b60405180910390fd5b611669838383611c97565b5f805f8573ffffffffffffffffffffffffffffffffffffffff1673ffffffffffffffffffffffffffffffffffffffff1681526020019081526020015f20549050818110156116ec576040517f08c379a00000000000000000000000000000000000000000000000000000000081526004016116e390612ff4565b60405180910390fd5b8181035f808673ffffffffffffffffffffffffffffffffffffffff1673ffffffffffffffffffffffffffffffffffffffff1681526020019081526020015f2081905550815f808573ffffffffffffffffffffffffffffffffffffffff1673ffffffffffffffffffffffffffffffffffffffff1681526020019081526020015f205f82825401925050819055508273ffffffffffffffffffffffffffffffffffffffff168473ffffffffffffffffffffffffffffffffffffffff167fddf252ad1be2c89b69c2b068fc378daa952ba7f163c4a11628f55a4df523b3ef846040516117d591906121a0565b60405180910390a36117e8848484611c9c565b50505050565b6117ff816117fa61132d565b611ca1565b50565b61180c8282610d16565b6118d957600160055f8481526020019081526020015f205f015f8373ffffffffffffffffffffffffffffffffffffffff1673ffffffffffffffffffffffffffffffffffffffff1681526020019081526020015f205f6101000a81548160ff02191690831515021790555061187e61132d565b73ffffffffffffffffffffffffffffffffffffffff168173ffffffffffffffffffffffffffffffffffffffff16837f2f8788117e7eff1d82e926ec794901d17c78024a50270940304540a733656f0d60405160405180910390a45b5050565b6118e78282610d16565b156119b4575f60055f8481526020019081526020015f205f015f8373ffffffffffffffffffffffffffffffffffffffff1673ffffffffffffffffffffffffffffffffffffffff1681526020019081526020015f205f6101000a81548160ff02191690831515021790555061195961132d565b73ffffffffffffffffffffffffffffffffffffffff168173ffffffffffffffffffffffffffffffffffffffff16837ff6391f5c32d9c69d2a47ea670b442974b53935d1edc7fd64eb21e047a839171b60405160405180910390a45b5050565b6119c0611d25565b5f60065f6101000a81548160ff0219169083151502179055507f5db9ee0a495bf2e6ff9c91a7834c1ba4fdd244a5e8aa4e537bd38aeae4b073aa611a0261132d565b604051611a0f9190612745565b60405180910390a1565b5f73ffffffffffffffffffffffffffffffffffffffff168273ffffffffffffffffffffffffffffffffffffffff1603611a87576040517f08c379a0000000000000000000000000000000000000000000000000000000008152600401611a7e90613082565b60405180910390fd5b611a92825f83611c97565b5f805f8473ffffffffffffffffffffffffffffffffffffffff1673ffffffffffffffffffffffffffffffffffffffff1681526020019081526020015f2054905081811015611b15576040517f08c379a0000000000000000000000000000000000000000000000000000000008152600401611b0c90613110565b60405180910390fd5b8181035f808573ffffffffffffffffffffffffffffffffffffffff1673ffffffffffffffffffffffffffffffffffffffff1681526020019081526020015f20819055508160025f82825403925050819055505f73ffffffffffffffffffffffffffffffffffffffff168373ffffffffffffffffffffffffffffffffffffffff167fddf252ad1be2c89b69c2b068fc378daa952ba7f163c4a11628f55a4df523b3ef84604051611bc491906121a0565b60405180910390a3611bd7835f84611c9c565b505050565b611be4611d6e565b600160065f6101000a81548160ff0219169083151502179055507f62e78cea01bee320cd4e420270b5ea74000d11b0c9f74754ebdbfc544b05a258611c2761132d565b604051611c349190612745565b60405180910390a1565b600260075403611c83576040517f08c379a0000000000000000000000000000000000000000000000000000000008152600401611c7a90613178565b60405180910390fd5b6002600781905550565b6001600781905550565b505050565b505050565b611cab8282610d16565b611d2157611cb881611db8565b611cc5835f1c6020611de5565b604051602001611cd6929190613264565b6040516020818303038152906040526040517f08c379a0000000000000000000000000000000000000000000000000000000008152600401611d189190612168565b60405180910390fd5b5050565b611d2d610b0c565b611d6c576040517f08c379a0000000000000000000000000000000000000000000000000000000008152600401611d63906132e7565b60405180910390fd5b565b611d76610b0c565b15611db6576040517f08c379a0000000000000000000000000000000000000000000000000000000008152600401611dad9061334f565b60405180910390fd5b565b6060611dde8273ffffffffffffffffffffffffffffffffffffffff16601460ff16611de5565b9050919050565b60605f6002836002611df79190612bab565b611e01919061265c565b67ffffffffffffffff811115611e1a57611e19612854565b5b6040519080825280601f01601f191660200182016040528015611e4c5781602001600182028036833780820191505090505b5090507f3000000000000000000000000000000000000000000000000000000000000000815f81518110611e8357611e82612881565b5b60200101907effffffffffffffffffffffffffffffffffffffffffffffffffffffffffffff191690815f1a9053507f780000000000000000000000000000000000000000000000000000000000000081600181518110611ee657611ee5612881565b5b60200101907effffffffffffffffffffffffffffffffffffffffffffffffffffffffffffff191690815f1a9053505f6001846002611f249190612bab565b611f2e919061265c565b90505b6001811115611fcd577f3031323334353637383961626364656600000000000000000000000000000000600f861660108110611f7057611f6f612881565b5b1a60f81b828281518110611f8757611f86612881565b5b60200101907effffffffffffffffffffffffffffffffffffffffffffffffffffffffffffff191690815f1a905350600485901c945080611fc69061336d565b9050611f31565b505f8414612010576040517f08c379a0000000000000000000000000000000000000000000000000000000008152600401612007906133de565b60405180910390fd5b8091505092915050565b5f604051905090565b5f80fd5b5f80fd5b5f7fffffffff0000000000000000000000000000000000000000000000000000000082169050919050565b61205f8161202b565b8114612069575f80fd5b50565b5f8135905061207a81612056565b92915050565b5f6020828403121561209557612094612023565b5b5f6120a28482850161206c565b91505092915050565b5f8115159050919050565b6120bf816120ab565b82525050565b5f6020820190506120d85f8301846120b6565b92915050565b5f81519050919050565b5f82825260208201905092915050565b5f5b838110156121155780820151818401526020810190506120fa565b5f8484015250505050565b5f601f19601f8301169050919050565b5f61213a826120de565b61214481856120e8565b93506121548185602086016120f8565b61215d81612120565b840191505092915050565b5f6020820190508181035f8301526121808184612130565b905092915050565b5f819050919050565b61219a81612188565b82525050565b5f6020820190506121b35f830184612191565b92915050565b5f73ffffffffffffffffffffffffffffffffffffffff82169050919050565b5f6121e2826121b9565b9050919050565b6121f2816121d8565b81146121fc575f80fd5b50565b5f8135905061220d816121e9565b92915050565b61221c81612188565b8114612226575f80fd5b50565b5f8135905061223781612213565b92915050565b5f806040838503121561225357612252612023565b5b5f612260858286016121ff565b925050602061227185828601612229565b9150509250929050565b5f805f6060848603121561229257612291612023565b5b5f61229f868287016121ff565b93505060206122b0868287016121ff565b92505060406122c186828701612229565b9150509250925092565b5f819050919050565b6122dd816122cb565b81146122e7575f80fd5b50565b5f813590506122f8816122d4565b92915050565b5f6020828403121561231357612312612023565b5b5f612320848285016122ea565b91505092915050565b612332816122cb565b82525050565b5f60208201905061234b5f830184612329565b92915050565b5f806040838503121561236757612366612023565b5b5f612374858286016122ea565b9250506020612385858286016121ff565b9150509250929050565b5f60ff82169050919050565b6123a48161238f565b82525050565b5f6020820190506123bd5f83018461239b565b92915050565b5f602082840312156123d8576123d7612023565b5b5f6123e584828501612229565b91505092915050565b5f6123f8826121b9565b9050919050565b612408816123ee565b8114612412575f80fd5b50565b5f81359050612423816123ff565b92915050565b5f806040838503121561243f5761243e612023565b5b5f61244c85828601612415565b925050602061245d85828601612229565b9150509250929050565b5f6020828403121561247c5761247b612023565b5b5f612489848285016121ff565b91505092915050565b5f819050919050565b5f6124b56124b06124ab846121b9565b612492565b6121b9565b9050919050565b5f6124c68261249b565b9050919050565b5f6124d7826124bc565b9050919050565b6124e7816124cd565b82525050565b5f6020820190506125005f8301846124de565b92915050565b5f806040838503121561251c5761251b612023565b5b5f612529858286016121ff565b925050602061253a858286016121ff565b9150509250929050565b7f4e487b71000000000000000000000000000000000000000000000000000000005f52602260045260245ffd5b5f600282049050600182168061258857607f821691505b60208210810361259b5761259a612544565b5b50919050565b7f416363657373436f6e74726f6c3a2063616e206f6e6c792072656e6f756e63655f8201527f20726f6c657320666f722073656c660000000000000000000000000000000000602082015250565b5f6125fb602f836120e8565b9150612606826125a1565b604082019050919050565b5f6020820190508181035f830152612628816125ef565b9050919050565b7f4e487b71000000000000000000000000000000000000000000000000000000005f52601160045260245ffd5b5f61266682612188565b915061267183612188565b92508282019050808211156126895761268861262f565b5b92915050565b7f4e6f7420656e6f75676820457468657220696e2074686520636f6e74726163745f82015250565b5f6126c36020836120e8565b91506126ce8261268f565b602082019050919050565b5f6020820190508181035f8301526126f0816126b7565b9050919050565b5f81519050612705816121e9565b92915050565b5f602082840312156127205761271f612023565b5b5f61272d848285016126f7565b91505092915050565b61273f816121d8565b82525050565b5f6020820190506127585f830184612736565b92915050565b7f45524332303a2064656372656173656420616c6c6f77616e63652062656c6f775f8201527f207a65726f000000000000000000000000000000000000000000000000000000602082015250565b5f6127b86025836120e8565b91506127c38261275e565b604082019050919050565b5f6020820190508181035f8301526127e5816127ac565b9050919050565b7f416d6f756e74206d7573742062652067726561746572207468616e20300000005f82015250565b5f612820601d836120e8565b915061282b826127ec565b602082019050919050565b5f6020820190508181035f83015261284d81612814565b9050919050565b7f4e487b71000000000000000000000000000000000000000000000000000000005f52604160045260245ffd5b7f4e487b71000000000000000000000000000000000000000000000000000000005f52603260045260245ffd5b5f81519050919050565b5f82825260208201905092915050565b5f819050602082019050919050565b6128e0816121d8565b82525050565b5f6128f183836128d7565b60208301905092915050565b5f602082019050919050565b5f612913826128ae565b61291d81856128b8565b9350612928836128c8565b805f5b8381101561295857815161293f88826128e6565b975061294a836128fd565b92505060018101905061292b565b5085935050505092915050565b5f6080820190506129785f830187612191565b818103602083015261298a8186612909565b90506129996040830185612736565b6129a66060830184612191565b95945050505050565b5f80fd5b6129bc82612120565b810181811067ffffffffffffffff821117156129db576129da612854565b5b80604052505050565b5f6129ed61201a565b90506129f982826129b3565b919050565b5f67ffffffffffffffff821115612a1857612a17612854565b5b602082029050602081019050919050565b5f80fd5b5f81519050612a3b81612213565b92915050565b5f612a53612a4e846129fe565b6129e4565b90508083825260208201905060208402830185811115612a7657612a75612a29565b5b835b81811015612a9f5780612a8b8882612a2d565b845260208401935050602081019050612a78565b5050509392505050565b5f82601f830112612abd57612abc6129af565b5b8151612acd848260208601612a41565b91505092915050565b5f60208284031215612aeb57612aea612023565b5b5f82015167ffffffffffffffff811115612b0857612b07612027565b5b612b1484828501612aa9565b91505092915050565b7f4469646e277420726563656976652074686520657870656374656420616d6f755f8201527f6e74206f6620746f6b656e730000000000000000000000000000000000000000602082015250565b5f612b77602c836120e8565b9150612b8282612b1d565b604082019050919050565b5f6020820190508181035f830152612ba481612b6b565b9050919050565b5f612bb582612188565b9150612bc083612188565b9250828202612bce81612188565b91508282048414831517612be557612be461262f565b5b5092915050565b7f4e487b71000000000000000000000000000000000000000000000000000000005f52601260045260245ffd5b5f612c2382612188565b9150612c2e83612188565b925082612c3e57612c3d612bec565b5b828204905092915050565b5f612c5382612188565b9150612c5e83612188565b9250828203905081811115612c7657612c7561262f565b5b92915050565b7f4665652070657263656e74206d757374206265203c3d203130000000000000005f82015250565b5f612cb06019836120e8565b9150612cbb82612c7c565b602082019050919050565b5f6020820190508181035f830152612cdd81612ca4565b9050919050565b7f45524332303a20617070726f76652066726f6d20746865207a65726f206164645f8201527f7265737300000000000000000000000000000000000000000000000000000000602082015250565b5f612d3e6024836120e8565b9150612d4982612ce4565b604082019050919050565b5f6020820190508181035f830152612d6b81612d32565b9050919050565b7f45524332303a20617070726f766520746f20746865207a65726f2061646472655f8201527f7373000000000000000000000000000000000000000000000000000000000000602082015250565b5f612dcc6022836120e8565b9150612dd782612d72565b604082019050919050565b5f6020820190508181035f830152612df981612dc0565b9050919050565b7f45524332303a20696e73756666696369656e7420616c6c6f77616e63650000005f82015250565b5f612e34601d836120e8565b9150612e3f82612e00565b602082019050919050565b5f6020820190508181035f830152612e6181612e28565b9050919050565b7f45524332303a207472616e736665722066726f6d20746865207a65726f2061645f8201527f6472657373000000000000000000000000000000000000000000000000000000602082015250565b5f612ec26025836120e8565b9150612ecd82612e68565b604082019050919050565b5f6020820190508181035f830152612eef81612eb6565b9050919050565b7f45524332303a207472616e7366657220746f20746865207a65726f20616464725f8201527f6573730000000000000000000000000000000000000000000000000000000000602082015250565b5f612f506023836120e8565b9150612f5b82612ef6565b604082019050919050565b5f6020820190508181035f830152612f7d81612f44565b9050919050565b7f45524332303a207472616e7366657220616d6f756e74206578636565647320625f8201527f616c616e63650000000000000000000000000000000000000000000000000000602082015250565b5f612fde6026836120e8565b9150612fe982612f84565b604082019050919050565b5f6020820190508181035f83015261300b81612fd2565b9050919050565b7f45524332303a206275726e2066726f6d20746865207a65726f206164647265735f8201527f7300000000000000000000000000000000000000000000000000000000000000602082015250565b5f61306c6021836120e8565b915061307782613012565b604082019050919050565b5f6020820190508181035f83015261309981613060565b9050919050565b7f45524332303a206275726e20616d6f756e7420657863656564732062616c616e5f8201527f6365000000000000000000000000000000000000000000000000000000000000602082015250565b5f6130fa6022836120e8565b9150613105826130a0565b604082019050919050565b5f6020820190508181035f830152613127816130ee565b9050919050565b7f5265656e7472616e637947756172643a207265656e7472616e742063616c6c005f82015250565b5f613162601f836120e8565b915061316d8261312e565b602082019050919050565b5f6020820190508181035f83015261318f81613156565b9050919050565b5f81905092915050565b7f416363657373436f6e74726f6c3a206163636f756e74200000000000000000005f82015250565b5f6131d4601783613196565b91506131df826131a0565b601782019050919050565b5f6131f4826120de565b6131fe8185613196565b935061320e8185602086016120f8565b80840191505092915050565b7f206973206d697373696e6720726f6c65200000000000000000000000000000005f82015250565b5f61324e601183613196565b91506132598261321a565b601182019050919050565b5f61326e826131c8565b915061327a82856131ea565b915061328582613242565b915061329182846131ea565b91508190509392505050565b7f5061757361626c653a206e6f74207061757365640000000000000000000000005f82015250565b5f6132d16014836120e8565b91506132dc8261329d565b602082019050919050565b5f6020820190508181035f8301526132fe816132c5565b9050919050565b7f5061757361626c653a20706175736564000000000000000000000000000000005f82015250565b5f6133396010836120e8565b915061334482613305565b602082019050919050565b5f6020820190508181035f8301526133668161332d565b9050919050565b5f61337782612188565b91505f82036133895761338861262f565b5b600182039050919050565b7f537472696e67733a20686578206c656e67746820696e73756666696369656e745f82015250565b5f6133c86020836120e8565b91506133d382613394565b602082019050919050565b5f6020820190508181035f8301526133f5816133bc565b905091905056fea26469706673582212207b125716e59110d6ba29272facaafbb8635d6cbbaece6bcbe4e53b0287ff631464736f6c63430008150033",
  "immutableReferences": {
    "1278": [
      {
        "length": 32,
        "start": 2334
      }
    ]
  },
  "source": "// SPDX-License-Identifier: MIT\npragma solidity ^0.8.18;\n\nimport \"@openzeppelin/contracts/token/ERC20/ERC20.sol\";\nimport \"@openzeppelin/contracts/token/ERC20/extensions/ERC20Capped.sol\";\nimport \"@openzeppelin/contracts/token/ERC20/extensions/ERC20Burnable.sol\";\nimport \"@openzeppelin/contracts/access/AccessControl.sol\";\nimport \"@openzeppelin/contracts/security/Pausable.sol\";\nimport \"@openzeppelin/contracts/security/ReentrancyGuard.sol\";\nimport \"@openzeppelin/contracts/utils/math/SafeMath.sol\";\n\ninterface IUniswapV2Router {\n    function WETH() external pure returns (address);\n    function swapETHForExactTokens(uint256 amountOut, address[] calldata path, address to, uint deadline) external payable returns (uint[] memory amounts);\n}\n\ncontract BlackPaperToken is ERC20Capped, ERC20Burnable, AccessControl, Pausable, ReentrancyGuard {\n    //using SafeMath for uint256;\n\n    uint256 private _maxTotalSupply = 100000000000000 * 10**decimals();\n    uint256 private _initialSupply = 370000000 * 10**decimals();\n    uint256 private _buybackFeePercent = 2;\n\n    bytes32 public constant MINTER_ROLE = keccak256(\"MINTER_ROLE\");\n\n    IUniswapV2Router public uniswapRouter;\n    address private WETH;\n\n    event BuybackFeeChanged(uint256 newFeePercent);\n    event EtherWithdrawn(address indexed recipient, uint256 amount);\n    event UniswapRouterUpdated(address newRouterAddress);\n\n    constructor(address _uniswapRouterAddress) ERC20Capped(_maxTotalSupply) ERC20(\"BlackPaperToken\", \"HRDZ\") {\n        require(_initialSupply > 0, \"Initial supply must be greater than zero\");\n        _mint(msg.sender, _initialSupply);\n        _setupRole(DEFAULT_ADMIN_ROLE, msg.sender);\n        _setupRole(MINTER_ROLE, msg.sender);\n        uniswapRouter = IUniswapV2Router(_uniswapRouterAddress);\n        WETH = uniswapRouter.WETH();\n    }\n\n    function _mint(address account, uint256 amount) internal override(ERC20, ERC20Capped) {\n        super._mint(account, amount);  // Here we're calling the _mint function from ERC20Capped\n    }\n    \n    function setBuybackFeePercent(uint256 newFeePercent) external onlyRole(DEFAULT_ADMIN_ROLE) {\n        require(newFeePercent <= 10, \"Fee percent must be <= 10\");\n        _buybackFeePercent = newFeePercent;\n        emit BuybackFeeChanged(newFeePercent);\n    }\n\n    function getBuybackFeePercent() external view returns (uint256) {\n        return _buybackFeePercent;\n    }\n\n    function pause() external onlyRole(DEFAULT_ADMIN_ROLE) {\n        _pause();\n    }\n\n    function unpause() external onlyRole(DEFAULT_ADMIN_ROLE) {\n        _unpause();\n    }\n    \n    function initiateTokenBuyback(uint256 amount) external payable nonReentrant onlyRole(DEFAULT_ADMIN_ROLE) {\n        require(amount > 0, \"Amount must be greater than 0\");\n        address[] memory path = new address[](2);\n        path[0] = WETH;\n        path[1] = address(this);\n        uint[] memory amounts = uniswapRouter.swapETHForExactTokens{value: msg.value}(amount, path, address(this), block.timestamp + 15 minutes);\n        require(amounts[1] >= amount, \"Didn't receive the expected amount of tokens\");\n        uint256 fee = (amount * _buybackFeePercent) / 100;\n        uint256 amountAfterFee = amount - fee;\n        _burn(address(this), fee);\n        _burn(address(this), amountAfterFee);\n    }\n\n    function updateUniswapRouter(address newRouterAddress) external onlyRole(DEFAULT_ADMIN_ROLE) {\n        uniswapRouter = IUniswapV2Router(newRouterAddress);\n        WETH = uniswapRouter.WETH();\n        emit UniswapRouterUpdated(newRouterAddress);\n    }\n\n    function withdrawEther(address payable recipient, uint256 amount) external onlyRole(DEFAULT_ADMIN_ROLE) {\n        require(address(this).balance >= amount, \"Not enough Ether in the contract\");\n        recipient.transfer(amount);\n        emit EtherWithdrawn(recipient, amount);\n    }\n\n    receive() external payable {}\n}",
  "sourcePath": "/home/deb/Documents/Programming/ERC20Tokens/erc20-token-003/BlackPaperToken/contracts/BlackPaperToken.sol",
  "compiler": {
    "name": "solc",
    "version": "0.8.21+commit.d9974bed.Emscripten.clang"
  },
  "schemaVersion": "3.4.15",
  "updatedAt": "2023-09-28T22:19:21.696Z",
  "devdoc": {
    "events": {
      "Approval(address,address,uint256)": {
        "details": "Emitted when the allowance of a `spender` for an `owner` is set by a call to {approve}. `value` is the new allowance."
      },
      "Paused(address)": {
        "details": "Emitted when the pause is triggered by `account`."
      },
      "RoleAdminChanged(bytes32,bytes32,bytes32)": {
        "details": "Emitted when `newAdminRole` is set as ``role``'s admin role, replacing `previousAdminRole` `DEFAULT_ADMIN_ROLE` is the starting admin for all roles, despite {RoleAdminChanged} not being emitted signaling this. _Available since v3.1._"
      },
      "RoleGranted(bytes32,address,address)": {
        "details": "Emitted when `account` is granted `role`. `sender` is the account that originated the contract call, an admin role bearer except when using {AccessControl-_setupRole}."
      },
      "RoleRevoked(bytes32,address,address)": {
        "details": "Emitted when `account` is revoked `role`. `sender` is the account that originated the contract call:   - if using `revokeRole`, it is the admin role bearer   - if using `renounceRole`, it is the role bearer (i.e. `account`)"
      },
      "Transfer(address,address,uint256)": {
        "details": "Emitted when `value` tokens are moved from one account (`from`) to another (`to`). Note that `value` may be zero."
      },
      "Unpaused(address)": {
        "details": "Emitted when the pause is lifted by `account`."
      }
    },
    "kind": "dev",
    "methods": {
      "allowance(address,address)": {
        "details": "See {IERC20-allowance}."
      },
      "approve(address,uint256)": {
        "details": "See {IERC20-approve}. NOTE: If `amount` is the maximum `uint256`, the allowance is not updated on `transferFrom`. This is semantically equivalent to an infinite approval. Requirements: - `spender` cannot be the zero address."
      },
      "balanceOf(address)": {
        "details": "See {IERC20-balanceOf}."
      },
      "burn(uint256)": {
        "details": "Destroys `amount` tokens from the caller. See {ERC20-_burn}."
      },
      "burnFrom(address,uint256)": {
        "details": "Destroys `amount` tokens from `account`, deducting from the caller's allowance. See {ERC20-_burn} and {ERC20-allowance}. Requirements: - the caller must have allowance for ``accounts``'s tokens of at least `amount`."
      },
      "cap()": {
        "details": "Returns the cap on the token's total supply."
      },
      "decimals()": {
        "details": "Returns the number of decimals used to get its user representation. For example, if `decimals` equals `2`, a balance of `505` tokens should be displayed to a user as `5.05` (`505 / 10 ** 2`). Tokens usually opt for a value of 18, imitating the relationship between Ether and Wei. This is the default value returned by this function, unless it's overridden. NOTE: This information is only used for _display_ purposes: it in no way affects any of the arithmetic of the contract, including {IERC20-balanceOf} and {IERC20-transfer}."
      },
      "decreaseAllowance(address,uint256)": {
        "details": "Atomically decreases the allowance granted to `spender` by the caller. This is an alternative to {approve} that can be used as a mitigation for problems described in {IERC20-approve}. Emits an {Approval} event indicating the updated allowance. Requirements: - `spender` cannot be the zero address. - `spender` must have allowance for the caller of at least `subtractedValue`."
      },
      "getRoleAdmin(bytes32)": {
        "details": "Returns the admin role that controls `role`. See {grantRole} and {revokeRole}. To change a role's admin, use {_setRoleAdmin}."
      },
      "grantRole(bytes32,address)": {
        "details": "Grants `role` to `account`. If `account` had not been already granted `role`, emits a {RoleGranted} event. Requirements: - the caller must have ``role``'s admin role. May emit a {RoleGranted} event."
      },
      "hasRole(bytes32,address)": {
        "details": "Returns `true` if `account` has been granted `role`."
      },
      "increaseAllowance(address,uint256)": {
        "details": "Atomically increases the allowance granted to `spender` by the caller. This is an alternative to {approve} that can be used as a mitigation for problems described in {IERC20-approve}. Emits an {Approval} event indicating the updated allowance. Requirements: - `spender` cannot be the zero address."
      },
      "name()": {
        "details": "Returns the name of the token."
      },
      "paused()": {
        "details": "Returns true if the contract is paused, and false otherwise."
      },
      "renounceRole(bytes32,address)": {
        "details": "Revokes `role` from the calling account. Roles are often managed via {grantRole} and {revokeRole}: this function's purpose is to provide a mechanism for accounts to lose their privileges if they are compromised (such as when a trusted device is misplaced). If the calling account had been revoked `role`, emits a {RoleRevoked} event. Requirements: - the caller must be `account`. May emit a {RoleRevoked} event."
      },
      "revokeRole(bytes32,address)": {
        "details": "Revokes `role` from `account`. If `account` had been granted `role`, emits a {RoleRevoked} event. Requirements: - the caller must have ``role``'s admin role. May emit a {RoleRevoked} event."
      },
      "supportsInterface(bytes4)": {
        "details": "See {IERC165-supportsInterface}."
      },
      "symbol()": {
        "details": "Returns the symbol of the token, usually a shorter version of the name."
      },
      "totalSupply()": {
        "details": "See {IERC20-totalSupply}."
      },
      "transfer(address,uint256)": {
        "details": "See {IERC20-transfer}. Requirements: - `to` cannot be the zero address. - the caller must have a balance of at least `amount`."
      },
      "transferFrom(address,address,uint256)": {
        "details": "See {IERC20-transferFrom}. Emits an {Approval} event indicating the updated allowance. This is not required by the EIP. See the note at the beginning of {ERC20}. NOTE: Does not update the allowance if the current allowance is the maximum `uint256`. Requirements: - `from` and `to` cannot be the zero address. - `from` must have a balance of at least `amount`. - the caller must have allowance for ``from``'s tokens of at least `amount`."
      }
    },
    "version": 1
  },
  "userdoc": {
    "kind": "user",
    "methods": {},
    "version": 1
  }
}