{
  "contractName": "BlackPaperToken",
  "abi": [
    {
      "inputs": [],
      "stateMutability": "nonpayable",
      "type": "constructor"
    },
    {
      "anonymous": false,
      "inputs": [
        {
          "indexed": true,
          "internalType": "address",
          "name": "owner",
          "type": "address"
        },
        {
          "indexed": true,
          "internalType": "address",
          "name": "spender",
          "type": "address"
        },
        {
          "indexed": false,
          "internalType": "uint256",
          "name": "value",
          "type": "uint256"
        }
      ],
      "name": "Approval",
      "type": "event"
    },
    {
      "anonymous": false,
      "inputs": [
        {
          "indexed": false,
          "internalType": "uint256",
          "name": "newFeePercent",
          "type": "uint256"
        }
      ],
      "name": "BuybackFeeChanged",
      "type": "event"
    },
    {
      "anonymous": false,
      "inputs": [
        {
          "indexed": false,
          "internalType": "address",
          "name": "account",
          "type": "address"
        }
      ],
      "name": "Paused",
      "type": "event"
    },
    {
      "anonymous": false,
      "inputs": [
        {
          "indexed": true,
          "internalType": "bytes32",
          "name": "role",
          "type": "bytes32"
        },
        {
          "indexed": true,
          "internalType": "bytes32",
          "name": "previousAdminRole",
          "type": "bytes32"
        },
        {
          "indexed": true,
          "internalType": "bytes32",
          "name": "newAdminRole",
          "type": "bytes32"
        }
      ],
      "name": "RoleAdminChanged",
      "type": "event"
    },
    {
      "anonymous": false,
      "inputs": [
        {
          "indexed": true,
          "internalType": "bytes32",
          "name": "role",
          "type": "bytes32"
        },
        {
          "indexed": true,
          "internalType": "address",
          "name": "account",
          "type": "address"
        },
        {
          "indexed": true,
          "internalType": "address",
          "name": "sender",
          "type": "address"
        }
      ],
      "name": "RoleGranted",
      "type": "event"
    },
    {
      "anonymous": false,
      "inputs": [
        {
          "indexed": true,
          "internalType": "bytes32",
          "name": "role",
          "type": "bytes32"
        },
        {
          "indexed": true,
          "internalType": "address",
          "name": "account",
          "type": "address"
        },
        {
          "indexed": true,
          "internalType": "address",
          "name": "sender",
          "type": "address"
        }
      ],
      "name": "RoleRevoked",
      "type": "event"
    },
    {
      "anonymous": false,
      "inputs": [
        {
          "indexed": true,
          "internalType": "address",
          "name": "from",
          "type": "address"
        },
        {
          "indexed": true,
          "internalType": "address",
          "name": "to",
          "type": "address"
        },
        {
          "indexed": false,
          "internalType": "uint256",
          "name": "value",
          "type": "uint256"
        }
      ],
      "name": "Transfer",
      "type": "event"
    },
    {
      "anonymous": false,
      "inputs": [
        {
          "indexed": false,
          "internalType": "address",
          "name": "account",
          "type": "address"
        }
      ],
      "name": "Unpaused",
      "type": "event"
    },
    {
      "inputs": [],
      "name": "DEFAULT_ADMIN_ROLE",
      "outputs": [
        {
          "internalType": "bytes32",
          "name": "",
          "type": "bytes32"
        }
      ],
      "stateMutability": "view",
      "type": "function"
    },
    {
      "inputs": [],
      "name": "MINTER_ROLE",
      "outputs": [
        {
          "internalType": "bytes32",
          "name": "",
          "type": "bytes32"
        }
      ],
      "stateMutability": "view",
      "type": "function"
    },
    {
      "inputs": [
        {
          "internalType": "address",
          "name": "owner",
          "type": "address"
        },
        {
          "internalType": "address",
          "name": "spender",
          "type": "address"
        }
      ],
      "name": "allowance",
      "outputs": [
        {
          "internalType": "uint256",
          "name": "",
          "type": "uint256"
        }
      ],
      "stateMutability": "view",
      "type": "function"
    },
    {
      "inputs": [
        {
          "internalType": "address",
          "name": "spender",
          "type": "address"
        },
        {
          "internalType": "uint256",
          "name": "amount",
          "type": "uint256"
        }
      ],
      "name": "approve",
      "outputs": [
        {
          "internalType": "bool",
          "name": "",
          "type": "bool"
        }
      ],
      "stateMutability": "nonpayable",
      "type": "function"
    },
    {
      "inputs": [
        {
          "internalType": "address",
          "name": "account",
          "type": "address"
        }
      ],
      "name": "balanceOf",
      "outputs": [
        {
          "internalType": "uint256",
          "name": "",
          "type": "uint256"
        }
      ],
      "stateMutability": "view",
      "type": "function"
    },
    {
      "inputs": [
        {
          "internalType": "uint256",
          "name": "amount",
          "type": "uint256"
        }
      ],
      "name": "burn",
      "outputs": [],
      "stateMutability": "nonpayable",
      "type": "function"
    },
    {
      "inputs": [
        {
          "internalType": "address",
          "name": "account",
          "type": "address"
        },
        {
          "internalType": "uint256",
          "name": "amount",
          "type": "uint256"
        }
      ],
      "name": "burnFrom",
      "outputs": [],
      "stateMutability": "nonpayable",
      "type": "function"
    },
    {
      "inputs": [],
      "name": "cap",
      "outputs": [
        {
          "internalType": "uint256",
          "name": "",
          "type": "uint256"
        }
      ],
      "stateMutability": "view",
      "type": "function"
    },
    {
      "inputs": [],
      "name": "decimals",
      "outputs": [
        {
          "internalType": "uint8",
          "name": "",
          "type": "uint8"
        }
      ],
      "stateMutability": "view",
      "type": "function"
    },
    {
      "inputs": [
        {
          "internalType": "address",
          "name": "spender",
          "type": "address"
        },
        {
          "internalType": "uint256",
          "name": "subtractedValue",
          "type": "uint256"
        }
      ],
      "name": "decreaseAllowance",
      "outputs": [
        {
          "internalType": "bool",
          "name": "",
          "type": "bool"
        }
      ],
      "stateMutability": "nonpayable",
      "type": "function"
    },
    {
      "inputs": [
        {
          "internalType": "bytes32",
          "name": "role",
          "type": "bytes32"
        }
      ],
      "name": "getRoleAdmin",
      "outputs": [
        {
          "internalType": "bytes32",
          "name": "",
          "type": "bytes32"
        }
      ],
      "stateMutability": "view",
      "type": "function"
    },
    {
      "inputs": [
        {
          "internalType": "bytes32",
          "name": "role",
          "type": "bytes32"
        },
        {
          "internalType": "address",
          "name": "account",
          "type": "address"
        }
      ],
      "name": "grantRole",
      "outputs": [],
      "stateMutability": "nonpayable",
      "type": "function"
    },
    {
      "inputs": [
        {
          "internalType": "bytes32",
          "name": "role",
          "type": "bytes32"
        },
        {
          "internalType": "address",
          "name": "account",
          "type": "address"
        }
      ],
      "name": "hasRole",
      "outputs": [
        {
          "internalType": "bool",
          "name": "",
          "type": "bool"
        }
      ],
      "stateMutability": "view",
      "type": "function"
    },
    {
      "inputs": [
        {
          "internalType": "address",
          "name": "spender",
          "type": "address"
        },
        {
          "internalType": "uint256",
          "name": "addedValue",
          "type": "uint256"
        }
      ],
      "name": "increaseAllowance",
      "outputs": [
        {
          "internalType": "bool",
          "name": "",
          "type": "bool"
        }
      ],
      "stateMutability": "nonpayable",
      "type": "function"
    },
    {
      "inputs": [],
      "name": "name",
      "outputs": [
        {
          "internalType": "string",
          "name": "",
          "type": "string"
        }
      ],
      "stateMutability": "view",
      "type": "function"
    },
    {
      "inputs": [],
      "name": "paused",
      "outputs": [
        {
          "internalType": "bool",
          "name": "",
          "type": "bool"
        }
      ],
      "stateMutability": "view",
      "type": "function"
    },
    {
      "inputs": [
        {
          "internalType": "bytes32",
          "name": "role",
          "type": "bytes32"
        },
        {
          "internalType": "address",
          "name": "account",
          "type": "address"
        }
      ],
      "name": "renounceRole",
      "outputs": [],
      "stateMutability": "nonpayable",
      "type": "function"
    },
    {
      "inputs": [
        {
          "internalType": "bytes32",
          "name": "role",
          "type": "bytes32"
        },
        {
          "internalType": "address",
          "name": "account",
          "type": "address"
        }
      ],
      "name": "revokeRole",
      "outputs": [],
      "stateMutability": "nonpayable",
      "type": "function"
    },
    {
      "inputs": [
        {
          "internalType": "bytes4",
          "name": "interfaceId",
          "type": "bytes4"
        }
      ],
      "name": "supportsInterface",
      "outputs": [
        {
          "internalType": "bool",
          "name": "",
          "type": "bool"
        }
      ],
      "stateMutability": "view",
      "type": "function"
    },
    {
      "inputs": [],
      "name": "symbol",
      "outputs": [
        {
          "internalType": "string",
          "name": "",
          "type": "string"
        }
      ],
      "stateMutability": "view",
      "type": "function"
    },
    {
      "inputs": [],
      "name": "totalSupply",
      "outputs": [
        {
          "internalType": "uint256",
          "name": "",
          "type": "uint256"
        }
      ],
      "stateMutability": "view",
      "type": "function"
    },
    {
      "inputs": [
        {
          "internalType": "address",
          "name": "to",
          "type": "address"
        },
        {
          "internalType": "uint256",
          "name": "amount",
          "type": "uint256"
        }
      ],
      "name": "transfer",
      "outputs": [
        {
          "internalType": "bool",
          "name": "",
          "type": "bool"
        }
      ],
      "stateMutability": "nonpayable",
      "type": "function"
    },
    {
      "inputs": [
        {
          "internalType": "address",
          "name": "from",
          "type": "address"
        },
        {
          "internalType": "address",
          "name": "to",
          "type": "address"
        },
        {
          "internalType": "uint256",
          "name": "amount",
          "type": "uint256"
        }
      ],
      "name": "transferFrom",
      "outputs": [
        {
          "internalType": "bool",
          "name": "",
          "type": "bool"
        }
      ],
      "stateMutability": "nonpayable",
      "type": "function"
    },
    {
      "stateMutability": "payable",
      "type": "receive"
    },
    {
      "inputs": [
        {
          "internalType": "uint256",
          "name": "newFeePercent",
          "type": "uint256"
        }
      ],
      "name": "setBuybackFeePercent",
      "outputs": [],
      "stateMutability": "nonpayable",
      "type": "function"
    },
    {
      "inputs": [],
      "name": "getBuybackFeePercent",
      "outputs": [
        {
          "internalType": "uint256",
          "name": "",
          "type": "uint256"
        }
      ],
      "stateMutability": "view",
      "type": "function"
    },
    {
      "inputs": [],
      "name": "pause",
      "outputs": [],
      "stateMutability": "nonpayable",
      "type": "function"
    },
    {
      "inputs": [],
      "name": "unpause",
      "outputs": [],
      "stateMutability": "nonpayable",
      "type": "function"
    }
  ],
  "bytecode": "0x60a0604052620000146200022760201b60201c565b600a6200002291906200074c565b655af3107a40006200003591906200079c565b600855620000486200022760201b60201c565b600a6200005691906200074c565b63160dc0806200006791906200079c565b6009556002600a553480156200007b575f80fd5b506008546040518060400160405280600f81526020017f426c61636b5061706572546f6b656e00000000000000000000000000000000008152506040518060400160405280600481526020017f4852445a000000000000000000000000000000000000000000000000000000008152508160039081620000fc919062000a41565b5080600490816200010e919062000a41565b5050505f811162000156576040517f08c379a00000000000000000000000000000000000000000000000000000000081526004016200014d9062000b83565b60405180910390fd5b8060808181525050505f60065f6101000a81548160ff02191690831515021790555060016007819055505f60095411620001c7576040517f08c379a0000000000000000000000000000000000000000000000000000000008152600401620001be9062000c17565b60405180910390fd5b620001db336009546200022f60201b60201c565b620001ef5f801b336200024560201b60201c565b620002217f9f2df0fed2c77648de5860a4cc508cd0818c85b8b8a1ab4ceeef8d981c8956a6336200024560201b60201c565b62000d79565b5f6012905090565b6200024182826200025b60201b60201c565b5050565b620002578282620002e260201b60201c565b5050565b6200026b620003ce60201b60201c565b816200027c620003d760201b60201c565b62000288919062000c37565b1115620002cc576040517f08c379a0000000000000000000000000000000000000000000000000000000008152600401620002c39062000cbf565b60405180910390fd5b620002de8282620003e060201b60201c565b5050565b620002f482826200054560201b60201c565b620003ca57600160055f8481526020019081526020015f205f015f8373ffffffffffffffffffffffffffffffffffffffff1673ffffffffffffffffffffffffffffffffffffffff1681526020019081526020015f205f6101000a81548160ff0219169083151502179055506200036f620005a960201b60201c565b73ffffffffffffffffffffffffffffffffffffffff168173ffffffffffffffffffffffffffffffffffffffff16837f2f8788117e7eff1d82e926ec794901d17c78024a50270940304540a733656f0d60405160405180910390a45b5050565b5f608051905090565b5f600254905090565b5f73ffffffffffffffffffffffffffffffffffffffff168273ffffffffffffffffffffffffffffffffffffffff160362000451576040517f08c379a0000000000000000000000000000000000000000000000000000000008152600401620004489062000d2d565b60405180910390fd5b620004645f8383620005b060201b60201c565b8060025f82825462000477919062000c37565b92505081905550805f808473ffffffffffffffffffffffffffffffffffffffff1673ffffffffffffffffffffffffffffffffffffffff1681526020019081526020015f205f82825401925050819055508173ffffffffffffffffffffffffffffffffffffffff165f73ffffffffffffffffffffffffffffffffffffffff167fddf252ad1be2c89b69c2b068fc378daa952ba7f163c4a11628f55a4df523b3ef8360405162000526919062000d5e565b60405180910390a3620005415f8383620005b560201b60201c565b5050565b5f60055f8481526020019081526020015f205f015f8373ffffffffffffffffffffffffffffffffffffffff1673ffffffffffffffffffffffffffffffffffffffff1681526020019081526020015f205f9054906101000a900460ff16905092915050565b5f33905090565b505050565b505050565b7f4e487b71000000000000000000000000000000000000000000000000000000005f52601160045260245ffd5b5f8160011c9050919050565b5f808291508390505b600185111562000644578086048111156200061c576200061b620005ba565b5b60018516156200062c5780820291505b80810290506200063c85620005e7565b9450620005fc565b94509492505050565b5f826200065e576001905062000730565b816200066d575f905062000730565b81600181146200068657600281146200069157620006c7565b600191505062000730565b60ff841115620006a657620006a5620005ba565b5b8360020a915084821115620006c057620006bf620005ba565b5b5062000730565b5060208310610133831016604e8410600b8410161715620007015782820a905083811115620006fb57620006fa620005ba565b5b62000730565b620007108484846001620005f3565b925090508184048111156200072a5762000729620005ba565b5b81810290505b9392505050565b5f819050919050565b5f60ff82169050919050565b5f620007588262000737565b9150620007658362000740565b9250620007947fffffffffffffffffffffffffffffffffffffffffffffffffffffffffffffffff84846200064d565b905092915050565b5f620007a88262000737565b9150620007b58362000737565b9250828202620007c58162000737565b91508282048414831517620007df57620007de620005ba565b5b5092915050565b5f81519050919050565b7f4e487b71000000000000000000000000000000000000000000000000000000005f52604160045260245ffd5b7f4e487b71000000000000000000000000000000000000000000000000000000005f52602260045260245ffd5b5f60028204905060018216806200086257607f821691505b6020821081036200087857620008776200081d565b5b50919050565b5f819050815f5260205f209050919050565b5f6020601f8301049050919050565b5f82821b905092915050565b5f60088302620008dc7fffffffffffffffffffffffffffffffffffffffffffffffffffffffffffffffff826200089f565b620008e886836200089f565b95508019841693508086168417925050509392505050565b5f819050919050565b5f62000929620009236200091d8462000737565b62000900565b62000737565b9050919050565b5f819050919050565b620009448362000909565b6200095c620009538262000930565b848454620008ab565b825550505050565b5f90565b6200097262000964565b6200097f81848462000939565b505050565b5b81811015620009a6576200099a5f8262000968565b60018101905062000985565b5050565b601f821115620009f557620009bf816200087e565b620009ca8462000890565b81016020851015620009da578190505b620009f2620009e98562000890565b83018262000984565b50505b505050565b5f82821c905092915050565b5f62000a175f1984600802620009fa565b1980831691505092915050565b5f62000a31838362000a06565b9150826002028217905092915050565b62000a4c82620007e6565b67ffffffffffffffff81111562000a685762000a67620007f0565b5b62000a7482546200084a565b62000a81828285620009aa565b5f60209050601f83116001811462000ab7575f841562000aa2578287015190505b62000aae858262000a24565b86555062000b1d565b601f19841662000ac7866200087e565b5f5b8281101562000af05784890151825560018201915060208501945060208101905062000ac9565b8683101562000b10578489015162000b0c601f89168262000a06565b8355505b6001600288020188555050505b505050505050565b5f82825260208201905092915050565b7f45524332304361707065643a20636170206973203000000000000000000000005f82015250565b5f62000b6b60158362000b25565b915062000b788262000b35565b602082019050919050565b5f6020820190508181035f83015262000b9c8162000b5d565b9050919050565b7f496e697469616c20737570706c79206d757374206265206772656174657220745f8201527f68616e207a65726f000000000000000000000000000000000000000000000000602082015250565b5f62000bff60288362000b25565b915062000c0c8262000ba3565b604082019050919050565b5f6020820190508181035f83015262000c308162000bf1565b9050919050565b5f62000c438262000737565b915062000c508362000737565b925082820190508082111562000c6b5762000c6a620005ba565b5b92915050565b7f45524332304361707065643a20636170206578636565646564000000000000005f82015250565b5f62000ca760198362000b25565b915062000cb48262000c71565b602082019050919050565b5f6020820190508181035f83015262000cd88162000c99565b9050919050565b7f45524332303a206d696e7420746f20746865207a65726f2061646472657373005f82015250565b5f62000d15601f8362000b25565b915062000d228262000cdf565b602082019050919050565b5f6020820190508181035f83015262000d468162000d07565b9050919050565b62000d588162000737565b82525050565b5f60208201905062000d735f83018462000d4d565b92915050565b6080516127e662000d925f395f61084c01526127e65ff3fe60806040526004361061019f575f3560e01c806342966c68116100eb578063a217fddf11610089578063d539139311610063578063d5391393146105e2578063d547741f1461060c578063dd62ed3e14610634578063fda55a3d14610670576101a6565b8063a217fddf14610540578063a457c2d71461056a578063a9059cbb146105a6576101a6565b806379cc6790116100c557806379cc67901461049c5780638456cb59146104c457806391d14854146104da57806395d89b4114610516576101a6565b806342966c681461040e5780635c975abb1461043657806370a0823114610460576101a6565b8063248a9ca311610158578063355274ea11610132578063355274ea1461036a57806336568abe1461039457806339509351146103bc5780633f4ba83a146103f8576101a6565b8063248a9ca3146102dc5780632f2ff15d14610318578063313ce56714610340576101a6565b806301ffc9a7146101aa57806306fdde03146101e657806307a8741e14610210578063095ea7b31461023a57806318160ddd1461027657806323b872dd146102a0576101a6565b366101a657005b5f80fd5b3480156101b5575f80fd5b506101d060048036038101906101cb9190611a25565b610698565b6040516101dd9190611a6a565b60405180910390f35b3480156101f1575f80fd5b506101fa610711565b6040516102079190611b0d565b60405180910390f35b34801561021b575f80fd5b506102246107a1565b6040516102319190611b45565b60405180910390f35b348015610245575f80fd5b50610260600480360381019061025b9190611be2565b6107aa565b60405161026d9190611a6a565b60405180910390f35b348015610281575f80fd5b5061028a6107cc565b6040516102979190611b45565b60405180910390f35b3480156102ab575f80fd5b506102c660048036038101906102c19190611c20565b6107d5565b6040516102d39190611a6a565b60405180910390f35b3480156102e7575f80fd5b5061030260048036038101906102fd9190611ca3565b610803565b60405161030f9190611cdd565b60405180910390f35b348015610323575f80fd5b5061033e60048036038101906103399190611cf6565b610820565b005b34801561034b575f80fd5b50610354610841565b6040516103619190611d4f565b60405180910390f35b348015610375575f80fd5b5061037e610849565b60405161038b9190611b45565b60405180910390f35b34801561039f575f80fd5b506103ba60048036038101906103b59190611cf6565b610870565b005b3480156103c7575f80fd5b506103e260048036038101906103dd9190611be2565b6108f3565b6040516103ef9190611a6a565b60405180910390f35b348015610403575f80fd5b5061040c610929565b005b348015610419575f80fd5b50610434600480360381019061042f9190611d68565b610940565b005b348015610441575f80fd5b5061044a610954565b6040516104579190611a6a565b60405180910390f35b34801561046b575f80fd5b5061048660048036038101906104819190611d93565b610969565b6040516104939190611b45565b60405180910390f35b3480156104a7575f80fd5b506104c260048036038101906104bd9190611be2565b6109ae565b005b3480156104cf575f80fd5b506104d86109ce565b005b3480156104e5575f80fd5b5061050060048036038101906104fb9190611cf6565b6109e5565b60405161050d9190611a6a565b60405180910390f35b348015610521575f80fd5b5061052a610a49565b6040516105379190611b0d565b60405180910390f35b34801561054b575f80fd5b50610554610ad9565b6040516105619190611cdd565b60405180910390f35b348015610575575f80fd5b50610590600480360381019061058b9190611be2565b610adf565b60405161059d9190611a6a565b60405180910390f35b3480156105b1575f80fd5b506105cc60048036038101906105c79190611be2565b610b54565b6040516105d99190611a6a565b60405180910390f35b3480156105ed575f80fd5b506105f6610b76565b6040516106039190611cdd565b60405180910390f35b348015610617575f80fd5b50610632600480360381019061062d9190611cf6565b610b9a565b005b34801561063f575f80fd5b5061065a60048036038101906106559190611dbe565b610bbb565b6040516106679190611b45565b60405180910390f35b34801561067b575f80fd5b5061069660048036038101906106919190611d68565b610c3d565b005b5f7f7965db0b000000000000000000000000000000000000000000000000000000007bffffffffffffffffffffffffffffffffffffffffffffffffffffffff1916827bffffffffffffffffffffffffffffffffffffffffffffffffffffffff1916148061070a575061070982610ccf565b5b9050919050565b60606003805461072090611e29565b80601f016020809104026020016040519081016040528092919081815260200182805461074c90611e29565b80156107975780601f1061076e57610100808354040283529160200191610797565b820191905f5260205f20905b81548152906001019060200180831161077a57829003601f168201915b5050505050905090565b5f600a54905090565b5f806107b4610d38565b90506107c1818585610d3f565b600191505092915050565b5f600254905090565b5f806107df610d38565b90506107ec858285610f02565b6107f7858585610f8d565b60019150509392505050565b5f60055f8381526020019081526020015f20600101549050919050565b61082982610803565b610832816111f9565b61083c838361120d565b505050565b5f6012905090565b5f7f0000000000000000000000000000000000000000000000000000000000000000905090565b610878610d38565b73ffffffffffffffffffffffffffffffffffffffff168173ffffffffffffffffffffffffffffffffffffffff16146108e5576040517f08c379a00000000000000000000000000000000000000000000000000000000081526004016108dc90611ec9565b60405180910390fd5b6108ef82826112e8565b5050565b5f806108fd610d38565b905061091e81858561090f8589610bbb565b6109199190611f14565b610d3f565b600191505092915050565b5f801b610935816111f9565b61093d6113c3565b50565b61095161094b610d38565b82611424565b50565b5f60065f9054906101000a900460ff16905090565b5f805f8373ffffffffffffffffffffffffffffffffffffffff1673ffffffffffffffffffffffffffffffffffffffff1681526020019081526020015f20549050919050565b6109c0826109ba610d38565b83610f02565b6109ca8282611424565b5050565b5f801b6109da816111f9565b6109e26115e7565b50565b5f60055f8481526020019081526020015f205f015f8373ffffffffffffffffffffffffffffffffffffffff1673ffffffffffffffffffffffffffffffffffffffff1681526020019081526020015f205f9054906101000a900460ff16905092915050565b606060048054610a5890611e29565b80601f0160208091040260200160405190810160405280929190818152602001828054610a8490611e29565b8015610acf5780601f10610aa657610100808354040283529160200191610acf565b820191905f5260205f20905b815481529060010190602001808311610ab257829003601f168201915b5050505050905090565b5f801b81565b5f80610ae9610d38565b90505f610af68286610bbb565b905083811015610b3b576040517f08c379a0000000000000000000000000000000000000000000000000000000008152600401610b3290611fb7565b60405180910390fd5b610b488286868403610d3f565b60019250505092915050565b5f80610b5e610d38565b9050610b6b818585610f8d565b600191505092915050565b7f9f2df0fed2c77648de5860a4cc508cd0818c85b8b8a1ab4ceeef8d981c8956a681565b610ba382610803565b610bac816111f9565b610bb683836112e8565b505050565b5f60015f8473ffffffffffffffffffffffffffffffffffffffff1673ffffffffffffffffffffffffffffffffffffffff1681526020019081526020015f205f8373ffffffffffffffffffffffffffffffffffffffff1673ffffffffffffffffffffffffffffffffffffffff1681526020019081526020015f2054905092915050565b5f801b610c49816111f9565b600a821115610c8d576040517f08c379a0000000000000000000000000000000000000000000000000000000008152600401610c849061201f565b60405180910390fd5b81600a819055507f8846b4fbfca29d0c27a9afbcbf4124f17e483f7056d969b4d5e215e65bd07c0482604051610cc39190611b45565b60405180910390a15050565b5f7f01ffc9a7000000000000000000000000000000000000000000000000000000007bffffffffffffffffffffffffffffffffffffffffffffffffffffffff1916827bffffffffffffffffffffffffffffffffffffffffffffffffffffffff1916149050919050565b5f33905090565b5f73ffffffffffffffffffffffffffffffffffffffff168373ffffffffffffffffffffffffffffffffffffffff1603610dad576040517f08c379a0000000000000000000000000000000000000000000000000000000008152600401610da4906120ad565b60405180910390fd5b5f73ffffffffffffffffffffffffffffffffffffffff168273ffffffffffffffffffffffffffffffffffffffff1603610e1b576040517f08c379a0000000000000000000000000000000000000000000000000000000008152600401610e129061213b565b60405180910390fd5b8060015f8573ffffffffffffffffffffffffffffffffffffffff1673ffffffffffffffffffffffffffffffffffffffff1681526020019081526020015f205f8473ffffffffffffffffffffffffffffffffffffffff1673ffffffffffffffffffffffffffffffffffffffff1681526020019081526020015f20819055508173ffffffffffffffffffffffffffffffffffffffff168373ffffffffffffffffffffffffffffffffffffffff167f8c5be1e5ebec7d5bd14f71427d1e84f3dd0314c0f7b2291e5b200ac8c7c3b92583604051610ef59190611b45565b60405180910390a3505050565b5f610f0d8484610bbb565b90507fffffffffffffffffffffffffffffffffffffffffffffffffffffffffffffffff8114610f875781811015610f79576040517f08c379a0000000000000000000000000000000000000000000000000000000008152600401610f70906121a3565b60405180910390fd5b610f868484848403610d3f565b5b50505050565b5f73ffffffffffffffffffffffffffffffffffffffff168373ffffffffffffffffffffffffffffffffffffffff1603610ffb576040517f08c379a0000000000000000000000000000000000000000000000000000000008152600401610ff290612231565b60405180910390fd5b5f73ffffffffffffffffffffffffffffffffffffffff168273ffffffffffffffffffffffffffffffffffffffff1603611069576040517f08c379a0000000000000000000000000000000000000000000000000000000008152600401611060906122bf565b60405180910390fd5b611074838383611649565b5f805f8573ffffffffffffffffffffffffffffffffffffffff1673ffffffffffffffffffffffffffffffffffffffff1681526020019081526020015f20549050818110156110f7576040517f08c379a00000000000000000000000000000000000000000000000000000000081526004016110ee9061234d565b60405180910390fd5b8181035f808673ffffffffffffffffffffffffffffffffffffffff1673ffffffffffffffffffffffffffffffffffffffff1681526020019081526020015f2081905550815f808573ffffffffffffffffffffffffffffffffffffffff1673ffffffffffffffffffffffffffffffffffffffff1681526020019081526020015f205f82825401925050819055508273ffffffffffffffffffffffffffffffffffffffff168473ffffffffffffffffffffffffffffffffffffffff167fddf252ad1be2c89b69c2b068fc378daa952ba7f163c4a11628f55a4df523b3ef846040516111e09190611b45565b60405180910390a36111f384848461164e565b50505050565b61120a81611205610d38565b611653565b50565b61121782826109e5565b6112e457600160055f8481526020019081526020015f205f015f8373ffffffffffffffffffffffffffffffffffffffff1673ffffffffffffffffffffffffffffffffffffffff1681526020019081526020015f205f6101000a81548160ff021916908315150217905550611289610d38565b73ffffffffffffffffffffffffffffffffffffffff168173ffffffffffffffffffffffffffffffffffffffff16837f2f8788117e7eff1d82e926ec794901d17c78024a50270940304540a733656f0d60405160405180910390a45b5050565b6112f282826109e5565b156113bf575f60055f8481526020019081526020015f205f015f8373ffffffffffffffffffffffffffffffffffffffff1673ffffffffffffffffffffffffffffffffffffffff1681526020019081526020015f205f6101000a81548160ff021916908315150217905550611364610d38565b73ffffffffffffffffffffffffffffffffffffffff168173ffffffffffffffffffffffffffffffffffffffff16837ff6391f5c32d9c69d2a47ea670b442974b53935d1edc7fd64eb21e047a839171b60405160405180910390a45b5050565b6113cb6116d7565b5f60065f6101000a81548160ff0219169083151502179055507f5db9ee0a495bf2e6ff9c91a7834c1ba4fdd244a5e8aa4e537bd38aeae4b073aa61140d610d38565b60405161141a919061237a565b60405180910390a1565b5f73ffffffffffffffffffffffffffffffffffffffff168273ffffffffffffffffffffffffffffffffffffffff1603611492576040517f08c379a000000000000000000000000000000000000000000000000000000000815260040161148990612403565b60405180910390fd5b61149d825f83611649565b5f805f8473ffffffffffffffffffffffffffffffffffffffff1673ffffffffffffffffffffffffffffffffffffffff1681526020019081526020015f2054905081811015611520576040517f08c379a000000000000000000000000000000000000000000000000000000000815260040161151790612491565b60405180910390fd5b8181035f808573ffffffffffffffffffffffffffffffffffffffff1673ffffffffffffffffffffffffffffffffffffffff1681526020019081526020015f20819055508160025f82825403925050819055505f73ffffffffffffffffffffffffffffffffffffffff168373ffffffffffffffffffffffffffffffffffffffff167fddf252ad1be2c89b69c2b068fc378daa952ba7f163c4a11628f55a4df523b3ef846040516115cf9190611b45565b60405180910390a36115e2835f8461164e565b505050565b6115ef611720565b600160065f6101000a81548160ff0219169083151502179055507f62e78cea01bee320cd4e420270b5ea74000d11b0c9f74754ebdbfc544b05a258611632610d38565b60405161163f919061237a565b60405180910390a1565b505050565b505050565b61165d82826109e5565b6116d35761166a8161176a565b611677835f1c6020611797565b60405160200161168892919061257d565b6040516020818303038152906040526040517f08c379a00000000000000000000000000000000000000000000000000000000081526004016116ca9190611b0d565b60405180910390fd5b5050565b6116df610954565b61171e576040517f08c379a000000000000000000000000000000000000000000000000000000000815260040161171590612600565b60405180910390fd5b565b611728610954565b15611768576040517f08c379a000000000000000000000000000000000000000000000000000000000815260040161175f90612668565b60405180910390fd5b565b60606117908273ffffffffffffffffffffffffffffffffffffffff16601460ff16611797565b9050919050565b60605f60028360026117a99190612686565b6117b39190611f14565b67ffffffffffffffff8111156117cc576117cb6126c7565b5b6040519080825280601f01601f1916602001820160405280156117fe5781602001600182028036833780820191505090505b5090507f3000000000000000000000000000000000000000000000000000000000000000815f81518110611835576118346126f4565b5b60200101907effffffffffffffffffffffffffffffffffffffffffffffffffffffffffffff191690815f1a9053507f780000000000000000000000000000000000000000000000000000000000000081600181518110611898576118976126f4565b5b60200101907effffffffffffffffffffffffffffffffffffffffffffffffffffffffffffff191690815f1a9053505f60018460026118d69190612686565b6118e09190611f14565b90505b600181111561197f577f3031323334353637383961626364656600000000000000000000000000000000600f861660108110611922576119216126f4565b5b1a60f81b828281518110611939576119386126f4565b5b60200101907effffffffffffffffffffffffffffffffffffffffffffffffffffffffffffff191690815f1a905350600485901c94508061197890612721565b90506118e3565b505f84146119c2576040517f08c379a00000000000000000000000000000000000000000000000000000000081526004016119b990612792565b60405180910390fd5b8091505092915050565b5f80fd5b5f7fffffffff0000000000000000000000000000000000000000000000000000000082169050919050565b611a04816119d0565b8114611a0e575f80fd5b50565b5f81359050611a1f816119fb565b92915050565b5f60208284031215611a3a57611a396119cc565b5b5f611a4784828501611a11565b91505092915050565b5f8115159050919050565b611a6481611a50565b82525050565b5f602082019050611a7d5f830184611a5b565b92915050565b5f81519050919050565b5f82825260208201905092915050565b5f5b83811015611aba578082015181840152602081019050611a9f565b5f8484015250505050565b5f601f19601f8301169050919050565b5f611adf82611a83565b611ae98185611a8d565b9350611af9818560208601611a9d565b611b0281611ac5565b840191505092915050565b5f6020820190508181035f830152611b258184611ad5565b905092915050565b5f819050919050565b611b3f81611b2d565b82525050565b5f602082019050611b585f830184611b36565b92915050565b5f73ffffffffffffffffffffffffffffffffffffffff82169050919050565b5f611b8782611b5e565b9050919050565b611b9781611b7d565b8114611ba1575f80fd5b50565b5f81359050611bb281611b8e565b92915050565b611bc181611b2d565b8114611bcb575f80fd5b50565b5f81359050611bdc81611bb8565b92915050565b5f8060408385031215611bf857611bf76119cc565b5b5f611c0585828601611ba4565b9250506020611c1685828601611bce565b9150509250929050565b5f805f60608486031215611c3757611c366119cc565b5b5f611c4486828701611ba4565b9350506020611c5586828701611ba4565b9250506040611c6686828701611bce565b9150509250925092565b5f819050919050565b611c8281611c70565b8114611c8c575f80fd5b50565b5f81359050611c9d81611c79565b92915050565b5f60208284031215611cb857611cb76119cc565b5b5f611cc584828501611c8f565b91505092915050565b611cd781611c70565b82525050565b5f602082019050611cf05f830184611cce565b92915050565b5f8060408385031215611d0c57611d0b6119cc565b5b5f611d1985828601611c8f565b9250506020611d2a85828601611ba4565b9150509250929050565b5f60ff82169050919050565b611d4981611d34565b82525050565b5f602082019050611d625f830184611d40565b92915050565b5f60208284031215611d7d57611d7c6119cc565b5b5f611d8a84828501611bce565b91505092915050565b5f60208284031215611da857611da76119cc565b5b5f611db584828501611ba4565b91505092915050565b5f8060408385031215611dd457611dd36119cc565b5b5f611de185828601611ba4565b9250506020611df285828601611ba4565b9150509250929050565b7f4e487b71000000000000000000000000000000000000000000000000000000005f52602260045260245ffd5b5f6002820490506001821680611e4057607f821691505b602082108103611e5357611e52611dfc565b5b50919050565b7f416363657373436f6e74726f6c3a2063616e206f6e6c792072656e6f756e63655f8201527f20726f6c657320666f722073656c660000000000000000000000000000000000602082015250565b5f611eb3602f83611a8d565b9150611ebe82611e59565b604082019050919050565b5f6020820190508181035f830152611ee081611ea7565b9050919050565b7f4e487b71000000000000000000000000000000000000000000000000000000005f52601160045260245ffd5b5f611f1e82611b2d565b9150611f2983611b2d565b9250828201905080821115611f4157611f40611ee7565b5b92915050565b7f45524332303a2064656372656173656420616c6c6f77616e63652062656c6f775f8201527f207a65726f000000000000000000000000000000000000000000000000000000602082015250565b5f611fa1602583611a8d565b9150611fac82611f47565b604082019050919050565b5f6020820190508181035f830152611fce81611f95565b9050919050565b7f4665652070657263656e74206d757374206265203c3d203130000000000000005f82015250565b5f612009601983611a8d565b915061201482611fd5565b602082019050919050565b5f6020820190508181035f83015261203681611ffd565b9050919050565b7f45524332303a20617070726f76652066726f6d20746865207a65726f206164645f8201527f7265737300000000000000000000000000000000000000000000000000000000602082015250565b5f612097602483611a8d565b91506120a28261203d565b604082019050919050565b5f6020820190508181035f8301526120c48161208b565b9050919050565b7f45524332303a20617070726f766520746f20746865207a65726f2061646472655f8201527f7373000000000000000000000000000000000000000000000000000000000000602082015250565b5f612125602283611a8d565b9150612130826120cb565b604082019050919050565b5f6020820190508181035f83015261215281612119565b9050919050565b7f45524332303a20696e73756666696369656e7420616c6c6f77616e63650000005f82015250565b5f61218d601d83611a8d565b915061219882612159565b602082019050919050565b5f6020820190508181035f8301526121ba81612181565b9050919050565b7f45524332303a207472616e736665722066726f6d20746865207a65726f2061645f8201527f6472657373000000000000000000000000000000000000000000000000000000602082015250565b5f61221b602583611a8d565b9150612226826121c1565b604082019050919050565b5f6020820190508181035f8301526122488161220f565b9050919050565b7f45524332303a207472616e7366657220746f20746865207a65726f20616464725f8201527f6573730000000000000000000000000000000000000000000000000000000000602082015250565b5f6122a9602383611a8d565b91506122b48261224f565b604082019050919050565b5f6020820190508181035f8301526122d68161229d565b9050919050565b7f45524332303a207472616e7366657220616d6f756e74206578636565647320625f8201527f616c616e63650000000000000000000000000000000000000000000000000000602082015250565b5f612337602683611a8d565b9150612342826122dd565b604082019050919050565b5f6020820190508181035f8301526123648161232b565b9050919050565b61237481611b7d565b82525050565b5f60208201905061238d5f83018461236b565b92915050565b7f45524332303a206275726e2066726f6d20746865207a65726f206164647265735f8201527f7300000000000000000000000000000000000000000000000000000000000000602082015250565b5f6123ed602183611a8d565b91506123f882612393565b604082019050919050565b5f6020820190508181035f83015261241a816123e1565b9050919050565b7f45524332303a206275726e20616d6f756e7420657863656564732062616c616e5f8201527f6365000000000000000000000000000000000000000000000000000000000000602082015250565b5f61247b602283611a8d565b915061248682612421565b604082019050919050565b5f6020820190508181035f8301526124a88161246f565b9050919050565b5f81905092915050565b7f416363657373436f6e74726f6c3a206163636f756e74200000000000000000005f82015250565b5f6124ed6017836124af565b91506124f8826124b9565b601782019050919050565b5f61250d82611a83565b61251781856124af565b9350612527818560208601611a9d565b80840191505092915050565b7f206973206d697373696e6720726f6c65200000000000000000000000000000005f82015250565b5f6125676011836124af565b915061257282612533565b601182019050919050565b5f612587826124e1565b91506125938285612503565b915061259e8261255b565b91506125aa8284612503565b91508190509392505050565b7f5061757361626c653a206e6f74207061757365640000000000000000000000005f82015250565b5f6125ea601483611a8d565b91506125f5826125b6565b602082019050919050565b5f6020820190508181035f830152612617816125de565b9050919050565b7f5061757361626c653a20706175736564000000000000000000000000000000005f82015250565b5f612652601083611a8d565b915061265d8261261e565b602082019050919050565b5f6020820190508181035f83015261267f81612646565b9050919050565b5f61269082611b2d565b915061269b83611b2d565b92508282026126a981611b2d565b915082820484148315176126c0576126bf611ee7565b5b5092915050565b7f4e487b71000000000000000000000000000000000000000000000000000000005f52604160045260245ffd5b7f4e487b71000000000000000000000000000000000000000000000000000000005f52603260045260245ffd5b5f61272b82611b2d565b91505f820361273d5761273c611ee7565b5b600182039050919050565b7f537472696e67733a20686578206c656e67746820696e73756666696369656e745f82015250565b5f61277c602083611a8d565b915061278782612748565b602082019050919050565b5f6020820190508181035f8301526127a981612770565b905091905056fea264697066735822122008c5520317cc02d293713209101b2df4252293de243a21e67f5be0e83a06530164736f6c63430008150033",
  "immutableReferences": {
    "1278": [
      {
        "length": 32,
        "start": 2124
      }
    ]
  },
  "source": "// SPDX-License-Identifier: MIT\npragma solidity ^0.8.18;\n\nimport \"@openzeppelin/contracts/token/ERC20/ERC20.sol\";\nimport \"@openzeppelin/contracts/token/ERC20/extensions/ERC20Capped.sol\";\nimport \"@openzeppelin/contracts/token/ERC20/extensions/ERC20Burnable.sol\";\nimport \"@openzeppelin/contracts/access/AccessControl.sol\";\nimport \"@openzeppelin/contracts/security/Pausable.sol\";\nimport \"@openzeppelin/contracts/security/ReentrancyGuard.sol\";\nimport \"@openzeppelin/contracts/utils/math/SafeMath.sol\";\n\n\n\ncontract BlackPaperToken is ERC20Capped, ERC20Burnable, AccessControl, Pausable, ReentrancyGuard {\n    //using SafeMath for uint256;\n\n    uint256 private _maxTotalSupply = 100000000000000 * 10**decimals();\n    uint256 private _initialSupply = 370000000 * 10**decimals();\n    uint256 private _buybackFeePercent = 2;\n\n    bytes32 public constant MINTER_ROLE = keccak256(\"MINTER_ROLE\");\n\n\n    event BuybackFeeChanged(uint256 newFeePercent);\n\n    constructor() ERC20Capped(_maxTotalSupply) ERC20(\"BlackPaperToken\", \"HRDZ\") {\n        require(_initialSupply > 0, \"Initial supply must be greater than zero\");\n        _mint(msg.sender, _initialSupply);\n        _setupRole(DEFAULT_ADMIN_ROLE, msg.sender);\n        _setupRole(MINTER_ROLE, msg.sender);\n\n    }\n\n    function _mint(address account, uint256 amount) internal override(ERC20, ERC20Capped) {\n        super._mint(account, amount);  // Here we're calling the _mint function from ERC20Capped\n    }\n    \n    function setBuybackFeePercent(uint256 newFeePercent) external onlyRole(DEFAULT_ADMIN_ROLE) {\n        require(newFeePercent <= 10, \"Fee percent must be <= 10\");\n        _buybackFeePercent = newFeePercent;\n        emit BuybackFeeChanged(newFeePercent);\n    }\n\n    function getBuybackFeePercent() external view returns (uint256) {\n        return _buybackFeePercent;\n    }\n\n    function pause() external onlyRole(DEFAULT_ADMIN_ROLE) {\n        _pause();\n    }\n\n    function unpause() external onlyRole(DEFAULT_ADMIN_ROLE) {\n        _unpause();\n    }\n    \n\n\n    receive() external payable {}\n}",
  "sourcePath": "/home/deb/Documents/Programming/ERC20Tokens/erc20-token-003/BlackPaperToken/contracts/BlackPaperToken.sol",
  "compiler": {
    "name": "solc",
    "version": "0.8.21+commit.d9974bed.Emscripten.clang"
  },
  "schemaVersion": "3.4.15",
  "updatedAt": "2023-09-04T09:53:30.452Z",
  "devdoc": {
    "events": {
      "Approval(address,address,uint256)": {
        "details": "Emitted when the allowance of a `spender` for an `owner` is set by a call to {approve}. `value` is the new allowance."
      },
      "Paused(address)": {
        "details": "Emitted when the pause is triggered by `account`."
      },
      "RoleAdminChanged(bytes32,bytes32,bytes32)": {
        "details": "Emitted when `newAdminRole` is set as ``role``'s admin role, replacing `previousAdminRole` `DEFAULT_ADMIN_ROLE` is the starting admin for all roles, despite {RoleAdminChanged} not being emitted signaling this. _Available since v3.1._"
      },
      "RoleGranted(bytes32,address,address)": {
        "details": "Emitted when `account` is granted `role`. `sender` is the account that originated the contract call, an admin role bearer except when using {AccessControl-_setupRole}."
      },
      "RoleRevoked(bytes32,address,address)": {
        "details": "Emitted when `account` is revoked `role`. `sender` is the account that originated the contract call:   - if using `revokeRole`, it is the admin role bearer   - if using `renounceRole`, it is the role bearer (i.e. `account`)"
      },
      "Transfer(address,address,uint256)": {
        "details": "Emitted when `value` tokens are moved from one account (`from`) to another (`to`). Note that `value` may be zero."
      },
      "Unpaused(address)": {
        "details": "Emitted when the pause is lifted by `account`."
      }
    },
    "kind": "dev",
    "methods": {
      "allowance(address,address)": {
        "details": "See {IERC20-allowance}."
      },
      "approve(address,uint256)": {
        "details": "See {IERC20-approve}. NOTE: If `amount` is the maximum `uint256`, the allowance is not updated on `transferFrom`. This is semantically equivalent to an infinite approval. Requirements: - `spender` cannot be the zero address."
      },
      "balanceOf(address)": {
        "details": "See {IERC20-balanceOf}."
      },
      "burn(uint256)": {
        "details": "Destroys `amount` tokens from the caller. See {ERC20-_burn}."
      },
      "burnFrom(address,uint256)": {
        "details": "Destroys `amount` tokens from `account`, deducting from the caller's allowance. See {ERC20-_burn} and {ERC20-allowance}. Requirements: - the caller must have allowance for ``accounts``'s tokens of at least `amount`."
      },
      "cap()": {
        "details": "Returns the cap on the token's total supply."
      },
      "decimals()": {
        "details": "Returns the number of decimals used to get its user representation. For example, if `decimals` equals `2`, a balance of `505` tokens should be displayed to a user as `5.05` (`505 / 10 ** 2`). Tokens usually opt for a value of 18, imitating the relationship between Ether and Wei. This is the default value returned by this function, unless it's overridden. NOTE: This information is only used for _display_ purposes: it in no way affects any of the arithmetic of the contract, including {IERC20-balanceOf} and {IERC20-transfer}."
      },
      "decreaseAllowance(address,uint256)": {
        "details": "Atomically decreases the allowance granted to `spender` by the caller. This is an alternative to {approve} that can be used as a mitigation for problems described in {IERC20-approve}. Emits an {Approval} event indicating the updated allowance. Requirements: - `spender` cannot be the zero address. - `spender` must have allowance for the caller of at least `subtractedValue`."
      },
      "getRoleAdmin(bytes32)": {
        "details": "Returns the admin role that controls `role`. See {grantRole} and {revokeRole}. To change a role's admin, use {_setRoleAdmin}."
      },
      "grantRole(bytes32,address)": {
        "details": "Grants `role` to `account`. If `account` had not been already granted `role`, emits a {RoleGranted} event. Requirements: - the caller must have ``role``'s admin role. May emit a {RoleGranted} event."
      },
      "hasRole(bytes32,address)": {
        "details": "Returns `true` if `account` has been granted `role`."
      },
      "increaseAllowance(address,uint256)": {
        "details": "Atomically increases the allowance granted to `spender` by the caller. This is an alternative to {approve} that can be used as a mitigation for problems described in {IERC20-approve}. Emits an {Approval} event indicating the updated allowance. Requirements: - `spender` cannot be the zero address."
      },
      "name()": {
        "details": "Returns the name of the token."
      },
      "paused()": {
        "details": "Returns true if the contract is paused, and false otherwise."
      },
      "renounceRole(bytes32,address)": {
        "details": "Revokes `role` from the calling account. Roles are often managed via {grantRole} and {revokeRole}: this function's purpose is to provide a mechanism for accounts to lose their privileges if they are compromised (such as when a trusted device is misplaced). If the calling account had been revoked `role`, emits a {RoleRevoked} event. Requirements: - the caller must be `account`. May emit a {RoleRevoked} event."
      },
      "revokeRole(bytes32,address)": {
        "details": "Revokes `role` from `account`. If `account` had been granted `role`, emits a {RoleRevoked} event. Requirements: - the caller must have ``role``'s admin role. May emit a {RoleRevoked} event."
      },
      "supportsInterface(bytes4)": {
        "details": "See {IERC165-supportsInterface}."
      },
      "symbol()": {
        "details": "Returns the symbol of the token, usually a shorter version of the name."
      },
      "totalSupply()": {
        "details": "See {IERC20-totalSupply}."
      },
      "transfer(address,uint256)": {
        "details": "See {IERC20-transfer}. Requirements: - `to` cannot be the zero address. - the caller must have a balance of at least `amount`."
      },
      "transferFrom(address,address,uint256)": {
        "details": "See {IERC20-transferFrom}. Emits an {Approval} event indicating the updated allowance. This is not required by the EIP. See the note at the beginning of {ERC20}. NOTE: Does not update the allowance if the current allowance is the maximum `uint256`. Requirements: - `from` and `to` cannot be the zero address. - `from` must have a balance of at least `amount`. - the caller must have allowance for ``from``'s tokens of at least `amount`."
      }
    },
    "version": 1
  },
  "userdoc": {
    "kind": "user",
    "methods": {},
    "version": 1
  }
}