{
  "contractName": "Pherdz",
  "abi": [
    {
      "inputs": [
        {
          "internalType": "address",
          "name": "_uniswapRouterAddress",
          "type": "address"
        }
      ],
      "stateMutability": "nonpayable",
      "type": "constructor"
    },
    {
      "anonymous": false,
      "inputs": [
        {
          "indexed": true,
          "internalType": "address",
          "name": "owner",
          "type": "address"
        },
        {
          "indexed": true,
          "internalType": "address",
          "name": "spender",
          "type": "address"
        },
        {
          "indexed": false,
          "internalType": "uint256",
          "name": "value",
          "type": "uint256"
        }
      ],
      "name": "Approval",
      "type": "event"
    },
    {
      "anonymous": false,
      "inputs": [
        {
          "indexed": false,
          "internalType": "uint256",
          "name": "newFeePercent",
          "type": "uint256"
        }
      ],
      "name": "BuybackFeeChanged",
      "type": "event"
    },
    {
      "anonymous": false,
      "inputs": [
        {
          "indexed": true,
          "internalType": "address",
          "name": "recipient",
          "type": "address"
        },
        {
          "indexed": false,
          "internalType": "uint256",
          "name": "amount",
          "type": "uint256"
        }
      ],
      "name": "EtherWithdrawn",
      "type": "event"
    },
    {
      "anonymous": false,
      "inputs": [
        {
          "indexed": false,
          "internalType": "address",
          "name": "account",
          "type": "address"
        }
      ],
      "name": "Paused",
      "type": "event"
    },
    {
      "anonymous": false,
      "inputs": [
        {
          "indexed": true,
          "internalType": "bytes32",
          "name": "role",
          "type": "bytes32"
        },
        {
          "indexed": true,
          "internalType": "bytes32",
          "name": "previousAdminRole",
          "type": "bytes32"
        },
        {
          "indexed": true,
          "internalType": "bytes32",
          "name": "newAdminRole",
          "type": "bytes32"
        }
      ],
      "name": "RoleAdminChanged",
      "type": "event"
    },
    {
      "anonymous": false,
      "inputs": [
        {
          "indexed": true,
          "internalType": "bytes32",
          "name": "role",
          "type": "bytes32"
        },
        {
          "indexed": true,
          "internalType": "address",
          "name": "account",
          "type": "address"
        },
        {
          "indexed": true,
          "internalType": "address",
          "name": "sender",
          "type": "address"
        }
      ],
      "name": "RoleGranted",
      "type": "event"
    },
    {
      "anonymous": false,
      "inputs": [
        {
          "indexed": true,
          "internalType": "bytes32",
          "name": "role",
          "type": "bytes32"
        },
        {
          "indexed": true,
          "internalType": "address",
          "name": "account",
          "type": "address"
        },
        {
          "indexed": true,
          "internalType": "address",
          "name": "sender",
          "type": "address"
        }
      ],
      "name": "RoleRevoked",
      "type": "event"
    },
    {
      "anonymous": false,
      "inputs": [
        {
          "indexed": true,
          "internalType": "address",
          "name": "from",
          "type": "address"
        },
        {
          "indexed": true,
          "internalType": "address",
          "name": "to",
          "type": "address"
        },
        {
          "indexed": false,
          "internalType": "uint256",
          "name": "value",
          "type": "uint256"
        }
      ],
      "name": "Transfer",
      "type": "event"
    },
    {
      "anonymous": false,
      "inputs": [
        {
          "indexed": false,
          "internalType": "address",
          "name": "newRouterAddress",
          "type": "address"
        }
      ],
      "name": "UniswapRouterUpdated",
      "type": "event"
    },
    {
      "anonymous": false,
      "inputs": [
        {
          "indexed": false,
          "internalType": "address",
          "name": "account",
          "type": "address"
        }
      ],
      "name": "Unpaused",
      "type": "event"
    },
    {
      "inputs": [],
      "name": "DEFAULT_ADMIN_ROLE",
      "outputs": [
        {
          "internalType": "bytes32",
          "name": "",
          "type": "bytes32"
        }
      ],
      "stateMutability": "view",
      "type": "function"
    },
    {
      "inputs": [],
      "name": "MINTER_ROLE",
      "outputs": [
        {
          "internalType": "bytes32",
          "name": "",
          "type": "bytes32"
        }
      ],
      "stateMutability": "view",
      "type": "function"
    },
    {
      "inputs": [
        {
          "internalType": "address",
          "name": "owner",
          "type": "address"
        },
        {
          "internalType": "address",
          "name": "spender",
          "type": "address"
        }
      ],
      "name": "allowance",
      "outputs": [
        {
          "internalType": "uint256",
          "name": "",
          "type": "uint256"
        }
      ],
      "stateMutability": "view",
      "type": "function"
    },
    {
      "inputs": [
        {
          "internalType": "address",
          "name": "spender",
          "type": "address"
        },
        {
          "internalType": "uint256",
          "name": "amount",
          "type": "uint256"
        }
      ],
      "name": "approve",
      "outputs": [
        {
          "internalType": "bool",
          "name": "",
          "type": "bool"
        }
      ],
      "stateMutability": "nonpayable",
      "type": "function"
    },
    {
      "inputs": [
        {
          "internalType": "address",
          "name": "account",
          "type": "address"
        }
      ],
      "name": "balanceOf",
      "outputs": [
        {
          "internalType": "uint256",
          "name": "",
          "type": "uint256"
        }
      ],
      "stateMutability": "view",
      "type": "function"
    },
    {
      "inputs": [
        {
          "internalType": "uint256",
          "name": "amount",
          "type": "uint256"
        }
      ],
      "name": "burn",
      "outputs": [],
      "stateMutability": "nonpayable",
      "type": "function"
    },
    {
      "inputs": [
        {
          "internalType": "address",
          "name": "account",
          "type": "address"
        },
        {
          "internalType": "uint256",
          "name": "amount",
          "type": "uint256"
        }
      ],
      "name": "burnFrom",
      "outputs": [],
      "stateMutability": "nonpayable",
      "type": "function"
    },
    {
      "inputs": [],
      "name": "cap",
      "outputs": [
        {
          "internalType": "uint256",
          "name": "",
          "type": "uint256"
        }
      ],
      "stateMutability": "view",
      "type": "function"
    },
    {
      "inputs": [],
      "name": "decimals",
      "outputs": [
        {
          "internalType": "uint8",
          "name": "",
          "type": "uint8"
        }
      ],
      "stateMutability": "view",
      "type": "function"
    },
    {
      "inputs": [
        {
          "internalType": "address",
          "name": "spender",
          "type": "address"
        },
        {
          "internalType": "uint256",
          "name": "subtractedValue",
          "type": "uint256"
        }
      ],
      "name": "decreaseAllowance",
      "outputs": [
        {
          "internalType": "bool",
          "name": "",
          "type": "bool"
        }
      ],
      "stateMutability": "nonpayable",
      "type": "function"
    },
    {
      "inputs": [
        {
          "internalType": "bytes32",
          "name": "role",
          "type": "bytes32"
        }
      ],
      "name": "getRoleAdmin",
      "outputs": [
        {
          "internalType": "bytes32",
          "name": "",
          "type": "bytes32"
        }
      ],
      "stateMutability": "view",
      "type": "function"
    },
    {
      "inputs": [
        {
          "internalType": "bytes32",
          "name": "role",
          "type": "bytes32"
        },
        {
          "internalType": "address",
          "name": "account",
          "type": "address"
        }
      ],
      "name": "grantRole",
      "outputs": [],
      "stateMutability": "nonpayable",
      "type": "function"
    },
    {
      "inputs": [
        {
          "internalType": "bytes32",
          "name": "role",
          "type": "bytes32"
        },
        {
          "internalType": "address",
          "name": "account",
          "type": "address"
        }
      ],
      "name": "hasRole",
      "outputs": [
        {
          "internalType": "bool",
          "name": "",
          "type": "bool"
        }
      ],
      "stateMutability": "view",
      "type": "function"
    },
    {
      "inputs": [
        {
          "internalType": "address",
          "name": "spender",
          "type": "address"
        },
        {
          "internalType": "uint256",
          "name": "addedValue",
          "type": "uint256"
        }
      ],
      "name": "increaseAllowance",
      "outputs": [
        {
          "internalType": "bool",
          "name": "",
          "type": "bool"
        }
      ],
      "stateMutability": "nonpayable",
      "type": "function"
    },
    {
      "inputs": [],
      "name": "name",
      "outputs": [
        {
          "internalType": "string",
          "name": "",
          "type": "string"
        }
      ],
      "stateMutability": "view",
      "type": "function"
    },
    {
      "inputs": [],
      "name": "paused",
      "outputs": [
        {
          "internalType": "bool",
          "name": "",
          "type": "bool"
        }
      ],
      "stateMutability": "view",
      "type": "function"
    },
    {
      "inputs": [
        {
          "internalType": "bytes32",
          "name": "role",
          "type": "bytes32"
        },
        {
          "internalType": "address",
          "name": "account",
          "type": "address"
        }
      ],
      "name": "renounceRole",
      "outputs": [],
      "stateMutability": "nonpayable",
      "type": "function"
    },
    {
      "inputs": [
        {
          "internalType": "bytes32",
          "name": "role",
          "type": "bytes32"
        },
        {
          "internalType": "address",
          "name": "account",
          "type": "address"
        }
      ],
      "name": "revokeRole",
      "outputs": [],
      "stateMutability": "nonpayable",
      "type": "function"
    },
    {
      "inputs": [
        {
          "internalType": "bytes4",
          "name": "interfaceId",
          "type": "bytes4"
        }
      ],
      "name": "supportsInterface",
      "outputs": [
        {
          "internalType": "bool",
          "name": "",
          "type": "bool"
        }
      ],
      "stateMutability": "view",
      "type": "function"
    },
    {
      "inputs": [],
      "name": "symbol",
      "outputs": [
        {
          "internalType": "string",
          "name": "",
          "type": "string"
        }
      ],
      "stateMutability": "view",
      "type": "function"
    },
    {
      "inputs": [],
      "name": "totalSupply",
      "outputs": [
        {
          "internalType": "uint256",
          "name": "",
          "type": "uint256"
        }
      ],
      "stateMutability": "view",
      "type": "function"
    },
    {
      "inputs": [
        {
          "internalType": "address",
          "name": "to",
          "type": "address"
        },
        {
          "internalType": "uint256",
          "name": "amount",
          "type": "uint256"
        }
      ],
      "name": "transfer",
      "outputs": [
        {
          "internalType": "bool",
          "name": "",
          "type": "bool"
        }
      ],
      "stateMutability": "nonpayable",
      "type": "function"
    },
    {
      "inputs": [
        {
          "internalType": "address",
          "name": "from",
          "type": "address"
        },
        {
          "internalType": "address",
          "name": "to",
          "type": "address"
        },
        {
          "internalType": "uint256",
          "name": "amount",
          "type": "uint256"
        }
      ],
      "name": "transferFrom",
      "outputs": [
        {
          "internalType": "bool",
          "name": "",
          "type": "bool"
        }
      ],
      "stateMutability": "nonpayable",
      "type": "function"
    },
    {
      "inputs": [],
      "name": "uniswapRouter",
      "outputs": [
        {
          "internalType": "contract IUniswapV2Router",
          "name": "",
          "type": "address"
        }
      ],
      "stateMutability": "view",
      "type": "function"
    },
    {
      "stateMutability": "payable",
      "type": "receive"
    },
    {
      "inputs": [
        {
          "internalType": "address",
          "name": "newRouterAddress",
          "type": "address"
        }
      ],
      "name": "updateUniswapRouter",
      "outputs": [],
      "stateMutability": "nonpayable",
      "type": "function"
    },
    {
      "inputs": [
        {
          "internalType": "address payable",
          "name": "recipient",
          "type": "address"
        },
        {
          "internalType": "uint256",
          "name": "amount",
          "type": "uint256"
        }
      ],
      "name": "withdrawEther",
      "outputs": [],
      "stateMutability": "nonpayable",
      "type": "function"
    }
  ],
  "bytecode": "0x60a0604052620000146200035d60201b60201c565b600a62000022919062000882565b655af3107a4000620000359190620008d2565b600855620000486200035d60201b60201c565b600a62000056919062000882565b63160dc080620000679190620008d2565b6009556002600a553480156200007b575f80fd5b50604051620037c0380380620037c08339818101604052810190620000a1919062000981565b6008546040518060400160405280600681526020017f50686572647a00000000000000000000000000000000000000000000000000008152506040518060400160405280600481526020017f4852445a00000000000000000000000000000000000000000000000000000000815250816003908162000121919062000c0c565b50806004908162000133919062000c0c565b5050505f81116200017b576040517f08c379a0000000000000000000000000000000000000000000000000000000008152600401620001729062000d4e565b60405180910390fd5b8060808181525050505f60065f6101000a81548160ff02191690831515021790555060016007819055505f60095411620001ec576040517f08c379a0000000000000000000000000000000000000000000000000000000008152600401620001e39062000de2565b60405180910390fd5b62000200336009546200036560201b60201c565b620002145f801b336200037b60201b60201c565b620002467f9f2df0fed2c77648de5860a4cc508cd0818c85b8b8a1ab4ceeef8d981c8956a6336200037b60201b60201c565b80600b5f6101000a81548173ffffffffffffffffffffffffffffffffffffffff021916908373ffffffffffffffffffffffffffffffffffffffff160217905550600b5f9054906101000a900473ffffffffffffffffffffffffffffffffffffffff1673ffffffffffffffffffffffffffffffffffffffff1663ad5c46486040518163ffffffff1660e01b8152600401602060405180830381865afa158015620002f1573d5f803e3d5ffd5b505050506040513d601f19601f8201168201806040525081019062000317919062000981565b600c5f6101000a81548173ffffffffffffffffffffffffffffffffffffffff021916908373ffffffffffffffffffffffffffffffffffffffff1602179055505062000f44565b5f6012905090565b6200037782826200039160201b60201c565b5050565b6200038d82826200041860201b60201c565b5050565b620003a16200050460201b60201c565b81620003b26200050d60201b60201c565b620003be919062000e02565b111562000402576040517f08c379a0000000000000000000000000000000000000000000000000000000008152600401620003f99062000e8a565b60405180910390fd5b6200041482826200051660201b60201c565b5050565b6200042a82826200067b60201b60201c565b6200050057600160055f8481526020019081526020015f205f015f8373ffffffffffffffffffffffffffffffffffffffff1673ffffffffffffffffffffffffffffffffffffffff1681526020019081526020015f205f6101000a81548160ff021916908315150217905550620004a5620006df60201b60201c565b73ffffffffffffffffffffffffffffffffffffffff168173ffffffffffffffffffffffffffffffffffffffff16837f2f8788117e7eff1d82e926ec794901d17c78024a50270940304540a733656f0d60405160405180910390a45b5050565b5f608051905090565b5f600254905090565b5f73ffffffffffffffffffffffffffffffffffffffff168273ffffffffffffffffffffffffffffffffffffffff160362000587576040517f08c379a00000000000000000000000000000000000000000000000000000000081526004016200057e9062000ef8565b60405180910390fd5b6200059a5f8383620006e660201b60201c565b8060025f828254620005ad919062000e02565b92505081905550805f808473ffffffffffffffffffffffffffffffffffffffff1673ffffffffffffffffffffffffffffffffffffffff1681526020019081526020015f205f82825401925050819055508173ffffffffffffffffffffffffffffffffffffffff165f73ffffffffffffffffffffffffffffffffffffffff167fddf252ad1be2c89b69c2b068fc378daa952ba7f163c4a11628f55a4df523b3ef836040516200065c919062000f29565b60405180910390a3620006775f8383620006eb60201b60201c565b5050565b5f60055f8481526020019081526020015f205f015f8373ffffffffffffffffffffffffffffffffffffffff1673ffffffffffffffffffffffffffffffffffffffff1681526020019081526020015f205f9054906101000a900460ff16905092915050565b5f33905090565b505050565b505050565b7f4e487b71000000000000000000000000000000000000000000000000000000005f52601160045260245ffd5b5f8160011c9050919050565b5f808291508390505b60018511156200077a57808604811115620007525762000751620006f0565b5b6001851615620007625780820291505b808102905062000772856200071d565b945062000732565b94509492505050565b5f8262000794576001905062000866565b81620007a3575f905062000866565b8160018114620007bc5760028114620007c757620007fd565b600191505062000866565b60ff841115620007dc57620007db620006f0565b5b8360020a915084821115620007f657620007f5620006f0565b5b5062000866565b5060208310610133831016604e8410600b8410161715620008375782820a905083811115620008315762000830620006f0565b5b62000866565b62000846848484600162000729565b9250905081840481111562000860576200085f620006f0565b5b81810290505b9392505050565b5f819050919050565b5f60ff82169050919050565b5f6200088e826200086d565b91506200089b8362000876565b9250620008ca7fffffffffffffffffffffffffffffffffffffffffffffffffffffffffffffffff848462000783565b905092915050565b5f620008de826200086d565b9150620008eb836200086d565b9250828202620008fb816200086d565b91508282048414831517620009155762000914620006f0565b5b5092915050565b5f80fd5b5f73ffffffffffffffffffffffffffffffffffffffff82169050919050565b5f6200094b8262000920565b9050919050565b6200095d816200093f565b811462000968575f80fd5b50565b5f815190506200097b8162000952565b92915050565b5f602082840312156200099957620009986200091c565b5b5f620009a8848285016200096b565b91505092915050565b5f81519050919050565b7f4e487b71000000000000000000000000000000000000000000000000000000005f52604160045260245ffd5b7f4e487b71000000000000000000000000000000000000000000000000000000005f52602260045260245ffd5b5f600282049050600182168062000a2d57607f821691505b60208210810362000a435762000a42620009e8565b5b50919050565b5f819050815f5260205f209050919050565b5f6020601f8301049050919050565b5f82821b905092915050565b5f6008830262000aa77fffffffffffffffffffffffffffffffffffffffffffffffffffffffffffffffff8262000a6a565b62000ab3868362000a6a565b95508019841693508086168417925050509392505050565b5f819050919050565b5f62000af462000aee62000ae8846200086d565b62000acb565b6200086d565b9050919050565b5f819050919050565b62000b0f8362000ad4565b62000b2762000b1e8262000afb565b84845462000a76565b825550505050565b5f90565b62000b3d62000b2f565b62000b4a81848462000b04565b505050565b5b8181101562000b715762000b655f8262000b33565b60018101905062000b50565b5050565b601f82111562000bc05762000b8a8162000a49565b62000b958462000a5b565b8101602085101562000ba5578190505b62000bbd62000bb48562000a5b565b83018262000b4f565b50505b505050565b5f82821c905092915050565b5f62000be25f198460080262000bc5565b1980831691505092915050565b5f62000bfc838362000bd1565b9150826002028217905092915050565b62000c1782620009b1565b67ffffffffffffffff81111562000c335762000c32620009bb565b5b62000c3f825462000a15565b62000c4c82828562000b75565b5f60209050601f83116001811462000c82575f841562000c6d578287015190505b62000c79858262000bef565b86555062000ce8565b601f19841662000c928662000a49565b5f5b8281101562000cbb5784890151825560018201915060208501945060208101905062000c94565b8683101562000cdb578489015162000cd7601f89168262000bd1565b8355505b6001600288020188555050505b505050505050565b5f82825260208201905092915050565b7f45524332304361707065643a20636170206973203000000000000000000000005f82015250565b5f62000d3660158362000cf0565b915062000d438262000d00565b602082019050919050565b5f6020820190508181035f83015262000d678162000d28565b9050919050565b7f496e697469616c20737570706c79206d757374206265206772656174657220745f8201527f68616e207a65726f000000000000000000000000000000000000000000000000602082015250565b5f62000dca60288362000cf0565b915062000dd78262000d6e565b604082019050919050565b5f6020820190508181035f83015262000dfb8162000dbc565b9050919050565b5f62000e0e826200086d565b915062000e1b836200086d565b925082820190508082111562000e365762000e35620006f0565b5b92915050565b7f45524332304361707065643a20636170206578636565646564000000000000005f82015250565b5f62000e7260198362000cf0565b915062000e7f8262000e3c565b602082019050919050565b5f6020820190508181035f83015262000ea38162000e64565b9050919050565b7f45524332303a206d696e7420746f20746865207a65726f2061646472657373005f82015250565b5f62000ee0601f8362000cf0565b915062000eed8262000eaa565b602082019050919050565b5f6020820190508181035f83015262000f118162000ed2565b9050919050565b62000f23816200086d565b82525050565b5f60208201905062000f3e5f83018462000f18565b92915050565b60805161286362000f5d5f395f61082401526128635ff3fe608060405260043610610184575f3560e01c80635c975abb116100d057806395d89b4111610089578063a9059cbb11610063578063a9059cbb146105af578063d5391393146105eb578063d547741f14610615578063dd62ed3e1461063d5761018b565b806395d89b411461051f578063a217fddf14610549578063a457c2d7146105735761018b565b80635c975abb1461040357806370a082311461042d578063735de9f71461046957806379cc679014610493578063908bb2ae146104bb57806391d14854146104e35761018b565b80632f2ff15d1161013d57806336568abe1161011757806336568abe1461034f578063395093511461037757806342966c68146103b3578063522f6815146103db5761018b565b80632f2ff15d146102d3578063313ce567146102fb578063355274ea146103255761018b565b806301ffc9a71461018f57806306fdde03146101cb578063095ea7b3146101f557806318160ddd1461023157806323b872dd1461025b578063248a9ca3146102975761018b565b3661018b57005b5f80fd5b34801561019a575f80fd5b506101b560048036038101906101b09190611a46565b610679565b6040516101c29190611a8b565b60405180910390f35b3480156101d6575f80fd5b506101df6106f2565b6040516101ec9190611b2e565b60405180910390f35b348015610200575f80fd5b5061021b60048036038101906102169190611bdb565b610782565b6040516102289190611a8b565b60405180910390f35b34801561023c575f80fd5b506102456107a4565b6040516102529190611c28565b60405180910390f35b348015610266575f80fd5b50610281600480360381019061027c9190611c41565b6107ad565b60405161028e9190611a8b565b60405180910390f35b3480156102a2575f80fd5b506102bd60048036038101906102b89190611cc4565b6107db565b6040516102ca9190611cfe565b60405180910390f35b3480156102de575f80fd5b506102f960048036038101906102f49190611d17565b6107f8565b005b348015610306575f80fd5b5061030f610819565b60405161031c9190611d70565b60405180910390f35b348015610330575f80fd5b50610339610821565b6040516103469190611c28565b60405180910390f35b34801561035a575f80fd5b5061037560048036038101906103709190611d17565b610848565b005b348015610382575f80fd5b5061039d60048036038101906103989190611bdb565b6108cb565b6040516103aa9190611a8b565b60405180910390f35b3480156103be575f80fd5b506103d960048036038101906103d49190611d89565b610901565b005b3480156103e6575f80fd5b5061040160048036038101906103fc9190611def565b610915565b005b34801561040e575f80fd5b506104176109fb565b6040516104249190611a8b565b60405180910390f35b348015610438575f80fd5b50610453600480360381019061044e9190611e2d565b610a10565b6040516104609190611c28565b60405180910390f35b348015610474575f80fd5b5061047d610a55565b60405161048a9190611eb3565b60405180910390f35b34801561049e575f80fd5b506104b960048036038101906104b49190611bdb565b610a7a565b005b3480156104c6575f80fd5b506104e160048036038101906104dc9190611e2d565b610a9a565b005b3480156104ee575f80fd5b5061050960048036038101906105049190611d17565b610bee565b6040516105169190611a8b565b60405180910390f35b34801561052a575f80fd5b50610533610c52565b6040516105409190611b2e565b60405180910390f35b348015610554575f80fd5b5061055d610ce2565b60405161056a9190611cfe565b60405180910390f35b34801561057e575f80fd5b5061059960048036038101906105949190611bdb565b610ce8565b6040516105a69190611a8b565b60405180910390f35b3480156105ba575f80fd5b506105d560048036038101906105d09190611bdb565b610d5d565b6040516105e29190611a8b565b60405180910390f35b3480156105f6575f80fd5b506105ff610d7f565b60405161060c9190611cfe565b60405180910390f35b348015610620575f80fd5b5061063b60048036038101906106369190611d17565b610da3565b005b348015610648575f80fd5b50610663600480360381019061065e9190611ecc565b610dc4565b6040516106709190611c28565b60405180910390f35b5f7f7965db0b000000000000000000000000000000000000000000000000000000007bffffffffffffffffffffffffffffffffffffffffffffffffffffffff1916827bffffffffffffffffffffffffffffffffffffffffffffffffffffffff191614806106eb57506106ea82610e46565b5b9050919050565b60606003805461070190611f37565b80601f016020809104026020016040519081016040528092919081815260200182805461072d90611f37565b80156107785780601f1061074f57610100808354040283529160200191610778565b820191905f5260205f20905b81548152906001019060200180831161075b57829003601f168201915b5050505050905090565b5f8061078c610eaf565b9050610799818585610eb6565b600191505092915050565b5f600254905090565b5f806107b7610eaf565b90506107c4858285611079565b6107cf858585611104565b60019150509392505050565b5f60055f8381526020019081526020015f20600101549050919050565b610801826107db565b61080a81611370565b6108148383611384565b505050565b5f6012905090565b5f7f0000000000000000000000000000000000000000000000000000000000000000905090565b610850610eaf565b73ffffffffffffffffffffffffffffffffffffffff168173ffffffffffffffffffffffffffffffffffffffff16146108bd576040517f08c379a00000000000000000000000000000000000000000000000000000000081526004016108b490611fd7565b60405180910390fd5b6108c7828261145f565b5050565b5f806108d5610eaf565b90506108f68185856108e78589610dc4565b6108f19190612022565b610eb6565b600191505092915050565b61091261090c610eaf565b8261153a565b50565b5f801b61092181611370565b81471015610964576040517f08c379a000000000000000000000000000000000000000000000000000000000815260040161095b9061209f565b60405180910390fd5b8273ffffffffffffffffffffffffffffffffffffffff166108fc8390811502906040515f60405180830381858888f193505050501580156109a7573d5f803e3d5ffd5b508273ffffffffffffffffffffffffffffffffffffffff167f06097061aeda806b5e9cb4133d9899f332ff0913956567fc0f7ea15e3d19947c836040516109ee9190611c28565b60405180910390a2505050565b5f60065f9054906101000a900460ff16905090565b5f805f8373ffffffffffffffffffffffffffffffffffffffff1673ffffffffffffffffffffffffffffffffffffffff1681526020019081526020015f20549050919050565b600b5f9054906101000a900473ffffffffffffffffffffffffffffffffffffffff1681565b610a8c82610a86610eaf565b83611079565b610a96828261153a565b5050565b5f801b610aa681611370565b81600b5f6101000a81548173ffffffffffffffffffffffffffffffffffffffff021916908373ffffffffffffffffffffffffffffffffffffffff160217905550600b5f9054906101000a900473ffffffffffffffffffffffffffffffffffffffff1673ffffffffffffffffffffffffffffffffffffffff1663ad5c46486040518163ffffffff1660e01b8152600401602060405180830381865afa158015610b50573d5f803e3d5ffd5b505050506040513d601f19601f82011682018060405250810190610b7491906120d1565b600c5f6101000a81548173ffffffffffffffffffffffffffffffffffffffff021916908373ffffffffffffffffffffffffffffffffffffffff1602179055507f455a5e52b7c01aa52d717db42e17b6610b0c2c96560c85b7e5adcdd254bfc17c82604051610be2919061210b565b60405180910390a15050565b5f60055f8481526020019081526020015f205f015f8373ffffffffffffffffffffffffffffffffffffffff1673ffffffffffffffffffffffffffffffffffffffff1681526020019081526020015f205f9054906101000a900460ff16905092915050565b606060048054610c6190611f37565b80601f0160208091040260200160405190810160405280929190818152602001828054610c8d90611f37565b8015610cd85780601f10610caf57610100808354040283529160200191610cd8565b820191905f5260205f20905b815481529060010190602001808311610cbb57829003601f168201915b5050505050905090565b5f801b81565b5f80610cf2610eaf565b90505f610cff8286610dc4565b905083811015610d44576040517f08c379a0000000000000000000000000000000000000000000000000000000008152600401610d3b90612194565b60405180910390fd5b610d518286868403610eb6565b60019250505092915050565b5f80610d67610eaf565b9050610d74818585611104565b600191505092915050565b7f9f2df0fed2c77648de5860a4cc508cd0818c85b8b8a1ab4ceeef8d981c8956a681565b610dac826107db565b610db581611370565b610dbf838361145f565b505050565b5f60015f8473ffffffffffffffffffffffffffffffffffffffff1673ffffffffffffffffffffffffffffffffffffffff1681526020019081526020015f205f8373ffffffffffffffffffffffffffffffffffffffff1673ffffffffffffffffffffffffffffffffffffffff1681526020019081526020015f2054905092915050565b5f7f01ffc9a7000000000000000000000000000000000000000000000000000000007bffffffffffffffffffffffffffffffffffffffffffffffffffffffff1916827bffffffffffffffffffffffffffffffffffffffffffffffffffffffff1916149050919050565b5f33905090565b5f73ffffffffffffffffffffffffffffffffffffffff168373ffffffffffffffffffffffffffffffffffffffff1603610f24576040517f08c379a0000000000000000000000000000000000000000000000000000000008152600401610f1b90612222565b60405180910390fd5b5f73ffffffffffffffffffffffffffffffffffffffff168273ffffffffffffffffffffffffffffffffffffffff1603610f92576040517f08c379a0000000000000000000000000000000000000000000000000000000008152600401610f89906122b0565b60405180910390fd5b8060015f8573ffffffffffffffffffffffffffffffffffffffff1673ffffffffffffffffffffffffffffffffffffffff1681526020019081526020015f205f8473ffffffffffffffffffffffffffffffffffffffff1673ffffffffffffffffffffffffffffffffffffffff1681526020019081526020015f20819055508173ffffffffffffffffffffffffffffffffffffffff168373ffffffffffffffffffffffffffffffffffffffff167f8c5be1e5ebec7d5bd14f71427d1e84f3dd0314c0f7b2291e5b200ac8c7c3b9258360405161106c9190611c28565b60405180910390a3505050565b5f6110848484610dc4565b90507fffffffffffffffffffffffffffffffffffffffffffffffffffffffffffffffff81146110fe57818110156110f0576040517f08c379a00000000000000000000000000000000000000000000000000000000081526004016110e790612318565b60405180910390fd5b6110fd8484848403610eb6565b5b50505050565b5f73ffffffffffffffffffffffffffffffffffffffff168373ffffffffffffffffffffffffffffffffffffffff1603611172576040517f08c379a0000000000000000000000000000000000000000000000000000000008152600401611169906123a6565b60405180910390fd5b5f73ffffffffffffffffffffffffffffffffffffffff168273ffffffffffffffffffffffffffffffffffffffff16036111e0576040517f08c379a00000000000000000000000000000000000000000000000000000000081526004016111d790612434565b60405180910390fd5b6111eb8383836116fd565b5f805f8573ffffffffffffffffffffffffffffffffffffffff1673ffffffffffffffffffffffffffffffffffffffff1681526020019081526020015f205490508181101561126e576040517f08c379a0000000000000000000000000000000000000000000000000000000008152600401611265906124c2565b60405180910390fd5b8181035f808673ffffffffffffffffffffffffffffffffffffffff1673ffffffffffffffffffffffffffffffffffffffff1681526020019081526020015f2081905550815f808573ffffffffffffffffffffffffffffffffffffffff1673ffffffffffffffffffffffffffffffffffffffff1681526020019081526020015f205f82825401925050819055508273ffffffffffffffffffffffffffffffffffffffff168473ffffffffffffffffffffffffffffffffffffffff167fddf252ad1be2c89b69c2b068fc378daa952ba7f163c4a11628f55a4df523b3ef846040516113579190611c28565b60405180910390a361136a848484611702565b50505050565b6113818161137c610eaf565b611707565b50565b61138e8282610bee565b61145b57600160055f8481526020019081526020015f205f015f8373ffffffffffffffffffffffffffffffffffffffff1673ffffffffffffffffffffffffffffffffffffffff1681526020019081526020015f205f6101000a81548160ff021916908315150217905550611400610eaf565b73ffffffffffffffffffffffffffffffffffffffff168173ffffffffffffffffffffffffffffffffffffffff16837f2f8788117e7eff1d82e926ec794901d17c78024a50270940304540a733656f0d60405160405180910390a45b5050565b6114698282610bee565b15611536575f60055f8481526020019081526020015f205f015f8373ffffffffffffffffffffffffffffffffffffffff1673ffffffffffffffffffffffffffffffffffffffff1681526020019081526020015f205f6101000a81548160ff0219169083151502179055506114db610eaf565b73ffffffffffffffffffffffffffffffffffffffff168173ffffffffffffffffffffffffffffffffffffffff16837ff6391f5c32d9c69d2a47ea670b442974b53935d1edc7fd64eb21e047a839171b60405160405180910390a45b5050565b5f73ffffffffffffffffffffffffffffffffffffffff168273ffffffffffffffffffffffffffffffffffffffff16036115a8576040517f08c379a000000000000000000000000000000000000000000000000000000000815260040161159f90612550565b60405180910390fd5b6115b3825f836116fd565b5f805f8473ffffffffffffffffffffffffffffffffffffffff1673ffffffffffffffffffffffffffffffffffffffff1681526020019081526020015f2054905081811015611636576040517f08c379a000000000000000000000000000000000000000000000000000000000815260040161162d906125de565b60405180910390fd5b8181035f808573ffffffffffffffffffffffffffffffffffffffff1673ffffffffffffffffffffffffffffffffffffffff1681526020019081526020015f20819055508160025f82825403925050819055505f73ffffffffffffffffffffffffffffffffffffffff168373ffffffffffffffffffffffffffffffffffffffff167fddf252ad1be2c89b69c2b068fc378daa952ba7f163c4a11628f55a4df523b3ef846040516116e59190611c28565b60405180910390a36116f8835f84611702565b505050565b505050565b505050565b6117118282610bee565b6117875761171e8161178b565b61172b835f1c60206117b8565b60405160200161173c9291906126ca565b6040516020818303038152906040526040517f08c379a000000000000000000000000000000000000000000000000000000000815260040161177e9190611b2e565b60405180910390fd5b5050565b60606117b18273ffffffffffffffffffffffffffffffffffffffff16601460ff166117b8565b9050919050565b60605f60028360026117ca9190612703565b6117d49190612022565b67ffffffffffffffff8111156117ed576117ec612744565b5b6040519080825280601f01601f19166020018201604052801561181f5781602001600182028036833780820191505090505b5090507f3000000000000000000000000000000000000000000000000000000000000000815f8151811061185657611855612771565b5b60200101907effffffffffffffffffffffffffffffffffffffffffffffffffffffffffffff191690815f1a9053507f7800000000000000000000000000000000000000000000000000000000000000816001815181106118b9576118b8612771565b5b60200101907effffffffffffffffffffffffffffffffffffffffffffffffffffffffffffff191690815f1a9053505f60018460026118f79190612703565b6119019190612022565b90505b60018111156119a0577f3031323334353637383961626364656600000000000000000000000000000000600f86166010811061194357611942612771565b5b1a60f81b82828151811061195a57611959612771565b5b60200101907effffffffffffffffffffffffffffffffffffffffffffffffffffffffffffff191690815f1a905350600485901c9450806119999061279e565b9050611904565b505f84146119e3576040517f08c379a00000000000000000000000000000000000000000000000000000000081526004016119da9061280f565b60405180910390fd5b8091505092915050565b5f80fd5b5f7fffffffff0000000000000000000000000000000000000000000000000000000082169050919050565b611a25816119f1565b8114611a2f575f80fd5b50565b5f81359050611a4081611a1c565b92915050565b5f60208284031215611a5b57611a5a6119ed565b5b5f611a6884828501611a32565b91505092915050565b5f8115159050919050565b611a8581611a71565b82525050565b5f602082019050611a9e5f830184611a7c565b92915050565b5f81519050919050565b5f82825260208201905092915050565b5f5b83811015611adb578082015181840152602081019050611ac0565b5f8484015250505050565b5f601f19601f8301169050919050565b5f611b0082611aa4565b611b0a8185611aae565b9350611b1a818560208601611abe565b611b2381611ae6565b840191505092915050565b5f6020820190508181035f830152611b468184611af6565b905092915050565b5f73ffffffffffffffffffffffffffffffffffffffff82169050919050565b5f611b7782611b4e565b9050919050565b611b8781611b6d565b8114611b91575f80fd5b50565b5f81359050611ba281611b7e565b92915050565b5f819050919050565b611bba81611ba8565b8114611bc4575f80fd5b50565b5f81359050611bd581611bb1565b92915050565b5f8060408385031215611bf157611bf06119ed565b5b5f611bfe85828601611b94565b9250506020611c0f85828601611bc7565b9150509250929050565b611c2281611ba8565b82525050565b5f602082019050611c3b5f830184611c19565b92915050565b5f805f60608486031215611c5857611c576119ed565b5b5f611c6586828701611b94565b9350506020611c7686828701611b94565b9250506040611c8786828701611bc7565b9150509250925092565b5f819050919050565b611ca381611c91565b8114611cad575f80fd5b50565b5f81359050611cbe81611c9a565b92915050565b5f60208284031215611cd957611cd86119ed565b5b5f611ce684828501611cb0565b91505092915050565b611cf881611c91565b82525050565b5f602082019050611d115f830184611cef565b92915050565b5f8060408385031215611d2d57611d2c6119ed565b5b5f611d3a85828601611cb0565b9250506020611d4b85828601611b94565b9150509250929050565b5f60ff82169050919050565b611d6a81611d55565b82525050565b5f602082019050611d835f830184611d61565b92915050565b5f60208284031215611d9e57611d9d6119ed565b5b5f611dab84828501611bc7565b91505092915050565b5f611dbe82611b4e565b9050919050565b611dce81611db4565b8114611dd8575f80fd5b50565b5f81359050611de981611dc5565b92915050565b5f8060408385031215611e0557611e046119ed565b5b5f611e1285828601611ddb565b9250506020611e2385828601611bc7565b9150509250929050565b5f60208284031215611e4257611e416119ed565b5b5f611e4f84828501611b94565b91505092915050565b5f819050919050565b5f611e7b611e76611e7184611b4e565b611e58565b611b4e565b9050919050565b5f611e8c82611e61565b9050919050565b5f611e9d82611e82565b9050919050565b611ead81611e93565b82525050565b5f602082019050611ec65f830184611ea4565b92915050565b5f8060408385031215611ee257611ee16119ed565b5b5f611eef85828601611b94565b9250506020611f0085828601611b94565b9150509250929050565b7f4e487b71000000000000000000000000000000000000000000000000000000005f52602260045260245ffd5b5f6002820490506001821680611f4e57607f821691505b602082108103611f6157611f60611f0a565b5b50919050565b7f416363657373436f6e74726f6c3a2063616e206f6e6c792072656e6f756e63655f8201527f20726f6c657320666f722073656c660000000000000000000000000000000000602082015250565b5f611fc1602f83611aae565b9150611fcc82611f67565b604082019050919050565b5f6020820190508181035f830152611fee81611fb5565b9050919050565b7f4e487b71000000000000000000000000000000000000000000000000000000005f52601160045260245ffd5b5f61202c82611ba8565b915061203783611ba8565b925082820190508082111561204f5761204e611ff5565b5b92915050565b7f4e6f7420656e6f75676820457468657220696e2074686520636f6e74726163745f82015250565b5f612089602083611aae565b915061209482612055565b602082019050919050565b5f6020820190508181035f8301526120b68161207d565b9050919050565b5f815190506120cb81611b7e565b92915050565b5f602082840312156120e6576120e56119ed565b5b5f6120f3848285016120bd565b91505092915050565b61210581611b6d565b82525050565b5f60208201905061211e5f8301846120fc565b92915050565b7f45524332303a2064656372656173656420616c6c6f77616e63652062656c6f775f8201527f207a65726f000000000000000000000000000000000000000000000000000000602082015250565b5f61217e602583611aae565b915061218982612124565b604082019050919050565b5f6020820190508181035f8301526121ab81612172565b9050919050565b7f45524332303a20617070726f76652066726f6d20746865207a65726f206164645f8201527f7265737300000000000000000000000000000000000000000000000000000000602082015250565b5f61220c602483611aae565b9150612217826121b2565b604082019050919050565b5f6020820190508181035f83015261223981612200565b9050919050565b7f45524332303a20617070726f766520746f20746865207a65726f2061646472655f8201527f7373000000000000000000000000000000000000000000000000000000000000602082015250565b5f61229a602283611aae565b91506122a582612240565b604082019050919050565b5f6020820190508181035f8301526122c78161228e565b9050919050565b7f45524332303a20696e73756666696369656e7420616c6c6f77616e63650000005f82015250565b5f612302601d83611aae565b915061230d826122ce565b602082019050919050565b5f6020820190508181035f83015261232f816122f6565b9050919050565b7f45524332303a207472616e736665722066726f6d20746865207a65726f2061645f8201527f6472657373000000000000000000000000000000000000000000000000000000602082015250565b5f612390602583611aae565b915061239b82612336565b604082019050919050565b5f6020820190508181035f8301526123bd81612384565b9050919050565b7f45524332303a207472616e7366657220746f20746865207a65726f20616464725f8201527f6573730000000000000000000000000000000000000000000000000000000000602082015250565b5f61241e602383611aae565b9150612429826123c4565b604082019050919050565b5f6020820190508181035f83015261244b81612412565b9050919050565b7f45524332303a207472616e7366657220616d6f756e74206578636565647320625f8201527f616c616e63650000000000000000000000000000000000000000000000000000602082015250565b5f6124ac602683611aae565b91506124b782612452565b604082019050919050565b5f6020820190508181035f8301526124d9816124a0565b9050919050565b7f45524332303a206275726e2066726f6d20746865207a65726f206164647265735f8201527f7300000000000000000000000000000000000000000000000000000000000000602082015250565b5f61253a602183611aae565b9150612545826124e0565b604082019050919050565b5f6020820190508181035f8301526125678161252e565b9050919050565b7f45524332303a206275726e20616d6f756e7420657863656564732062616c616e5f8201527f6365000000000000000000000000000000000000000000000000000000000000602082015250565b5f6125c8602283611aae565b91506125d38261256e565b604082019050919050565b5f6020820190508181035f8301526125f5816125bc565b9050919050565b5f81905092915050565b7f416363657373436f6e74726f6c3a206163636f756e74200000000000000000005f82015250565b5f61263a6017836125fc565b915061264582612606565b601782019050919050565b5f61265a82611aa4565b61266481856125fc565b9350612674818560208601611abe565b80840191505092915050565b7f206973206d697373696e6720726f6c65200000000000000000000000000000005f82015250565b5f6126b46011836125fc565b91506126bf82612680565b601182019050919050565b5f6126d48261262e565b91506126e08285612650565b91506126eb826126a8565b91506126f78284612650565b91508190509392505050565b5f61270d82611ba8565b915061271883611ba8565b925082820261272681611ba8565b9150828204841483151761273d5761273c611ff5565b5b5092915050565b7f4e487b71000000000000000000000000000000000000000000000000000000005f52604160045260245ffd5b7f4e487b71000000000000000000000000000000000000000000000000000000005f52603260045260245ffd5b5f6127a882611ba8565b91505f82036127ba576127b9611ff5565b5b600182039050919050565b7f537472696e67733a20686578206c656e67746820696e73756666696369656e745f82015250565b5f6127f9602083611aae565b9150612804826127c5565b602082019050919050565b5f6020820190508181035f830152612826816127ed565b905091905056fea264697066735822122010bcc001c56bc7ecfbb3ce22f69bfbe26cba0f93450b7442abc0a4d313c9968964736f6c63430008150033",
  "immutableReferences": {
    "1278": [
      {
        "length": 32,
        "start": 2084
      }
    ]
  },
  "source": "// SPDX-License-Identifier: MIT\npragma solidity ^0.8.18;\n\nimport \"@openzeppelin/contracts/token/ERC20/ERC20.sol\";\nimport \"@openzeppelin/contracts/token/ERC20/extensions/ERC20Capped.sol\";\nimport \"@openzeppelin/contracts/token/ERC20/extensions/ERC20Burnable.sol\";\nimport \"@openzeppelin/contracts/access/AccessControl.sol\";\nimport \"@openzeppelin/contracts/security/Pausable.sol\";\nimport \"@openzeppelin/contracts/security/ReentrancyGuard.sol\";\nimport \"@openzeppelin/contracts/utils/math/SafeMath.sol\";\n\ninterface IUniswapV2Router {\n    function WETH() external pure returns (address);\n    function swapETHForExactTokens(uint256 amountOut, address[] calldata path, address to, uint deadline) external payable returns (uint[] memory amounts);\n}\n\ncontract Pherdz is ERC20Capped, ERC20Burnable, AccessControl, Pausable, ReentrancyGuard {\n    //using SafeMath for uint256;\n\n    uint256 private _maxTotalSupply = 100000000000000 * 10**decimals();\n    uint256 private _initialSupply = 370000000 * 10**decimals();\n    uint256 private _buybackFeePercent = 2;\n\n    bytes32 public constant MINTER_ROLE = keccak256(\"MINTER_ROLE\");\n\n    IUniswapV2Router public uniswapRouter;\n    address private WETH;\n\n    event BuybackFeeChanged(uint256 newFeePercent);\n    event EtherWithdrawn(address indexed recipient, uint256 amount);\n    event UniswapRouterUpdated(address newRouterAddress);\n\n    constructor(address _uniswapRouterAddress) ERC20Capped(_maxTotalSupply) ERC20(\"Pherdz\", \"HRDZ\") {\n        require(_initialSupply > 0, \"Initial supply must be greater than zero\");\n        _mint(msg.sender, _initialSupply);\n        _setupRole(DEFAULT_ADMIN_ROLE, msg.sender);\n        _setupRole(MINTER_ROLE, msg.sender);\n        uniswapRouter = IUniswapV2Router(_uniswapRouterAddress);\n        WETH = uniswapRouter.WETH();\n    }\n\n    function _mint(address account, uint256 amount) internal override(ERC20, ERC20Capped) {\n        super._mint(account, amount);  // Here we're calling the _mint function from ERC20Capped\n    }\n   \n    function updateUniswapRouter(address newRouterAddress) external onlyRole(DEFAULT_ADMIN_ROLE) {\n        uniswapRouter = IUniswapV2Router(newRouterAddress);\n        WETH = uniswapRouter.WETH();\n        emit UniswapRouterUpdated(newRouterAddress);\n    }\n\n    function withdrawEther(address payable recipient, uint256 amount) external onlyRole(DEFAULT_ADMIN_ROLE) {\n        require(address(this).balance >= amount, \"Not enough Ether in the contract\");\n        recipient.transfer(amount);\n        emit EtherWithdrawn(recipient, amount);\n    }\n\n    receive() external payable {}\n}",
  "sourcePath": "/home/deb/Documents/Programming/ERC20Tokens/erc20-token-003/BlackPaperToken/contracts/BlackPaperToken.sol",
  "compiler": {
    "name": "solc",
    "version": "0.8.21+commit.d9974bed.Emscripten.clang"
  },
  "schemaVersion": "3.4.15",
  "updatedAt": "2023-09-04T05:22:30.095Z",
  "devdoc": {
    "events": {
      "Approval(address,address,uint256)": {
        "details": "Emitted when the allowance of a `spender` for an `owner` is set by a call to {approve}. `value` is the new allowance."
      },
      "Paused(address)": {
        "details": "Emitted when the pause is triggered by `account`."
      },
      "RoleAdminChanged(bytes32,bytes32,bytes32)": {
        "details": "Emitted when `newAdminRole` is set as ``role``'s admin role, replacing `previousAdminRole` `DEFAULT_ADMIN_ROLE` is the starting admin for all roles, despite {RoleAdminChanged} not being emitted signaling this. _Available since v3.1._"
      },
      "RoleGranted(bytes32,address,address)": {
        "details": "Emitted when `account` is granted `role`. `sender` is the account that originated the contract call, an admin role bearer except when using {AccessControl-_setupRole}."
      },
      "RoleRevoked(bytes32,address,address)": {
        "details": "Emitted when `account` is revoked `role`. `sender` is the account that originated the contract call:   - if using `revokeRole`, it is the admin role bearer   - if using `renounceRole`, it is the role bearer (i.e. `account`)"
      },
      "Transfer(address,address,uint256)": {
        "details": "Emitted when `value` tokens are moved from one account (`from`) to another (`to`). Note that `value` may be zero."
      },
      "Unpaused(address)": {
        "details": "Emitted when the pause is lifted by `account`."
      }
    },
    "kind": "dev",
    "methods": {
      "allowance(address,address)": {
        "details": "See {IERC20-allowance}."
      },
      "approve(address,uint256)": {
        "details": "See {IERC20-approve}. NOTE: If `amount` is the maximum `uint256`, the allowance is not updated on `transferFrom`. This is semantically equivalent to an infinite approval. Requirements: - `spender` cannot be the zero address."
      },
      "balanceOf(address)": {
        "details": "See {IERC20-balanceOf}."
      },
      "burn(uint256)": {
        "details": "Destroys `amount` tokens from the caller. See {ERC20-_burn}."
      },
      "burnFrom(address,uint256)": {
        "details": "Destroys `amount` tokens from `account`, deducting from the caller's allowance. See {ERC20-_burn} and {ERC20-allowance}. Requirements: - the caller must have allowance for ``accounts``'s tokens of at least `amount`."
      },
      "cap()": {
        "details": "Returns the cap on the token's total supply."
      },
      "decimals()": {
        "details": "Returns the number of decimals used to get its user representation. For example, if `decimals` equals `2`, a balance of `505` tokens should be displayed to a user as `5.05` (`505 / 10 ** 2`). Tokens usually opt for a value of 18, imitating the relationship between Ether and Wei. This is the default value returned by this function, unless it's overridden. NOTE: This information is only used for _display_ purposes: it in no way affects any of the arithmetic of the contract, including {IERC20-balanceOf} and {IERC20-transfer}."
      },
      "decreaseAllowance(address,uint256)": {
        "details": "Atomically decreases the allowance granted to `spender` by the caller. This is an alternative to {approve} that can be used as a mitigation for problems described in {IERC20-approve}. Emits an {Approval} event indicating the updated allowance. Requirements: - `spender` cannot be the zero address. - `spender` must have allowance for the caller of at least `subtractedValue`."
      },
      "getRoleAdmin(bytes32)": {
        "details": "Returns the admin role that controls `role`. See {grantRole} and {revokeRole}. To change a role's admin, use {_setRoleAdmin}."
      },
      "grantRole(bytes32,address)": {
        "details": "Grants `role` to `account`. If `account` had not been already granted `role`, emits a {RoleGranted} event. Requirements: - the caller must have ``role``'s admin role. May emit a {RoleGranted} event."
      },
      "hasRole(bytes32,address)": {
        "details": "Returns `true` if `account` has been granted `role`."
      },
      "increaseAllowance(address,uint256)": {
        "details": "Atomically increases the allowance granted to `spender` by the caller. This is an alternative to {approve} that can be used as a mitigation for problems described in {IERC20-approve}. Emits an {Approval} event indicating the updated allowance. Requirements: - `spender` cannot be the zero address."
      },
      "name()": {
        "details": "Returns the name of the token."
      },
      "paused()": {
        "details": "Returns true if the contract is paused, and false otherwise."
      },
      "renounceRole(bytes32,address)": {
        "details": "Revokes `role` from the calling account. Roles are often managed via {grantRole} and {revokeRole}: this function's purpose is to provide a mechanism for accounts to lose their privileges if they are compromised (such as when a trusted device is misplaced). If the calling account had been revoked `role`, emits a {RoleRevoked} event. Requirements: - the caller must be `account`. May emit a {RoleRevoked} event."
      },
      "revokeRole(bytes32,address)": {
        "details": "Revokes `role` from `account`. If `account` had been granted `role`, emits a {RoleRevoked} event. Requirements: - the caller must have ``role``'s admin role. May emit a {RoleRevoked} event."
      },
      "supportsInterface(bytes4)": {
        "details": "See {IERC165-supportsInterface}."
      },
      "symbol()": {
        "details": "Returns the symbol of the token, usually a shorter version of the name."
      },
      "totalSupply()": {
        "details": "See {IERC20-totalSupply}."
      },
      "transfer(address,uint256)": {
        "details": "See {IERC20-transfer}. Requirements: - `to` cannot be the zero address. - the caller must have a balance of at least `amount`."
      },
      "transferFrom(address,address,uint256)": {
        "details": "See {IERC20-transferFrom}. Emits an {Approval} event indicating the updated allowance. This is not required by the EIP. See the note at the beginning of {ERC20}. NOTE: Does not update the allowance if the current allowance is the maximum `uint256`. Requirements: - `from` and `to` cannot be the zero address. - `from` must have a balance of at least `amount`. - the caller must have allowance for ``from``'s tokens of at least `amount`."
      }
    },
    "version": 1
  },
  "userdoc": {
    "kind": "user",
    "methods": {},
    "version": 1
  }
}